{
	"src/InvestmentPoolToken.sol": {
		"InvestmentPoolToken": {
			"abi": [
				{
					"inputs": [
						{
							"internalType": "string",
							"name": "name_",
							"type": "string"
						},
						{
							"internalType": "string",
							"name": "symbol_",
							"type": "string"
						},
						{
							"internalType": "address",
							"name": "admin",
							"type": "address"
						}
					],
					"stateMutability": "nonpayable",
					"type": "constructor"
				},
				{
					"inputs": [],
					"name": "AccessControlBadConfirmation",
					"type": "error"
				},
				{
					"inputs": [
						{
							"internalType": "address",
							"name": "account",
							"type": "address"
						},
						{
							"internalType": "bytes32",
							"name": "neededRole",
							"type": "bytes32"
						}
					],
					"name": "AccessControlUnauthorizedAccount",
					"type": "error"
				},
				{
					"inputs": [
						{
							"internalType": "address",
							"name": "spender",
							"type": "address"
						},
						{
							"internalType": "uint256",
							"name": "allowance",
							"type": "uint256"
						},
						{
							"internalType": "uint256",
							"name": "needed",
							"type": "uint256"
						}
					],
					"name": "ERC20InsufficientAllowance",
					"type": "error"
				},
				{
					"inputs": [
						{
							"internalType": "address",
							"name": "sender",
							"type": "address"
						},
						{
							"internalType": "uint256",
							"name": "balance",
							"type": "uint256"
						},
						{
							"internalType": "uint256",
							"name": "needed",
							"type": "uint256"
						}
					],
					"name": "ERC20InsufficientBalance",
					"type": "error"
				},
				{
					"inputs": [
						{
							"internalType": "address",
							"name": "approver",
							"type": "address"
						}
					],
					"name": "ERC20InvalidApprover",
					"type": "error"
				},
				{
					"inputs": [
						{
							"internalType": "address",
							"name": "receiver",
							"type": "address"
						}
					],
					"name": "ERC20InvalidReceiver",
					"type": "error"
				},
				{
					"inputs": [
						{
							"internalType": "address",
							"name": "sender",
							"type": "address"
						}
					],
					"name": "ERC20InvalidSender",
					"type": "error"
				},
				{
					"inputs": [
						{
							"internalType": "address",
							"name": "spender",
							"type": "address"
						}
					],
					"name": "ERC20InvalidSpender",
					"type": "error"
				},
				{
					"anonymous": false,
					"inputs": [
						{
							"indexed": true,
							"internalType": "address",
							"name": "owner",
							"type": "address"
						},
						{
							"indexed": true,
							"internalType": "address",
							"name": "spender",
							"type": "address"
						},
						{
							"indexed": false,
							"internalType": "uint256",
							"name": "value",
							"type": "uint256"
						}
					],
					"name": "Approval",
					"type": "event"
				},
				{
					"anonymous": false,
					"inputs": [
						{
							"indexed": true,
							"internalType": "bytes32",
							"name": "role",
							"type": "bytes32"
						},
						{
							"indexed": true,
							"internalType": "bytes32",
							"name": "previousAdminRole",
							"type": "bytes32"
						},
						{
							"indexed": true,
							"internalType": "bytes32",
							"name": "newAdminRole",
							"type": "bytes32"
						}
					],
					"name": "RoleAdminChanged",
					"type": "event"
				},
				{
					"anonymous": false,
					"inputs": [
						{
							"indexed": true,
							"internalType": "bytes32",
							"name": "role",
							"type": "bytes32"
						},
						{
							"indexed": true,
							"internalType": "address",
							"name": "account",
							"type": "address"
						},
						{
							"indexed": true,
							"internalType": "address",
							"name": "sender",
							"type": "address"
						}
					],
					"name": "RoleGranted",
					"type": "event"
				},
				{
					"anonymous": false,
					"inputs": [
						{
							"indexed": true,
							"internalType": "bytes32",
							"name": "role",
							"type": "bytes32"
						},
						{
							"indexed": true,
							"internalType": "address",
							"name": "account",
							"type": "address"
						},
						{
							"indexed": true,
							"internalType": "address",
							"name": "sender",
							"type": "address"
						}
					],
					"name": "RoleRevoked",
					"type": "event"
				},
				{
					"anonymous": false,
					"inputs": [
						{
							"indexed": true,
							"internalType": "address",
							"name": "from",
							"type": "address"
						},
						{
							"indexed": true,
							"internalType": "address",
							"name": "to",
							"type": "address"
						},
						{
							"indexed": false,
							"internalType": "uint256",
							"name": "value",
							"type": "uint256"
						}
					],
					"name": "Transfer",
					"type": "event"
				},
				{
					"inputs": [],
					"name": "DEFAULT_ADMIN_ROLE",
					"outputs": [
						{
							"internalType": "bytes32",
							"name": "",
							"type": "bytes32"
						}
					],
					"stateMutability": "view",
					"type": "function"
				},
				{
					"inputs": [],
					"name": "MINTER_BURNER_ROLE",
					"outputs": [
						{
							"internalType": "bytes32",
							"name": "",
							"type": "bytes32"
						}
					],
					"stateMutability": "view",
					"type": "function"
				},
				{
					"inputs": [
						{
							"internalType": "address",
							"name": "owner",
							"type": "address"
						},
						{
							"internalType": "address",
							"name": "spender",
							"type": "address"
						}
					],
					"name": "allowance",
					"outputs": [
						{
							"internalType": "uint256",
							"name": "",
							"type": "uint256"
						}
					],
					"stateMutability": "view",
					"type": "function"
				},
				{
					"inputs": [
						{
							"internalType": "address",
							"name": "spender",
							"type": "address"
						},
						{
							"internalType": "uint256",
							"name": "value",
							"type": "uint256"
						}
					],
					"name": "approve",
					"outputs": [
						{
							"internalType": "bool",
							"name": "",
							"type": "bool"
						}
					],
					"stateMutability": "nonpayable",
					"type": "function"
				},
				{
					"inputs": [
						{
							"internalType": "address",
							"name": "account",
							"type": "address"
						}
					],
					"name": "balanceOf",
					"outputs": [
						{
							"internalType": "uint256",
							"name": "",
							"type": "uint256"
						}
					],
					"stateMutability": "view",
					"type": "function"
				},
				{
					"inputs": [
						{
							"internalType": "address",
							"name": "from",
							"type": "address"
						},
						{
							"internalType": "uint256",
							"name": "amount",
							"type": "uint256"
						}
					],
					"name": "burn",
					"outputs": [],
					"stateMutability": "nonpayable",
					"type": "function"
				},
				{
					"inputs": [],
					"name": "decimals",
					"outputs": [
						{
							"internalType": "uint8",
							"name": "",
							"type": "uint8"
						}
					],
					"stateMutability": "view",
					"type": "function"
				},
				{
					"inputs": [
						{
							"internalType": "bytes32",
							"name": "role",
							"type": "bytes32"
						}
					],
					"name": "getRoleAdmin",
					"outputs": [
						{
							"internalType": "bytes32",
							"name": "",
							"type": "bytes32"
						}
					],
					"stateMutability": "view",
					"type": "function"
				},
				{
					"inputs": [
						{
							"internalType": "bytes32",
							"name": "role",
							"type": "bytes32"
						},
						{
							"internalType": "address",
							"name": "account",
							"type": "address"
						}
					],
					"name": "grantRole",
					"outputs": [],
					"stateMutability": "nonpayable",
					"type": "function"
				},
				{
					"inputs": [
						{
							"internalType": "bytes32",
							"name": "role",
							"type": "bytes32"
						},
						{
							"internalType": "address",
							"name": "account",
							"type": "address"
						}
					],
					"name": "hasRole",
					"outputs": [
						{
							"internalType": "bool",
							"name": "",
							"type": "bool"
						}
					],
					"stateMutability": "view",
					"type": "function"
				},
				{
					"inputs": [
						{
							"internalType": "address",
							"name": "to",
							"type": "address"
						},
						{
							"internalType": "uint256",
							"name": "amount",
							"type": "uint256"
						}
					],
					"name": "mint",
					"outputs": [],
					"stateMutability": "nonpayable",
					"type": "function"
				},
				{
					"inputs": [],
					"name": "name",
					"outputs": [
						{
							"internalType": "string",
							"name": "",
							"type": "string"
						}
					],
					"stateMutability": "view",
					"type": "function"
				},
				{
					"inputs": [
						{
							"internalType": "bytes32",
							"name": "role",
							"type": "bytes32"
						},
						{
							"internalType": "address",
							"name": "callerConfirmation",
							"type": "address"
						}
					],
					"name": "renounceRole",
					"outputs": [],
					"stateMutability": "nonpayable",
					"type": "function"
				},
				{
					"inputs": [
						{
							"internalType": "bytes32",
							"name": "role",
							"type": "bytes32"
						},
						{
							"internalType": "address",
							"name": "account",
							"type": "address"
						}
					],
					"name": "revokeRole",
					"outputs": [],
					"stateMutability": "nonpayable",
					"type": "function"
				},
				{
					"inputs": [
						{
							"internalType": "bytes4",
							"name": "interfaceId",
							"type": "bytes4"
						}
					],
					"name": "supportsInterface",
					"outputs": [
						{
							"internalType": "bool",
							"name": "",
							"type": "bool"
						}
					],
					"stateMutability": "view",
					"type": "function"
				},
				{
					"inputs": [],
					"name": "symbol",
					"outputs": [
						{
							"internalType": "string",
							"name": "",
							"type": "string"
						}
					],
					"stateMutability": "view",
					"type": "function"
				},
				{
					"inputs": [],
					"name": "totalSupply",
					"outputs": [
						{
							"internalType": "uint256",
							"name": "",
							"type": "uint256"
						}
					],
					"stateMutability": "view",
					"type": "function"
				},
				{
					"inputs": [
						{
							"internalType": "address",
							"name": "to",
							"type": "address"
						},
						{
							"internalType": "uint256",
							"name": "value",
							"type": "uint256"
						}
					],
					"name": "transfer",
					"outputs": [
						{
							"internalType": "bool",
							"name": "",
							"type": "bool"
						}
					],
					"stateMutability": "nonpayable",
					"type": "function"
				},
				{
					"inputs": [
						{
							"internalType": "address",
							"name": "from",
							"type": "address"
						},
						{
							"internalType": "address",
							"name": "to",
							"type": "address"
						},
						{
							"internalType": "uint256",
							"name": "value",
							"type": "uint256"
						}
					],
					"name": "transferFrom",
					"outputs": [
						{
							"internalType": "bool",
							"name": "",
							"type": "bool"
						}
					],
					"stateMutability": "nonpayable",
					"type": "function"
				}
			],
			"devdoc": {
				"errors": {
					"AccessControlBadConfirmation()": [
						{
							"details": "The caller of a function is not the expected one. NOTE: Don't confuse with {AccessControlUnauthorizedAccount}."
						}
					],
					"AccessControlUnauthorizedAccount(address,bytes32)": [
						{
							"details": "The `account` is missing a role."
						}
					],
					"ERC20InsufficientAllowance(address,uint256,uint256)": [
						{
							"details": "Indicates a failure with the `spender`’s `allowance`. Used in transfers.",
							"params": {
								"allowance": "Amount of tokens a `spender` is allowed to operate with.",
								"needed": "Minimum amount required to perform a transfer.",
								"spender": "Address that may be allowed to operate on tokens without being their owner."
							}
						}
					],
					"ERC20InsufficientBalance(address,uint256,uint256)": [
						{
							"details": "Indicates an error related to the current `balance` of a `sender`. Used in transfers.",
							"params": {
								"balance": "Current balance for the interacting account.",
								"needed": "Minimum amount required to perform a transfer.",
								"sender": "Address whose tokens are being transferred."
							}
						}
					],
					"ERC20InvalidApprover(address)": [
						{
							"details": "Indicates a failure with the `approver` of a token to be approved. Used in approvals.",
							"params": {
								"approver": "Address initiating an approval operation."
							}
						}
					],
					"ERC20InvalidReceiver(address)": [
						{
							"details": "Indicates a failure with the token `receiver`. Used in transfers.",
							"params": {
								"receiver": "Address to which tokens are being transferred."
							}
						}
					],
					"ERC20InvalidSender(address)": [
						{
							"details": "Indicates a failure with the token `sender`. Used in transfers.",
							"params": {
								"sender": "Address whose tokens are being transferred."
							}
						}
					],
					"ERC20InvalidSpender(address)": [
						{
							"details": "Indicates a failure with the `spender` to be approved. Used in approvals.",
							"params": {
								"spender": "Address that may be allowed to operate on tokens without being their owner."
							}
						}
					]
				},
				"events": {
					"Approval(address,address,uint256)": {
						"details": "Emitted when the allowance of a `spender` for an `owner` is set by a call to {approve}. `value` is the new allowance."
					},
					"RoleAdminChanged(bytes32,bytes32,bytes32)": {
						"details": "Emitted when `newAdminRole` is set as ``role``'s admin role, replacing `previousAdminRole` `DEFAULT_ADMIN_ROLE` is the starting admin for all roles, despite {RoleAdminChanged} not being emitted to signal this."
					},
					"RoleGranted(bytes32,address,address)": {
						"details": "Emitted when `account` is granted `role`. `sender` is the account that originated the contract call. This account bears the admin role (for the granted role). Expected in cases where the role was granted using the internal {AccessControl-_grantRole}."
					},
					"RoleRevoked(bytes32,address,address)": {
						"details": "Emitted when `account` is revoked `role`. `sender` is the account that originated the contract call:   - if using `revokeRole`, it is the admin role bearer   - if using `renounceRole`, it is the role bearer (i.e. `account`)"
					},
					"Transfer(address,address,uint256)": {
						"details": "Emitted when `value` tokens are moved from one account (`from`) to another (`to`). Note that `value` may be zero."
					}
				},
				"kind": "dev",
				"methods": {
					"allowance(address,address)": {
						"details": "See {IERC20-allowance}."
					},
					"approve(address,uint256)": {
						"details": "See {IERC20-approve}. NOTE: If `value` is the maximum `uint256`, the allowance is not updated on `transferFrom`. This is semantically equivalent to an infinite approval. Requirements: - `spender` cannot be the zero address."
					},
					"balanceOf(address)": {
						"details": "See {IERC20-balanceOf}."
					},
					"decimals()": {
						"details": "Returns the number of decimals used to get its user representation. For example, if `decimals` equals `2`, a balance of `505` tokens should be displayed to a user as `5.05` (`505 / 10 ** 2`). Tokens usually opt for a value of 18, imitating the relationship between Ether and Wei. This is the default value returned by this function, unless it's overridden. NOTE: This information is only used for _display_ purposes: it in no way affects any of the arithmetic of the contract, including {IERC20-balanceOf} and {IERC20-transfer}."
					},
					"getRoleAdmin(bytes32)": {
						"details": "Returns the admin role that controls `role`. See {grantRole} and {revokeRole}. To change a role's admin, use {_setRoleAdmin}."
					},
					"grantRole(bytes32,address)": {
						"details": "Grants `role` to `account`. If `account` had not been already granted `role`, emits a {RoleGranted} event. Requirements: - the caller must have ``role``'s admin role. May emit a {RoleGranted} event."
					},
					"hasRole(bytes32,address)": {
						"details": "Returns `true` if `account` has been granted `role`."
					},
					"name()": {
						"details": "Returns the name of the token."
					},
					"renounceRole(bytes32,address)": {
						"details": "Revokes `role` from the calling account. Roles are often managed via {grantRole} and {revokeRole}: this function's purpose is to provide a mechanism for accounts to lose their privileges if they are compromised (such as when a trusted device is misplaced). If the calling account had been revoked `role`, emits a {RoleRevoked} event. Requirements: - the caller must be `callerConfirmation`. May emit a {RoleRevoked} event."
					},
					"revokeRole(bytes32,address)": {
						"details": "Revokes `role` from `account`. If `account` had been granted `role`, emits a {RoleRevoked} event. Requirements: - the caller must have ``role``'s admin role. May emit a {RoleRevoked} event."
					},
					"supportsInterface(bytes4)": {
						"details": "See {IERC165-supportsInterface}."
					},
					"symbol()": {
						"details": "Returns the symbol of the token, usually a shorter version of the name."
					},
					"totalSupply()": {
						"details": "See {IERC20-totalSupply}."
					},
					"transfer(address,uint256)": {
						"details": "See {IERC20-transfer}. Requirements: - `to` cannot be the zero address. - the caller must have a balance of at least `value`."
					},
					"transferFrom(address,address,uint256)": {
						"details": "See {IERC20-transferFrom}. Skips emitting an {Approval} event indicating an allowance update. This is not required by the ERC. See {xref-ERC20-_approve-address-address-uint256-bool-}[_approve]. NOTE: Does not update the allowance if the current allowance is the maximum `uint256`. Requirements: - `from` and `to` cannot be the zero address. - `from` must have a balance of at least `value`. - the caller must have allowance for ``from``'s tokens of at least `value`."
					}
				},
				"title": "InvestmentPoolToken",
				"version": 1
			},
			"evm": {
				"assembly": "    /* \"src/InvestmentPoolToken.sol\":387:922  contract InvestmentPoolToken is ERC20, AccessControl {... */\n  mstore(0x40, 0x80)\n    /* \"src/InvestmentPoolToken.sol\":529:676  constructor(string memory name_, string memory symbol_, address admin) ERC20(name_, symbol_) {... */\n  callvalue\n  dup1\n  iszero\n  tag_1\n  jumpi\n  revert(0x00, 0x00)\ntag_1:\n  pop\n  mload(0x40)\n  sub(codesize, bytecodeSize)\n  dup1\n  bytecodeSize\n  dup4\n  codecopy\n  dup2\n  dup2\n  add\n  0x40\n  mstore\n  dup2\n  add\n  swap1\n  tag_2\n  swap2\n  swap1\n  tag_3\n  jump\t// in\ntag_2:\n    /* \"src/InvestmentPoolToken.sol\":606:611  name_ */\n  dup3\n    /* \"src/InvestmentPoolToken.sol\":613:620  symbol_ */\n  dup3\n    /* \"lib/openzeppelin-contracts/contracts/token/ERC20/ERC20.sol\":1656:1661  name_ */\n  dup2\n    /* \"lib/openzeppelin-contracts/contracts/token/ERC20/ERC20.sol\":1648:1653  _name */\n  0x03\n    /* \"lib/openzeppelin-contracts/contracts/token/ERC20/ERC20.sol\":1648:1661  _name = name_ */\n  swap1\n  dup2\n  tag_7\n  swap2\n  swap1\n  tag_8\n  jump\t// in\ntag_7:\n  pop\n    /* \"lib/openzeppelin-contracts/contracts/token/ERC20/ERC20.sol\":1681:1688  symbol_ */\n  dup1\n    /* \"lib/openzeppelin-contracts/contracts/token/ERC20/ERC20.sol\":1671:1678  _symbol */\n  0x04\n    /* \"lib/openzeppelin-contracts/contracts/token/ERC20/ERC20.sol\":1671:1688  _symbol = symbol_ */\n  swap1\n  dup2\n  tag_9\n  swap2\n  swap1\n  tag_8\n  jump\t// in\ntag_9:\n  pop\n    /* \"lib/openzeppelin-contracts/contracts/token/ERC20/ERC20.sol\":1582:1695  constructor(string memory name_, string memory symbol_) {... */\n  pop\n  pop\n    /* \"src/InvestmentPoolToken.sol\":632:669  _grantRole(DEFAULT_ADMIN_ROLE, admin) */\n  tag_11\n    /* \"lib/openzeppelin-contracts/contracts/access/AccessControl.sol\":2232:2236  0x00 */\n  0x00\n    /* \"src/InvestmentPoolToken.sol\":643:661  DEFAULT_ADMIN_ROLE */\n  0x00\n  shl\n    /* \"src/InvestmentPoolToken.sol\":663:668  admin */\n  dup3\n    /* \"src/InvestmentPoolToken.sol\":632:642  _grantRole */\n  shl(0x20, tag_12)\n    /* \"src/InvestmentPoolToken.sol\":632:669  _grantRole(DEFAULT_ADMIN_ROLE, admin) */\n  0x20\n  shr\n  jump\t// in\ntag_11:\n  pop\n    /* \"src/InvestmentPoolToken.sol\":529:676  constructor(string memory name_, string memory symbol_, address admin) ERC20(name_, symbol_) {... */\n  pop\n  pop\n  pop\n    /* \"src/InvestmentPoolToken.sol\":387:922  contract InvestmentPoolToken is ERC20, AccessControl {... */\n  jump(tag_13)\n    /* \"lib/openzeppelin-contracts/contracts/access/AccessControl.sol\":6179:6495  function _grantRole(bytes32 role, address account) internal virtual returns (bool) {... */\ntag_12:\n    /* \"lib/openzeppelin-contracts/contracts/access/AccessControl.sol\":6256:6260  bool */\n  0x00\n    /* \"lib/openzeppelin-contracts/contracts/access/AccessControl.sol\":6277:6299  hasRole(role, account) */\n  tag_15\n    /* \"lib/openzeppelin-contracts/contracts/access/AccessControl.sol\":6285:6289  role */\n  dup4\n    /* \"lib/openzeppelin-contracts/contracts/access/AccessControl.sol\":6291:6298  account */\n  dup4\n    /* \"lib/openzeppelin-contracts/contracts/access/AccessControl.sol\":6277:6284  hasRole */\n  shl(0x20, tag_16)\n    /* \"lib/openzeppelin-contracts/contracts/access/AccessControl.sol\":6277:6299  hasRole(role, account) */\n  0x20\n  shr\n  jump\t// in\ntag_15:\n    /* \"lib/openzeppelin-contracts/contracts/access/AccessControl.sol\":6272:6489  if (!hasRole(role, account)) {... */\n  tag_17\n  jumpi\n    /* \"lib/openzeppelin-contracts/contracts/access/AccessControl.sol\":6347:6351  true */\n  0x01\n    /* \"lib/openzeppelin-contracts/contracts/access/AccessControl.sol\":6315:6321  _roles */\n  0x05\n    /* \"lib/openzeppelin-contracts/contracts/access/AccessControl.sol\":6315:6327  _roles[role] */\n  0x00\n    /* \"lib/openzeppelin-contracts/contracts/access/AccessControl.sol\":6322:6326  role */\n  dup6\n    /* \"lib/openzeppelin-contracts/contracts/access/AccessControl.sol\":6315:6327  _roles[role] */\n  dup2\n  mstore\n  0x20\n  add\n  swap1\n  dup2\n  mstore\n  0x20\n  add\n  0x00\n  keccak256\n    /* \"lib/openzeppelin-contracts/contracts/access/AccessControl.sol\":6315:6335  _roles[role].hasRole */\n  0x00\n  add\n    /* \"lib/openzeppelin-contracts/contracts/access/AccessControl.sol\":6315:6344  _roles[role].hasRole[account] */\n  0x00\n    /* \"lib/openzeppelin-contracts/contracts/access/AccessControl.sol\":6336:6343  account */\n  dup5\n    /* \"lib/openzeppelin-contracts/contracts/access/AccessControl.sol\":6315:6344  _roles[role].hasRole[account] */\n  0xffffffffffffffffffffffffffffffffffffffff\n  and\n  0xffffffffffffffffffffffffffffffffffffffff\n  and\n  dup2\n  mstore\n  0x20\n  add\n  swap1\n  dup2\n  mstore\n  0x20\n  add\n  0x00\n  keccak256\n  0x00\n    /* \"lib/openzeppelin-contracts/contracts/access/AccessControl.sol\":6315:6351  _roles[role].hasRole[account] = true */\n  0x0100\n  exp\n  dup2\n  sload\n  dup2\n  0xff\n  mul\n  not\n  and\n  swap1\n  dup4\n  iszero\n  iszero\n  mul\n  or\n  swap1\n  sstore\n  pop\n    /* \"lib/openzeppelin-contracts/contracts/access/AccessControl.sol\":6397:6409  _msgSender() */\n  tag_18\n    /* \"lib/openzeppelin-contracts/contracts/access/AccessControl.sol\":6397:6407  _msgSender */\n  shl(0x20, tag_19)\n    /* \"lib/openzeppelin-contracts/contracts/access/AccessControl.sol\":6397:6409  _msgSender() */\n  0x20\n  shr\n  jump\t// in\ntag_18:\n    /* \"lib/openzeppelin-contracts/contracts/access/AccessControl.sol\":6370:6410  RoleGranted(role, account, _msgSender()) */\n  0xffffffffffffffffffffffffffffffffffffffff\n  and\n    /* \"lib/openzeppelin-contracts/contracts/access/AccessControl.sol\":6388:6395  account */\n  dup3\n    /* \"lib/openzeppelin-contracts/contracts/access/AccessControl.sol\":6370:6410  RoleGranted(role, account, _msgSender()) */\n  0xffffffffffffffffffffffffffffffffffffffff\n  and\n    /* \"lib/openzeppelin-contracts/contracts/access/AccessControl.sol\":6382:6386  role */\n  dup5\n    /* \"lib/openzeppelin-contracts/contracts/access/AccessControl.sol\":6370:6410  RoleGranted(role, account, _msgSender()) */\n  0x2f8788117e7eff1d82e926ec794901d17c78024a50270940304540a733656f0d\n  mload(0x40)\n  mload(0x40)\n  dup1\n  swap2\n  sub\n  swap1\n  log4\n    /* \"lib/openzeppelin-contracts/contracts/access/AccessControl.sol\":6431:6435  true */\n  0x01\n    /* \"lib/openzeppelin-contracts/contracts/access/AccessControl.sol\":6424:6435  return true */\n  swap1\n  pop\n  jump(tag_14)\n    /* \"lib/openzeppelin-contracts/contracts/access/AccessControl.sol\":6272:6489  if (!hasRole(role, account)) {... */\ntag_17:\n    /* \"lib/openzeppelin-contracts/contracts/access/AccessControl.sol\":6473:6478  false */\n  0x00\n    /* \"lib/openzeppelin-contracts/contracts/access/AccessControl.sol\":6466:6478  return false */\n  swap1\n  pop\n    /* \"lib/openzeppelin-contracts/contracts/access/AccessControl.sol\":6179:6495  function _grantRole(bytes32 role, address account) internal virtual returns (bool) {... */\ntag_14:\n  swap3\n  swap2\n  pop\n  pop\n  jump\t// out\n    /* \"lib/openzeppelin-contracts/contracts/access/AccessControl.sol\":2854:2990  function hasRole(bytes32 role, address account) public view virtual returns (bool) {... */\ntag_16:\n    /* \"lib/openzeppelin-contracts/contracts/access/AccessControl.sol\":2931:2935  bool */\n  0x00\n    /* \"lib/openzeppelin-contracts/contracts/access/AccessControl.sol\":2954:2960  _roles */\n  0x05\n    /* \"lib/openzeppelin-contracts/contracts/access/AccessControl.sol\":2954:2966  _roles[role] */\n  0x00\n    /* \"lib/openzeppelin-contracts/contracts/access/AccessControl.sol\":2961:2965  role */\n  dup5\n    /* \"lib/openzeppelin-contracts/contracts/access/AccessControl.sol\":2954:2966  _roles[role] */\n  dup2\n  mstore\n  0x20\n  add\n  swap1\n  dup2\n  mstore\n  0x20\n  add\n  0x00\n  keccak256\n    /* \"lib/openzeppelin-contracts/contracts/access/AccessControl.sol\":2954:2974  _roles[role].hasRole */\n  0x00\n  add\n    /* \"lib/openzeppelin-contracts/contracts/access/AccessControl.sol\":2954:2983  _roles[role].hasRole[account] */\n  0x00\n    /* \"lib/openzeppelin-contracts/contracts/access/AccessControl.sol\":2975:2982  account */\n  dup4\n    /* \"lib/openzeppelin-contracts/contracts/access/AccessControl.sol\":2954:2983  _roles[role].hasRole[account] */\n  0xffffffffffffffffffffffffffffffffffffffff\n  and\n  0xffffffffffffffffffffffffffffffffffffffff\n  and\n  dup2\n  mstore\n  0x20\n  add\n  swap1\n  dup2\n  mstore\n  0x20\n  add\n  0x00\n  keccak256\n  0x00\n  swap1\n  sload\n  swap1\n  0x0100\n  exp\n  swap1\n  div\n  0xff\n  and\n    /* \"lib/openzeppelin-contracts/contracts/access/AccessControl.sol\":2947:2983  return _roles[role].hasRole[account] */\n  swap1\n  pop\n    /* \"lib/openzeppelin-contracts/contracts/access/AccessControl.sol\":2854:2990  function hasRole(bytes32 role, address account) public view virtual returns (bool) {... */\n  swap3\n  swap2\n  pop\n  pop\n  jump\t// out\n    /* \"lib/openzeppelin-contracts/contracts/utils/Context.sol\":656:752  function _msgSender() internal view virtual returns (address) {... */\ntag_19:\n    /* \"lib/openzeppelin-contracts/contracts/utils/Context.sol\":709:716  address */\n  0x00\n    /* \"lib/openzeppelin-contracts/contracts/utils/Context.sol\":735:745  msg.sender */\n  caller\n    /* \"lib/openzeppelin-contracts/contracts/utils/Context.sol\":728:745  return msg.sender */\n  swap1\n  pop\n    /* \"lib/openzeppelin-contracts/contracts/utils/Context.sol\":656:752  function _msgSender() internal view virtual returns (address) {... */\n  swap1\n  jump\t// out\n    /* \"#utility.yul\":7:82   */\ntag_23:\n    /* \"#utility.yul\":40:46   */\n  0x00\n    /* \"#utility.yul\":73:75   */\n  0x40\n    /* \"#utility.yul\":67:76   */\n  mload\n    /* \"#utility.yul\":57:76   */\n  swap1\n  pop\n    /* \"#utility.yul\":7:82   */\n  swap1\n  jump\t// out\n    /* \"#utility.yul\":88:205   */\ntag_24:\n    /* \"#utility.yul\":197:198   */\n  0x00\n    /* \"#utility.yul\":194:195   */\n  0x00\n    /* \"#utility.yul\":187:199   */\n  revert\n    /* \"#utility.yul\":211:328   */\ntag_25:\n    /* \"#utility.yul\":320:321   */\n  0x00\n    /* \"#utility.yul\":317:318   */\n  0x00\n    /* \"#utility.yul\":310:322   */\n  revert\n    /* \"#utility.yul\":334:451   */\ntag_26:\n    /* \"#utility.yul\":443:444   */\n  0x00\n    /* \"#utility.yul\":440:441   */\n  0x00\n    /* \"#utility.yul\":433:445   */\n  revert\n    /* \"#utility.yul\":457:574   */\ntag_27:\n    /* \"#utility.yul\":566:567   */\n  0x00\n    /* \"#utility.yul\":563:564   */\n  0x00\n    /* \"#utility.yul\":556:568   */\n  revert\n    /* \"#utility.yul\":580:682   */\ntag_28:\n    /* \"#utility.yul\":621:627   */\n  0x00\n    /* \"#utility.yul\":672:674   */\n  0x1f\n    /* \"#utility.yul\":668:675   */\n  not\n    /* \"#utility.yul\":663:665   */\n  0x1f\n    /* \"#utility.yul\":656:661   */\n  dup4\n    /* \"#utility.yul\":652:666   */\n  add\n    /* \"#utility.yul\":648:676   */\n  and\n    /* \"#utility.yul\":638:676   */\n  swap1\n  pop\n    /* \"#utility.yul\":580:682   */\n  swap2\n  swap1\n  pop\n  jump\t// out\n    /* \"#utility.yul\":688:868   */\ntag_29:\n    /* \"#utility.yul\":736:813   */\n  0x4e487b7100000000000000000000000000000000000000000000000000000000\n    /* \"#utility.yul\":733:734   */\n  0x00\n    /* \"#utility.yul\":726:814   */\n  mstore\n    /* \"#utility.yul\":833:837   */\n  0x41\n    /* \"#utility.yul\":830:831   */\n  0x04\n    /* \"#utility.yul\":823:838   */\n  mstore\n    /* \"#utility.yul\":857:861   */\n  0x24\n    /* \"#utility.yul\":854:855   */\n  0x00\n    /* \"#utility.yul\":847:862   */\n  revert\n    /* \"#utility.yul\":874:1155   */\ntag_30:\n    /* \"#utility.yul\":957:984   */\n  tag_68\n    /* \"#utility.yul\":979:983   */\n  dup3\n    /* \"#utility.yul\":957:984   */\n  tag_28\n  jump\t// in\ntag_68:\n    /* \"#utility.yul\":949:955   */\n  dup2\n    /* \"#utility.yul\":945:985   */\n  add\n    /* \"#utility.yul\":1087:1093   */\n  dup2\n    /* \"#utility.yul\":1075:1085   */\n  dup2\n    /* \"#utility.yul\":1072:1094   */\n  lt\n    /* \"#utility.yul\":1051:1069   */\n  0xffffffffffffffff\n    /* \"#utility.yul\":1039:1049   */\n  dup3\n    /* \"#utility.yul\":1036:1070   */\n  gt\n    /* \"#utility.yul\":1033:1095   */\n  or\n    /* \"#utility.yul\":1030:1118   */\n  iszero\n  tag_69\n  jumpi\n    /* \"#utility.yul\":1098:1116   */\n  tag_70\n  tag_29\n  jump\t// in\ntag_70:\n    /* \"#utility.yul\":1030:1118   */\ntag_69:\n    /* \"#utility.yul\":1138:1148   */\n  dup1\n    /* \"#utility.yul\":1134:1136   */\n  0x40\n    /* \"#utility.yul\":1127:1149   */\n  mstore\n    /* \"#utility.yul\":917:1155   */\n  pop\n    /* \"#utility.yul\":874:1155   */\n  pop\n  pop\n  jump\t// out\n    /* \"#utility.yul\":1161:1290   */\ntag_31:\n    /* \"#utility.yul\":1195:1201   */\n  0x00\n    /* \"#utility.yul\":1222:1242   */\n  tag_72\n  tag_23\n  jump\t// in\ntag_72:\n    /* \"#utility.yul\":1212:1242   */\n  swap1\n  pop\n    /* \"#utility.yul\":1251:1284   */\n  tag_73\n    /* \"#utility.yul\":1279:1283   */\n  dup3\n    /* \"#utility.yul\":1271:1277   */\n  dup3\n    /* \"#utility.yul\":1251:1284   */\n  tag_30\n  jump\t// in\ntag_73:\n    /* \"#utility.yul\":1161:1290   */\n  swap2\n  swap1\n  pop\n  jump\t// out\n    /* \"#utility.yul\":1296:1604   */\ntag_32:\n    /* \"#utility.yul\":1358:1362   */\n  0x00\n    /* \"#utility.yul\":1448:1466   */\n  0xffffffffffffffff\n    /* \"#utility.yul\":1440:1446   */\n  dup3\n    /* \"#utility.yul\":1437:1467   */\n  gt\n    /* \"#utility.yul\":1434:1490   */\n  iszero\n  tag_75\n  jumpi\n    /* \"#utility.yul\":1470:1488   */\n  tag_76\n  tag_29\n  jump\t// in\ntag_76:\n    /* \"#utility.yul\":1434:1490   */\ntag_75:\n    /* \"#utility.yul\":1508:1537   */\n  tag_77\n    /* \"#utility.yul\":1530:1536   */\n  dup3\n    /* \"#utility.yul\":1508:1537   */\n  tag_28\n  jump\t// in\ntag_77:\n    /* \"#utility.yul\":1500:1537   */\n  swap1\n  pop\n    /* \"#utility.yul\":1592:1596   */\n  0x20\n    /* \"#utility.yul\":1586:1590   */\n  dup2\n    /* \"#utility.yul\":1582:1597   */\n  add\n    /* \"#utility.yul\":1574:1597   */\n  swap1\n  pop\n    /* \"#utility.yul\":1296:1604   */\n  swap2\n  swap1\n  pop\n  jump\t// out\n    /* \"#utility.yul\":1610:1749   */\ntag_33:\n    /* \"#utility.yul\":1699:1705   */\n  dup3\n    /* \"#utility.yul\":1694:1697   */\n  dup2\n    /* \"#utility.yul\":1689:1692   */\n  dup4\n    /* \"#utility.yul\":1683:1706   */\n  mcopy\n    /* \"#utility.yul\":1740:1741   */\n  0x00\n    /* \"#utility.yul\":1731:1737   */\n  dup4\n    /* \"#utility.yul\":1726:1729   */\n  dup4\n    /* \"#utility.yul\":1722:1738   */\n  add\n    /* \"#utility.yul\":1715:1742   */\n  mstore\n    /* \"#utility.yul\":1610:1749   */\n  pop\n  pop\n  pop\n  jump\t// out\n    /* \"#utility.yul\":1755:2189   */\ntag_34:\n    /* \"#utility.yul\":1844:1849   */\n  0x00\n    /* \"#utility.yul\":1869:1935   */\n  tag_80\n    /* \"#utility.yul\":1885:1934   */\n  tag_81\n    /* \"#utility.yul\":1927:1933   */\n  dup5\n    /* \"#utility.yul\":1885:1934   */\n  tag_32\n  jump\t// in\ntag_81:\n    /* \"#utility.yul\":1869:1935   */\n  tag_31\n  jump\t// in\ntag_80:\n    /* \"#utility.yul\":1860:1935   */\n  swap1\n  pop\n    /* \"#utility.yul\":1958:1964   */\n  dup3\n    /* \"#utility.yul\":1951:1956   */\n  dup2\n    /* \"#utility.yul\":1944:1965   */\n  mstore\n    /* \"#utility.yul\":1996:2000   */\n  0x20\n    /* \"#utility.yul\":1989:1994   */\n  dup2\n    /* \"#utility.yul\":1985:2001   */\n  add\n    /* \"#utility.yul\":2034:2037   */\n  dup5\n    /* \"#utility.yul\":2025:2031   */\n  dup5\n    /* \"#utility.yul\":2020:2023   */\n  dup5\n    /* \"#utility.yul\":2016:2032   */\n  add\n    /* \"#utility.yul\":2013:2038   */\n  gt\n    /* \"#utility.yul\":2010:2122   */\n  iszero\n  tag_82\n  jumpi\n    /* \"#utility.yul\":2041:2120   */\n  tag_83\n  tag_27\n  jump\t// in\ntag_83:\n    /* \"#utility.yul\":2010:2122   */\ntag_82:\n    /* \"#utility.yul\":2131:2183   */\n  tag_84\n    /* \"#utility.yul\":2176:2182   */\n  dup5\n    /* \"#utility.yul\":2171:2174   */\n  dup3\n    /* \"#utility.yul\":2166:2169   */\n  dup6\n    /* \"#utility.yul\":2131:2183   */\n  tag_33\n  jump\t// in\ntag_84:\n    /* \"#utility.yul\":1850:2189   */\n  pop\n    /* \"#utility.yul\":1755:2189   */\n  swap4\n  swap3\n  pop\n  pop\n  pop\n  jump\t// out\n    /* \"#utility.yul\":2209:2564   */\ntag_35:\n    /* \"#utility.yul\":2276:2281   */\n  0x00\n    /* \"#utility.yul\":2325:2328   */\n  dup3\n    /* \"#utility.yul\":2318:2322   */\n  0x1f\n    /* \"#utility.yul\":2310:2316   */\n  dup4\n    /* \"#utility.yul\":2306:2323   */\n  add\n    /* \"#utility.yul\":2302:2329   */\n  slt\n    /* \"#utility.yul\":2292:2414   */\n  tag_86\n  jumpi\n    /* \"#utility.yul\":2333:2412   */\n  tag_87\n  tag_26\n  jump\t// in\ntag_87:\n    /* \"#utility.yul\":2292:2414   */\ntag_86:\n    /* \"#utility.yul\":2443:2449   */\n  dup2\n    /* \"#utility.yul\":2437:2450   */\n  mload\n    /* \"#utility.yul\":2468:2558   */\n  tag_88\n    /* \"#utility.yul\":2554:2557   */\n  dup5\n    /* \"#utility.yul\":2546:2552   */\n  dup3\n    /* \"#utility.yul\":2539:2543   */\n  0x20\n    /* \"#utility.yul\":2531:2537   */\n  dup7\n    /* \"#utility.yul\":2527:2544   */\n  add\n    /* \"#utility.yul\":2468:2558   */\n  tag_34\n  jump\t// in\ntag_88:\n    /* \"#utility.yul\":2459:2558   */\n  swap2\n  pop\n    /* \"#utility.yul\":2282:2564   */\n  pop\n    /* \"#utility.yul\":2209:2564   */\n  swap3\n  swap2\n  pop\n  pop\n  jump\t// out\n    /* \"#utility.yul\":2570:2696   */\ntag_36:\n    /* \"#utility.yul\":2607:2614   */\n  0x00\n    /* \"#utility.yul\":2647:2689   */\n  0xffffffffffffffffffffffffffffffffffffffff\n    /* \"#utility.yul\":2640:2645   */\n  dup3\n    /* \"#utility.yul\":2636:2690   */\n  and\n    /* \"#utility.yul\":2625:2690   */\n  swap1\n  pop\n    /* \"#utility.yul\":2570:2696   */\n  swap2\n  swap1\n  pop\n  jump\t// out\n    /* \"#utility.yul\":2702:2798   */\ntag_37:\n    /* \"#utility.yul\":2739:2746   */\n  0x00\n    /* \"#utility.yul\":2768:2792   */\n  tag_91\n    /* \"#utility.yul\":2786:2791   */\n  dup3\n    /* \"#utility.yul\":2768:2792   */\n  tag_36\n  jump\t// in\ntag_91:\n    /* \"#utility.yul\":2757:2792   */\n  swap1\n  pop\n    /* \"#utility.yul\":2702:2798   */\n  swap2\n  swap1\n  pop\n  jump\t// out\n    /* \"#utility.yul\":2804:2926   */\ntag_38:\n    /* \"#utility.yul\":2877:2901   */\n  tag_93\n    /* \"#utility.yul\":2895:2900   */\n  dup2\n    /* \"#utility.yul\":2877:2901   */\n  tag_37\n  jump\t// in\ntag_93:\n    /* \"#utility.yul\":2870:2875   */\n  dup2\n    /* \"#utility.yul\":2867:2902   */\n  eq\n    /* \"#utility.yul\":2857:2920   */\n  tag_94\n  jumpi\n    /* \"#utility.yul\":2916:2917   */\n  0x00\n    /* \"#utility.yul\":2913:2914   */\n  0x00\n    /* \"#utility.yul\":2906:2918   */\n  revert\n    /* \"#utility.yul\":2857:2920   */\ntag_94:\n    /* \"#utility.yul\":2804:2926   */\n  pop\n  jump\t// out\n    /* \"#utility.yul\":2932:3075   */\ntag_39:\n    /* \"#utility.yul\":2989:2994   */\n  0x00\n    /* \"#utility.yul\":3020:3026   */\n  dup2\n    /* \"#utility.yul\":3014:3027   */\n  mload\n    /* \"#utility.yul\":3005:3027   */\n  swap1\n  pop\n    /* \"#utility.yul\":3036:3069   */\n  tag_96\n    /* \"#utility.yul\":3063:3068   */\n  dup2\n    /* \"#utility.yul\":3036:3069   */\n  tag_38\n  jump\t// in\ntag_96:\n    /* \"#utility.yul\":2932:3075   */\n  swap3\n  swap2\n  pop\n  pop\n  jump\t// out\n    /* \"#utility.yul\":3081:4090   */\ntag_3:\n    /* \"#utility.yul\":3189:3195   */\n  0x00\n    /* \"#utility.yul\":3197:3203   */\n  0x00\n    /* \"#utility.yul\":3205:3211   */\n  0x00\n    /* \"#utility.yul\":3254:3256   */\n  0x60\n    /* \"#utility.yul\":3242:3251   */\n  dup5\n    /* \"#utility.yul\":3233:3240   */\n  dup7\n    /* \"#utility.yul\":3229:3252   */\n  sub\n    /* \"#utility.yul\":3225:3257   */\n  slt\n    /* \"#utility.yul\":3222:3341   */\n  iszero\n  tag_98\n  jumpi\n    /* \"#utility.yul\":3260:3339   */\n  tag_99\n  tag_24\n  jump\t// in\ntag_99:\n    /* \"#utility.yul\":3222:3341   */\ntag_98:\n    /* \"#utility.yul\":3401:3402   */\n  0x00\n    /* \"#utility.yul\":3390:3399   */\n  dup5\n    /* \"#utility.yul\":3386:3403   */\n  add\n    /* \"#utility.yul\":3380:3404   */\n  mload\n    /* \"#utility.yul\":3431:3449   */\n  0xffffffffffffffff\n    /* \"#utility.yul\":3423:3429   */\n  dup2\n    /* \"#utility.yul\":3420:3450   */\n  gt\n    /* \"#utility.yul\":3417:3534   */\n  iszero\n  tag_100\n  jumpi\n    /* \"#utility.yul\":3453:3532   */\n  tag_101\n  tag_25\n  jump\t// in\ntag_101:\n    /* \"#utility.yul\":3417:3534   */\ntag_100:\n    /* \"#utility.yul\":3558:3632   */\n  tag_102\n    /* \"#utility.yul\":3624:3631   */\n  dup7\n    /* \"#utility.yul\":3615:3621   */\n  dup3\n    /* \"#utility.yul\":3604:3613   */\n  dup8\n    /* \"#utility.yul\":3600:3622   */\n  add\n    /* \"#utility.yul\":3558:3632   */\n  tag_35\n  jump\t// in\ntag_102:\n    /* \"#utility.yul\":3548:3632   */\n  swap4\n  pop\n    /* \"#utility.yul\":3351:3642   */\n  pop\n    /* \"#utility.yul\":3702:3704   */\n  0x20\n    /* \"#utility.yul\":3691:3700   */\n  dup5\n    /* \"#utility.yul\":3687:3705   */\n  add\n    /* \"#utility.yul\":3681:3706   */\n  mload\n    /* \"#utility.yul\":3733:3751   */\n  0xffffffffffffffff\n    /* \"#utility.yul\":3725:3731   */\n  dup2\n    /* \"#utility.yul\":3722:3752   */\n  gt\n    /* \"#utility.yul\":3719:3836   */\n  iszero\n  tag_103\n  jumpi\n    /* \"#utility.yul\":3755:3834   */\n  tag_104\n  tag_25\n  jump\t// in\ntag_104:\n    /* \"#utility.yul\":3719:3836   */\ntag_103:\n    /* \"#utility.yul\":3860:3934   */\n  tag_105\n    /* \"#utility.yul\":3926:3933   */\n  dup7\n    /* \"#utility.yul\":3917:3923   */\n  dup3\n    /* \"#utility.yul\":3906:3915   */\n  dup8\n    /* \"#utility.yul\":3902:3924   */\n  add\n    /* \"#utility.yul\":3860:3934   */\n  tag_35\n  jump\t// in\ntag_105:\n    /* \"#utility.yul\":3850:3934   */\n  swap3\n  pop\n    /* \"#utility.yul\":3652:3944   */\n  pop\n    /* \"#utility.yul\":3983:3985   */\n  0x40\n    /* \"#utility.yul\":4009:4073   */\n  tag_106\n    /* \"#utility.yul\":4065:4072   */\n  dup7\n    /* \"#utility.yul\":4056:4062   */\n  dup3\n    /* \"#utility.yul\":4045:4054   */\n  dup8\n    /* \"#utility.yul\":4041:4063   */\n  add\n    /* \"#utility.yul\":4009:4073   */\n  tag_39\n  jump\t// in\ntag_106:\n    /* \"#utility.yul\":3999:4073   */\n  swap2\n  pop\n    /* \"#utility.yul\":3954:4083   */\n  pop\n    /* \"#utility.yul\":3081:4090   */\n  swap3\n  pop\n  swap3\n  pop\n  swap3\n  jump\t// out\n    /* \"#utility.yul\":4096:4195   */\ntag_40:\n    /* \"#utility.yul\":4148:4154   */\n  0x00\n    /* \"#utility.yul\":4182:4187   */\n  dup2\n    /* \"#utility.yul\":4176:4188   */\n  mload\n    /* \"#utility.yul\":4166:4188   */\n  swap1\n  pop\n    /* \"#utility.yul\":4096:4195   */\n  swap2\n  swap1\n  pop\n  jump\t// out\n    /* \"#utility.yul\":4201:4381   */\ntag_41:\n    /* \"#utility.yul\":4249:4326   */\n  0x4e487b7100000000000000000000000000000000000000000000000000000000\n    /* \"#utility.yul\":4246:4247   */\n  0x00\n    /* \"#utility.yul\":4239:4327   */\n  mstore\n    /* \"#utility.yul\":4346:4350   */\n  0x22\n    /* \"#utility.yul\":4343:4344   */\n  0x04\n    /* \"#utility.yul\":4336:4351   */\n  mstore\n    /* \"#utility.yul\":4370:4374   */\n  0x24\n    /* \"#utility.yul\":4367:4368   */\n  0x00\n    /* \"#utility.yul\":4360:4375   */\n  revert\n    /* \"#utility.yul\":4387:4707   */\ntag_42:\n    /* \"#utility.yul\":4431:4437   */\n  0x00\n    /* \"#utility.yul\":4468:4469   */\n  0x02\n    /* \"#utility.yul\":4462:4466   */\n  dup3\n    /* \"#utility.yul\":4458:4470   */\n  div\n    /* \"#utility.yul\":4448:4470   */\n  swap1\n  pop\n    /* \"#utility.yul\":4515:4516   */\n  0x01\n    /* \"#utility.yul\":4509:4513   */\n  dup3\n    /* \"#utility.yul\":4505:4517   */\n  and\n    /* \"#utility.yul\":4536:4554   */\n  dup1\n    /* \"#utility.yul\":4526:4607   */\n  tag_110\n  jumpi\n    /* \"#utility.yul\":4592:4596   */\n  0x7f\n    /* \"#utility.yul\":4584:4590   */\n  dup3\n    /* \"#utility.yul\":4580:4597   */\n  and\n    /* \"#utility.yul\":4570:4597   */\n  swap2\n  pop\n    /* \"#utility.yul\":4526:4607   */\ntag_110:\n    /* \"#utility.yul\":4654:4656   */\n  0x20\n    /* \"#utility.yul\":4646:4652   */\n  dup3\n    /* \"#utility.yul\":4643:4657   */\n  lt\n    /* \"#utility.yul\":4623:4641   */\n  dup2\n    /* \"#utility.yul\":4620:4658   */\n  sub\n    /* \"#utility.yul\":4617:4701   */\n  tag_111\n  jumpi\n    /* \"#utility.yul\":4673:4691   */\n  tag_112\n  tag_41\n  jump\t// in\ntag_112:\n    /* \"#utility.yul\":4617:4701   */\ntag_111:\n    /* \"#utility.yul\":4438:4707   */\n  pop\n    /* \"#utility.yul\":4387:4707   */\n  swap2\n  swap1\n  pop\n  jump\t// out\n    /* \"#utility.yul\":4713:4854   */\ntag_43:\n    /* \"#utility.yul\":4762:4766   */\n  0x00\n    /* \"#utility.yul\":4785:4788   */\n  dup2\n    /* \"#utility.yul\":4777:4788   */\n  swap1\n  pop\n    /* \"#utility.yul\":4808:4811   */\n  dup2\n    /* \"#utility.yul\":4805:4806   */\n  0x00\n    /* \"#utility.yul\":4798:4812   */\n  mstore\n    /* \"#utility.yul\":4842:4846   */\n  0x20\n    /* \"#utility.yul\":4839:4840   */\n  0x00\n    /* \"#utility.yul\":4829:4847   */\n  keccak256\n    /* \"#utility.yul\":4821:4847   */\n  swap1\n  pop\n    /* \"#utility.yul\":4713:4854   */\n  swap2\n  swap1\n  pop\n  jump\t// out\n    /* \"#utility.yul\":4860:4953   */\ntag_44:\n    /* \"#utility.yul\":4897:4903   */\n  0x00\n    /* \"#utility.yul\":4944:4946   */\n  0x20\n    /* \"#utility.yul\":4939:4941   */\n  0x1f\n    /* \"#utility.yul\":4932:4937   */\n  dup4\n    /* \"#utility.yul\":4928:4942   */\n  add\n    /* \"#utility.yul\":4924:4947   */\n  div\n    /* \"#utility.yul\":4914:4947   */\n  swap1\n  pop\n    /* \"#utility.yul\":4860:4953   */\n  swap2\n  swap1\n  pop\n  jump\t// out\n    /* \"#utility.yul\":4959:5066   */\ntag_45:\n    /* \"#utility.yul\":5003:5011   */\n  0x00\n    /* \"#utility.yul\":5053:5058   */\n  dup3\n    /* \"#utility.yul\":5047:5051   */\n  dup3\n    /* \"#utility.yul\":5043:5059   */\n  shl\n    /* \"#utility.yul\":5022:5059   */\n  swap1\n  pop\n    /* \"#utility.yul\":4959:5066   */\n  swap3\n  swap2\n  pop\n  pop\n  jump\t// out\n    /* \"#utility.yul\":5072:5465   */\ntag_46:\n    /* \"#utility.yul\":5141:5147   */\n  0x00\n    /* \"#utility.yul\":5191:5192   */\n  0x08\n    /* \"#utility.yul\":5179:5189   */\n  dup4\n    /* \"#utility.yul\":5175:5193   */\n  mul\n    /* \"#utility.yul\":5214:5311   */\n  tag_117\n    /* \"#utility.yul\":5244:5310   */\n  0xffffffffffffffffffffffffffffffffffffffffffffffffffffffffffffffff\n    /* \"#utility.yul\":5233:5242   */\n  dup3\n    /* \"#utility.yul\":5214:5311   */\n  tag_45\n  jump\t// in\ntag_117:\n    /* \"#utility.yul\":5332:5371   */\n  tag_118\n    /* \"#utility.yul\":5362:5370   */\n  dup7\n    /* \"#utility.yul\":5351:5360   */\n  dup4\n    /* \"#utility.yul\":5332:5371   */\n  tag_45\n  jump\t// in\ntag_118:\n    /* \"#utility.yul\":5320:5371   */\n  swap6\n  pop\n    /* \"#utility.yul\":5404:5408   */\n  dup1\n    /* \"#utility.yul\":5400:5409   */\n  not\n    /* \"#utility.yul\":5393:5398   */\n  dup5\n    /* \"#utility.yul\":5389:5410   */\n  and\n    /* \"#utility.yul\":5380:5410   */\n  swap4\n  pop\n    /* \"#utility.yul\":5453:5457   */\n  dup1\n    /* \"#utility.yul\":5443:5451   */\n  dup7\n    /* \"#utility.yul\":5439:5458   */\n  and\n    /* \"#utility.yul\":5432:5437   */\n  dup5\n    /* \"#utility.yul\":5429:5459   */\n  or\n    /* \"#utility.yul\":5419:5459   */\n  swap3\n  pop\n    /* \"#utility.yul\":5148:5465   */\n  pop\n  pop\n    /* \"#utility.yul\":5072:5465   */\n  swap4\n  swap3\n  pop\n  pop\n  pop\n  jump\t// out\n    /* \"#utility.yul\":5471:5548   */\ntag_47:\n    /* \"#utility.yul\":5508:5515   */\n  0x00\n    /* \"#utility.yul\":5537:5542   */\n  dup2\n    /* \"#utility.yul\":5526:5542   */\n  swap1\n  pop\n    /* \"#utility.yul\":5471:5548   */\n  swap2\n  swap1\n  pop\n  jump\t// out\n    /* \"#utility.yul\":5554:5614   */\ntag_48:\n    /* \"#utility.yul\":5582:5585   */\n  0x00\n    /* \"#utility.yul\":5603:5608   */\n  dup2\n    /* \"#utility.yul\":5596:5608   */\n  swap1\n  pop\n    /* \"#utility.yul\":5554:5614   */\n  swap2\n  swap1\n  pop\n  jump\t// out\n    /* \"#utility.yul\":5620:5762   */\ntag_49:\n    /* \"#utility.yul\":5670:5679   */\n  0x00\n    /* \"#utility.yul\":5703:5756   */\n  tag_122\n    /* \"#utility.yul\":5721:5755   */\n  tag_123\n    /* \"#utility.yul\":5730:5754   */\n  tag_124\n    /* \"#utility.yul\":5748:5753   */\n  dup5\n    /* \"#utility.yul\":5730:5754   */\n  tag_47\n  jump\t// in\ntag_124:\n    /* \"#utility.yul\":5721:5755   */\n  tag_48\n  jump\t// in\ntag_123:\n    /* \"#utility.yul\":5703:5756   */\n  tag_47\n  jump\t// in\ntag_122:\n    /* \"#utility.yul\":5690:5756   */\n  swap1\n  pop\n    /* \"#utility.yul\":5620:5762   */\n  swap2\n  swap1\n  pop\n  jump\t// out\n    /* \"#utility.yul\":5768:5843   */\ntag_50:\n    /* \"#utility.yul\":5811:5814   */\n  0x00\n    /* \"#utility.yul\":5832:5837   */\n  dup2\n    /* \"#utility.yul\":5825:5837   */\n  swap1\n  pop\n    /* \"#utility.yul\":5768:5843   */\n  swap2\n  swap1\n  pop\n  jump\t// out\n    /* \"#utility.yul\":5849:6118   */\ntag_51:\n    /* \"#utility.yul\":5959:5998   */\n  tag_127\n    /* \"#utility.yul\":5990:5997   */\n  dup4\n    /* \"#utility.yul\":5959:5998   */\n  tag_49\n  jump\t// in\ntag_127:\n    /* \"#utility.yul\":6020:6111   */\n  tag_128\n    /* \"#utility.yul\":6069:6110   */\n  tag_129\n    /* \"#utility.yul\":6093:6109   */\n  dup3\n    /* \"#utility.yul\":6069:6110   */\n  tag_50\n  jump\t// in\ntag_129:\n    /* \"#utility.yul\":6061:6067   */\n  dup5\n    /* \"#utility.yul\":6054:6058   */\n  dup5\n    /* \"#utility.yul\":6048:6059   */\n  sload\n    /* \"#utility.yul\":6020:6111   */\n  tag_46\n  jump\t// in\ntag_128:\n    /* \"#utility.yul\":6014:6018   */\n  dup3\n    /* \"#utility.yul\":6007:6112   */\n  sstore\n    /* \"#utility.yul\":5925:6118   */\n  pop\n    /* \"#utility.yul\":5849:6118   */\n  pop\n  pop\n  pop\n  jump\t// out\n    /* \"#utility.yul\":6124:6197   */\ntag_52:\n    /* \"#utility.yul\":6169:6172   */\n  0x00\n    /* \"#utility.yul\":6190:6191   */\n  0x00\n    /* \"#utility.yul\":6183:6191   */\n  swap1\n  pop\n    /* \"#utility.yul\":6124:6197   */\n  swap1\n  jump\t// out\n    /* \"#utility.yul\":6203:6392   */\ntag_53:\n    /* \"#utility.yul\":6280:6312   */\n  tag_132\n  tag_52\n  jump\t// in\ntag_132:\n    /* \"#utility.yul\":6321:6386   */\n  tag_133\n    /* \"#utility.yul\":6379:6385   */\n  dup2\n    /* \"#utility.yul\":6371:6377   */\n  dup5\n    /* \"#utility.yul\":6365:6369   */\n  dup5\n    /* \"#utility.yul\":6321:6386   */\n  tag_51\n  jump\t// in\ntag_133:\n    /* \"#utility.yul\":6256:6392   */\n  pop\n    /* \"#utility.yul\":6203:6392   */\n  pop\n  pop\n  jump\t// out\n    /* \"#utility.yul\":6398:6584   */\ntag_54:\n    /* \"#utility.yul\":6458:6578   */\ntag_135:\n    /* \"#utility.yul\":6475:6478   */\n  dup2\n    /* \"#utility.yul\":6468:6473   */\n  dup2\n    /* \"#utility.yul\":6465:6479   */\n  lt\n    /* \"#utility.yul\":6458:6578   */\n  iszero\n  tag_137\n  jumpi\n    /* \"#utility.yul\":6529:6568   */\n  tag_138\n    /* \"#utility.yul\":6566:6567   */\n  0x00\n    /* \"#utility.yul\":6559:6564   */\n  dup3\n    /* \"#utility.yul\":6529:6568   */\n  tag_53\n  jump\t// in\ntag_138:\n    /* \"#utility.yul\":6502:6503   */\n  0x01\n    /* \"#utility.yul\":6495:6500   */\n  dup2\n    /* \"#utility.yul\":6491:6504   */\n  add\n    /* \"#utility.yul\":6482:6504   */\n  swap1\n  pop\n    /* \"#utility.yul\":6458:6578   */\n  jump(tag_135)\ntag_137:\n    /* \"#utility.yul\":6398:6584   */\n  pop\n  pop\n  jump\t// out\n    /* \"#utility.yul\":6590:7133   */\ntag_55:\n    /* \"#utility.yul\":6691:6693   */\n  0x1f\n    /* \"#utility.yul\":6686:6689   */\n  dup3\n    /* \"#utility.yul\":6683:6694   */\n  gt\n    /* \"#utility.yul\":6680:7126   */\n  iszero\n  tag_140\n  jumpi\n    /* \"#utility.yul\":6725:6763   */\n  tag_141\n    /* \"#utility.yul\":6757:6762   */\n  dup2\n    /* \"#utility.yul\":6725:6763   */\n  tag_43\n  jump\t// in\ntag_141:\n    /* \"#utility.yul\":6809:6838   */\n  tag_142\n    /* \"#utility.yul\":6827:6837   */\n  dup5\n    /* \"#utility.yul\":6809:6838   */\n  tag_44\n  jump\t// in\ntag_142:\n    /* \"#utility.yul\":6799:6807   */\n  dup2\n    /* \"#utility.yul\":6795:6839   */\n  add\n    /* \"#utility.yul\":6992:6994   */\n  0x20\n    /* \"#utility.yul\":6980:6990   */\n  dup6\n    /* \"#utility.yul\":6977:6995   */\n  lt\n    /* \"#utility.yul\":6974:7023   */\n  iszero\n  tag_143\n  jumpi\n    /* \"#utility.yul\":7013:7021   */\n  dup2\n    /* \"#utility.yul\":6998:7021   */\n  swap1\n  pop\n    /* \"#utility.yul\":6974:7023   */\ntag_143:\n    /* \"#utility.yul\":7036:7116   */\n  tag_144\n    /* \"#utility.yul\":7092:7114   */\n  tag_145\n    /* \"#utility.yul\":7110:7113   */\n  dup6\n    /* \"#utility.yul\":7092:7114   */\n  tag_44\n  jump\t// in\ntag_145:\n    /* \"#utility.yul\":7082:7090   */\n  dup4\n    /* \"#utility.yul\":7078:7115   */\n  add\n    /* \"#utility.yul\":7065:7076   */\n  dup3\n    /* \"#utility.yul\":7036:7116   */\n  tag_54\n  jump\t// in\ntag_144:\n    /* \"#utility.yul\":6695:7126   */\n  pop\n  pop\n    /* \"#utility.yul\":6680:7126   */\ntag_140:\n    /* \"#utility.yul\":6590:7133   */\n  pop\n  pop\n  pop\n  jump\t// out\n    /* \"#utility.yul\":7139:7256   */\ntag_56:\n    /* \"#utility.yul\":7193:7201   */\n  0x00\n    /* \"#utility.yul\":7243:7248   */\n  dup3\n    /* \"#utility.yul\":7237:7241   */\n  dup3\n    /* \"#utility.yul\":7233:7249   */\n  shr\n    /* \"#utility.yul\":7212:7249   */\n  swap1\n  pop\n    /* \"#utility.yul\":7139:7256   */\n  swap3\n  swap2\n  pop\n  pop\n  jump\t// out\n    /* \"#utility.yul\":7262:7431   */\ntag_57:\n    /* \"#utility.yul\":7306:7312   */\n  0x00\n    /* \"#utility.yul\":7339:7390   */\n  tag_148\n    /* \"#utility.yul\":7387:7388   */\n  0x00\n    /* \"#utility.yul\":7383:7389   */\n  not\n    /* \"#utility.yul\":7375:7380   */\n  dup5\n    /* \"#utility.yul\":7372:7373   */\n  0x08\n    /* \"#utility.yul\":7368:7381   */\n  mul\n    /* \"#utility.yul\":7339:7390   */\n  tag_56\n  jump\t// in\ntag_148:\n    /* \"#utility.yul\":7335:7391   */\n  not\n    /* \"#utility.yul\":7420:7424   */\n  dup1\n    /* \"#utility.yul\":7414:7418   */\n  dup4\n    /* \"#utility.yul\":7410:7425   */\n  and\n    /* \"#utility.yul\":7400:7425   */\n  swap2\n  pop\n    /* \"#utility.yul\":7313:7431   */\n  pop\n    /* \"#utility.yul\":7262:7431   */\n  swap3\n  swap2\n  pop\n  pop\n  jump\t// out\n    /* \"#utility.yul\":7436:7731   */\ntag_58:\n    /* \"#utility.yul\":7512:7516   */\n  0x00\n    /* \"#utility.yul\":7658:7687   */\n  tag_150\n    /* \"#utility.yul\":7683:7686   */\n  dup4\n    /* \"#utility.yul\":7677:7681   */\n  dup4\n    /* \"#utility.yul\":7658:7687   */\n  tag_57\n  jump\t// in\ntag_150:\n    /* \"#utility.yul\":7650:7687   */\n  swap2\n  pop\n    /* \"#utility.yul\":7720:7723   */\n  dup3\n    /* \"#utility.yul\":7717:7718   */\n  0x02\n    /* \"#utility.yul\":7713:7724   */\n  mul\n    /* \"#utility.yul\":7707:7711   */\n  dup3\n    /* \"#utility.yul\":7704:7725   */\n  or\n    /* \"#utility.yul\":7696:7725   */\n  swap1\n  pop\n    /* \"#utility.yul\":7436:7731   */\n  swap3\n  swap2\n  pop\n  pop\n  jump\t// out\n    /* \"#utility.yul\":7736:9131   */\ntag_8:\n    /* \"#utility.yul\":7853:7890   */\n  tag_152\n    /* \"#utility.yul\":7886:7889   */\n  dup3\n    /* \"#utility.yul\":7853:7890   */\n  tag_40\n  jump\t// in\ntag_152:\n    /* \"#utility.yul\":7955:7973   */\n  0xffffffffffffffff\n    /* \"#utility.yul\":7947:7953   */\n  dup2\n    /* \"#utility.yul\":7944:7974   */\n  gt\n    /* \"#utility.yul\":7941:7997   */\n  iszero\n  tag_153\n  jumpi\n    /* \"#utility.yul\":7977:7995   */\n  tag_154\n  tag_29\n  jump\t// in\ntag_154:\n    /* \"#utility.yul\":7941:7997   */\ntag_153:\n    /* \"#utility.yul\":8021:8059   */\n  tag_155\n    /* \"#utility.yul\":8053:8057   */\n  dup3\n    /* \"#utility.yul\":8047:8058   */\n  sload\n    /* \"#utility.yul\":8021:8059   */\n  tag_42\n  jump\t// in\ntag_155:\n    /* \"#utility.yul\":8106:8173   */\n  tag_156\n    /* \"#utility.yul\":8166:8172   */\n  dup3\n    /* \"#utility.yul\":8158:8164   */\n  dup3\n    /* \"#utility.yul\":8152:8156   */\n  dup6\n    /* \"#utility.yul\":8106:8173   */\n  tag_55\n  jump\t// in\ntag_156:\n    /* \"#utility.yul\":8200:8201   */\n  0x00\n    /* \"#utility.yul\":8224:8228   */\n  0x20\n    /* \"#utility.yul\":8211:8228   */\n  swap1\n  pop\n    /* \"#utility.yul\":8256:8258   */\n  0x1f\n    /* \"#utility.yul\":8248:8254   */\n  dup4\n    /* \"#utility.yul\":8245:8259   */\n  gt\n    /* \"#utility.yul\":8273:8274   */\n  0x01\n    /* \"#utility.yul\":8268:8886   */\n  dup2\n  eq\n  tag_158\n  jumpi\n    /* \"#utility.yul\":8930:8931   */\n  0x00\n    /* \"#utility.yul\":8947:8953   */\n  dup5\n    /* \"#utility.yul\":8944:9021   */\n  iszero\n  tag_159\n  jumpi\n    /* \"#utility.yul\":8996:9005   */\n  dup3\n    /* \"#utility.yul\":8991:8994   */\n  dup8\n    /* \"#utility.yul\":8987:9006   */\n  add\n    /* \"#utility.yul\":8981:9007   */\n  mload\n    /* \"#utility.yul\":8972:9007   */\n  swap1\n  pop\n    /* \"#utility.yul\":8944:9021   */\ntag_159:\n    /* \"#utility.yul\":9047:9114   */\n  tag_160\n    /* \"#utility.yul\":9107:9113   */\n  dup6\n    /* \"#utility.yul\":9100:9105   */\n  dup3\n    /* \"#utility.yul\":9047:9114   */\n  tag_58\n  jump\t// in\ntag_160:\n    /* \"#utility.yul\":9041:9045   */\n  dup7\n    /* \"#utility.yul\":9034:9115   */\n  sstore\n    /* \"#utility.yul\":8903:9125   */\n  pop\n    /* \"#utility.yul\":8238:9125   */\n  jump(tag_157)\n    /* \"#utility.yul\":8268:8886   */\ntag_158:\n    /* \"#utility.yul\":8320:8324   */\n  0x1f\n    /* \"#utility.yul\":8316:8325   */\n  not\n    /* \"#utility.yul\":8308:8314   */\n  dup5\n    /* \"#utility.yul\":8304:8326   */\n  and\n    /* \"#utility.yul\":8354:8391   */\n  tag_161\n    /* \"#utility.yul\":8386:8390   */\n  dup7\n    /* \"#utility.yul\":8354:8391   */\n  tag_43\n  jump\t// in\ntag_161:\n    /* \"#utility.yul\":8413:8414   */\n  0x00\n    /* \"#utility.yul\":8427:8635   */\ntag_162:\n    /* \"#utility.yul\":8441:8448   */\n  dup3\n    /* \"#utility.yul\":8438:8439   */\n  dup2\n    /* \"#utility.yul\":8435:8449   */\n  lt\n    /* \"#utility.yul\":8427:8635   */\n  iszero\n  tag_164\n  jumpi\n    /* \"#utility.yul\":8520:8529   */\n  dup5\n    /* \"#utility.yul\":8515:8518   */\n  dup10\n    /* \"#utility.yul\":8511:8530   */\n  add\n    /* \"#utility.yul\":8505:8531   */\n  mload\n    /* \"#utility.yul\":8497:8503   */\n  dup3\n    /* \"#utility.yul\":8490:8532   */\n  sstore\n    /* \"#utility.yul\":8571:8572   */\n  0x01\n    /* \"#utility.yul\":8563:8569   */\n  dup3\n    /* \"#utility.yul\":8559:8573   */\n  add\n    /* \"#utility.yul\":8549:8573   */\n  swap2\n  pop\n    /* \"#utility.yul\":8618:8620   */\n  0x20\n    /* \"#utility.yul\":8607:8616   */\n  dup6\n    /* \"#utility.yul\":8603:8621   */\n  add\n    /* \"#utility.yul\":8590:8621   */\n  swap5\n  pop\n    /* \"#utility.yul\":8464:8468   */\n  0x20\n    /* \"#utility.yul\":8461:8462   */\n  dup2\n    /* \"#utility.yul\":8457:8469   */\n  add\n    /* \"#utility.yul\":8452:8469   */\n  swap1\n  pop\n    /* \"#utility.yul\":8427:8635   */\n  jump(tag_162)\ntag_164:\n    /* \"#utility.yul\":8663:8669   */\n  dup7\n    /* \"#utility.yul\":8654:8661   */\n  dup4\n    /* \"#utility.yul\":8651:8670   */\n  lt\n    /* \"#utility.yul\":8648:8827   */\n  iszero\n  tag_165\n  jumpi\n    /* \"#utility.yul\":8721:8730   */\n  dup5\n    /* \"#utility.yul\":8716:8719   */\n  dup10\n    /* \"#utility.yul\":8712:8731   */\n  add\n    /* \"#utility.yul\":8706:8732   */\n  mload\n    /* \"#utility.yul\":8764:8812   */\n  tag_166\n    /* \"#utility.yul\":8806:8810   */\n  0x1f\n    /* \"#utility.yul\":8798:8804   */\n  dup10\n    /* \"#utility.yul\":8794:8811   */\n  and\n    /* \"#utility.yul\":8783:8792   */\n  dup3\n    /* \"#utility.yul\":8764:8812   */\n  tag_57\n  jump\t// in\ntag_166:\n    /* \"#utility.yul\":8756:8762   */\n  dup4\n    /* \"#utility.yul\":8749:8813   */\n  sstore\n    /* \"#utility.yul\":8671:8827   */\n  pop\n    /* \"#utility.yul\":8648:8827   */\ntag_165:\n    /* \"#utility.yul\":8873:8874   */\n  0x01\n    /* \"#utility.yul\":8869:8870   */\n  0x02\n    /* \"#utility.yul\":8861:8867   */\n  dup9\n    /* \"#utility.yul\":8857:8871   */\n  mul\n    /* \"#utility.yul\":8853:8875   */\n  add\n    /* \"#utility.yul\":8847:8851   */\n  dup9\n    /* \"#utility.yul\":8840:8876   */\n  sstore\n    /* \"#utility.yul\":8275:8886   */\n  pop\n  pop\n  pop\n    /* \"#utility.yul\":8238:9125   */\ntag_157:\n  pop\n    /* \"#utility.yul\":7828:9131   */\n  pop\n  pop\n  pop\n    /* \"#utility.yul\":7736:9131   */\n  pop\n  pop\n  jump\t// out\n    /* \"src/InvestmentPoolToken.sol\":387:922  contract InvestmentPoolToken is ERC20, AccessControl {... */\ntag_13:\n  dataSize(sub_0)\n  dup1\n  dataOffset(sub_0)\n  0x00\n  codecopy\n  0x00\n  return\nstop\n\nsub_0: assembly {\n        /* \"src/InvestmentPoolToken.sol\":387:922  contract InvestmentPoolToken is ERC20, AccessControl {... */\n      mstore(0x40, 0x80)\n      callvalue\n      dup1\n      iszero\n      tag_1\n      jumpi\n      revert(0x00, 0x00)\n    tag_1:\n      pop\n      jumpi(tag_2, lt(calldatasize, 0x04))\n      shr(0xe0, calldataload(0x00))\n      dup1\n      0x40c10f19\n      gt\n      tag_22\n      jumpi\n      dup1\n      0x9dc29fac\n      gt\n      tag_23\n      jumpi\n      dup1\n      0x9dc29fac\n      eq\n      tag_17\n      jumpi\n      dup1\n      0xa217fddf\n      eq\n      tag_18\n      jumpi\n      dup1\n      0xa9059cbb\n      eq\n      tag_19\n      jumpi\n      dup1\n      0xd547741f\n      eq\n      tag_20\n      jumpi\n      dup1\n      0xdd62ed3e\n      eq\n      tag_21\n      jumpi\n      jump(tag_2)\n    tag_23:\n      dup1\n      0x40c10f19\n      eq\n      tag_12\n      jumpi\n      dup1\n      0x70a08231\n      eq\n      tag_13\n      jumpi\n      dup1\n      0x72c32860\n      eq\n      tag_14\n      jumpi\n      dup1\n      0x91d14854\n      eq\n      tag_15\n      jumpi\n      dup1\n      0x95d89b41\n      eq\n      tag_16\n      jumpi\n      jump(tag_2)\n    tag_22:\n      dup1\n      0x23b872dd\n      gt\n      tag_24\n      jumpi\n      dup1\n      0x23b872dd\n      eq\n      tag_7\n      jumpi\n      dup1\n      0x248a9ca3\n      eq\n      tag_8\n      jumpi\n      dup1\n      0x2f2ff15d\n      eq\n      tag_9\n      jumpi\n      dup1\n      0x313ce567\n      eq\n      tag_10\n      jumpi\n      dup1\n      0x36568abe\n      eq\n      tag_11\n      jumpi\n      jump(tag_2)\n    tag_24:\n      dup1\n      0x01ffc9a7\n      eq\n      tag_3\n      jumpi\n      dup1\n      0x06fdde03\n      eq\n      tag_4\n      jumpi\n      dup1\n      0x095ea7b3\n      eq\n      tag_5\n      jumpi\n      dup1\n      0x18160ddd\n      eq\n      tag_6\n      jumpi\n    tag_2:\n      revert(0x00, 0x00)\n        /* \"lib/openzeppelin-contracts/contracts/access/AccessControl.sol\":2565:2767  function supportsInterface(bytes4 interfaceId) public view virtual override returns (bool) {... */\n    tag_3:\n      tag_25\n      0x04\n      dup1\n      calldatasize\n      sub\n      dup2\n      add\n      swap1\n      tag_26\n      swap2\n      swap1\n      tag_27\n      jump\t// in\n    tag_26:\n      tag_28\n      jump\t// in\n    tag_25:\n      mload(0x40)\n      tag_29\n      swap2\n      swap1\n      tag_30\n      jump\t// in\n    tag_29:\n      mload(0x40)\n      dup1\n      swap2\n      sub\n      swap1\n      return\n        /* \"lib/openzeppelin-contracts/contracts/token/ERC20/ERC20.sol\":1760:1849  function name() public view virtual returns (string memory) {... */\n    tag_4:\n      tag_31\n      tag_32\n      jump\t// in\n    tag_31:\n      mload(0x40)\n      tag_33\n      swap2\n      swap1\n      tag_34\n      jump\t// in\n    tag_33:\n      mload(0x40)\n      dup1\n      swap2\n      sub\n      swap1\n      return\n        /* \"lib/openzeppelin-contracts/contracts/token/ERC20/ERC20.sol\":3979:4165  function approve(address spender, uint256 value) public virtual returns (bool) {... */\n    tag_5:\n      tag_35\n      0x04\n      dup1\n      calldatasize\n      sub\n      dup2\n      add\n      swap1\n      tag_36\n      swap2\n      swap1\n      tag_37\n      jump\t// in\n    tag_36:\n      tag_38\n      jump\t// in\n    tag_35:\n      mload(0x40)\n      tag_39\n      swap2\n      swap1\n      tag_30\n      jump\t// in\n    tag_39:\n      mload(0x40)\n      dup1\n      swap2\n      sub\n      swap1\n      return\n        /* \"lib/openzeppelin-contracts/contracts/token/ERC20/ERC20.sol\":2830:2927  function totalSupply() public view virtual returns (uint256) {... */\n    tag_6:\n      tag_40\n      tag_41\n      jump\t// in\n    tag_40:\n      mload(0x40)\n      tag_42\n      swap2\n      swap1\n      tag_43\n      jump\t// in\n    tag_42:\n      mload(0x40)\n      dup1\n      swap2\n      sub\n      swap1\n      return\n        /* \"lib/openzeppelin-contracts/contracts/token/ERC20/ERC20.sol\":4757:5001  function transferFrom(address from, address to, uint256 value) public virtual returns (bool) {... */\n    tag_7:\n      tag_44\n      0x04\n      dup1\n      calldatasize\n      sub\n      dup2\n      add\n      swap1\n      tag_45\n      swap2\n      swap1\n      tag_46\n      jump\t// in\n    tag_45:\n      tag_47\n      jump\t// in\n    tag_44:\n      mload(0x40)\n      tag_48\n      swap2\n      swap1\n      tag_30\n      jump\t// in\n    tag_48:\n      mload(0x40)\n      dup1\n      swap2\n      sub\n      swap1\n      return\n        /* \"lib/openzeppelin-contracts/contracts/access/AccessControl.sol\":3810:3930  function getRoleAdmin(bytes32 role) public view virtual returns (bytes32) {... */\n    tag_8:\n      tag_49\n      0x04\n      dup1\n      calldatasize\n      sub\n      dup2\n      add\n      swap1\n      tag_50\n      swap2\n      swap1\n      tag_51\n      jump\t// in\n    tag_50:\n      tag_52\n      jump\t// in\n    tag_49:\n      mload(0x40)\n      tag_53\n      swap2\n      swap1\n      tag_54\n      jump\t// in\n    tag_53:\n      mload(0x40)\n      dup1\n      swap2\n      sub\n      swap1\n      return\n        /* \"lib/openzeppelin-contracts/contracts/access/AccessControl.sol\":4226:4362  function grantRole(bytes32 role, address account) public virtual onlyRole(getRoleAdmin(role)) {... */\n    tag_9:\n      tag_55\n      0x04\n      dup1\n      calldatasize\n      sub\n      dup2\n      add\n      swap1\n      tag_56\n      swap2\n      swap1\n      tag_57\n      jump\t// in\n    tag_56:\n      tag_58\n      jump\t// in\n    tag_55:\n      stop\n        /* \"lib/openzeppelin-contracts/contracts/token/ERC20/ERC20.sol\":2688:2770  function decimals() public view virtual returns (uint8) {... */\n    tag_10:\n      tag_59\n      tag_60\n      jump\t// in\n    tag_59:\n      mload(0x40)\n      tag_61\n      swap2\n      swap1\n      tag_62\n      jump\t// in\n    tag_61:\n      mload(0x40)\n      dup1\n      swap2\n      sub\n      swap1\n      return\n        /* \"lib/openzeppelin-contracts/contracts/access/AccessControl.sol\":5328:5573  function renounceRole(bytes32 role, address callerConfirmation) public virtual {... */\n    tag_11:\n      tag_63\n      0x04\n      dup1\n      calldatasize\n      sub\n      dup2\n      add\n      swap1\n      tag_64\n      swap2\n      swap1\n      tag_57\n      jump\t// in\n    tag_64:\n      tag_65\n      jump\t// in\n    tag_63:\n      stop\n        /* \"src/InvestmentPoolToken.sol\":682:796  function mint(address to, uint256 amount) external onlyRole(MINTER_BURNER_ROLE) {... */\n    tag_12:\n      tag_66\n      0x04\n      dup1\n      calldatasize\n      sub\n      dup2\n      add\n      swap1\n      tag_67\n      swap2\n      swap1\n      tag_37\n      jump\t// in\n    tag_67:\n      tag_68\n      jump\t// in\n    tag_66:\n      stop\n        /* \"lib/openzeppelin-contracts/contracts/token/ERC20/ERC20.sol\":2985:3101  function balanceOf(address account) public view virtual returns (uint256) {... */\n    tag_13:\n      tag_69\n      0x04\n      dup1\n      calldatasize\n      sub\n      dup2\n      add\n      swap1\n      tag_70\n      swap2\n      swap1\n      tag_71\n      jump\t// in\n    tag_70:\n      tag_72\n      jump\t// in\n    tag_69:\n      mload(0x40)\n      tag_73\n      swap2\n      swap1\n      tag_43\n      jump\t// in\n    tag_73:\n      mload(0x40)\n      dup1\n      swap2\n      sub\n      swap1\n      return\n        /* \"src/InvestmentPoolToken.sol\":446:522  bytes32 public constant MINTER_BURNER_ROLE = keccak256(\"MINTER_BURNER_ROLE\") */\n    tag_14:\n      tag_74\n      tag_75\n      jump\t// in\n    tag_74:\n      mload(0x40)\n      tag_76\n      swap2\n      swap1\n      tag_54\n      jump\t// in\n    tag_76:\n      mload(0x40)\n      dup1\n      swap2\n      sub\n      swap1\n      return\n        /* \"lib/openzeppelin-contracts/contracts/access/AccessControl.sol\":2854:2990  function hasRole(bytes32 role, address account) public view virtual returns (bool) {... */\n    tag_15:\n      tag_77\n      0x04\n      dup1\n      calldatasize\n      sub\n      dup2\n      add\n      swap1\n      tag_78\n      swap2\n      swap1\n      tag_57\n      jump\t// in\n    tag_78:\n      tag_79\n      jump\t// in\n    tag_77:\n      mload(0x40)\n      tag_80\n      swap2\n      swap1\n      tag_30\n      jump\t// in\n    tag_80:\n      mload(0x40)\n      dup1\n      swap2\n      sub\n      swap1\n      return\n        /* \"lib/openzeppelin-contracts/contracts/token/ERC20/ERC20.sol\":1962:2055  function symbol() public view virtual returns (string memory) {... */\n    tag_16:\n      tag_81\n      tag_82\n      jump\t// in\n    tag_81:\n      mload(0x40)\n      tag_83\n      swap2\n      swap1\n      tag_34\n      jump\t// in\n    tag_83:\n      mload(0x40)\n      dup1\n      swap2\n      sub\n      swap1\n      return\n        /* \"src/InvestmentPoolToken.sol\":802:920  function burn(address from, uint256 amount) external onlyRole(MINTER_BURNER_ROLE) {... */\n    tag_17:\n      tag_84\n      0x04\n      dup1\n      calldatasize\n      sub\n      dup2\n      add\n      swap1\n      tag_85\n      swap2\n      swap1\n      tag_37\n      jump\t// in\n    tag_85:\n      tag_86\n      jump\t// in\n    tag_84:\n      stop\n        /* \"lib/openzeppelin-contracts/contracts/access/AccessControl.sol\":2187:2236  bytes32 public constant DEFAULT_ADMIN_ROLE = 0x00 */\n    tag_18:\n      tag_87\n      tag_88\n      jump\t// in\n    tag_87:\n      mload(0x40)\n      tag_89\n      swap2\n      swap1\n      tag_54\n      jump\t// in\n    tag_89:\n      mload(0x40)\n      dup1\n      swap2\n      sub\n      swap1\n      return\n        /* \"lib/openzeppelin-contracts/contracts/token/ERC20/ERC20.sol\":3296:3474  function transfer(address to, uint256 value) public virtual returns (bool) {... */\n    tag_19:\n      tag_90\n      0x04\n      dup1\n      calldatasize\n      sub\n      dup2\n      add\n      swap1\n      tag_91\n      swap2\n      swap1\n      tag_37\n      jump\t// in\n    tag_91:\n      tag_92\n      jump\t// in\n    tag_90:\n      mload(0x40)\n      tag_93\n      swap2\n      swap1\n      tag_30\n      jump\t// in\n    tag_93:\n      mload(0x40)\n      dup1\n      swap2\n      sub\n      swap1\n      return\n        /* \"lib/openzeppelin-contracts/contracts/access/AccessControl.sol\":4642:4780  function revokeRole(bytes32 role, address account) public virtual onlyRole(getRoleAdmin(role)) {... */\n    tag_20:\n      tag_94\n      0x04\n      dup1\n      calldatasize\n      sub\n      dup2\n      add\n      swap1\n      tag_95\n      swap2\n      swap1\n      tag_57\n      jump\t// in\n    tag_95:\n      tag_96\n      jump\t// in\n    tag_94:\n      stop\n        /* \"lib/openzeppelin-contracts/contracts/token/ERC20/ERC20.sol\":3532:3672  function allowance(address owner, address spender) public view virtual returns (uint256) {... */\n    tag_21:\n      tag_97\n      0x04\n      dup1\n      calldatasize\n      sub\n      dup2\n      add\n      swap1\n      tag_98\n      swap2\n      swap1\n      tag_99\n      jump\t// in\n    tag_98:\n      tag_100\n      jump\t// in\n    tag_97:\n      mload(0x40)\n      tag_101\n      swap2\n      swap1\n      tag_43\n      jump\t// in\n    tag_101:\n      mload(0x40)\n      dup1\n      swap2\n      sub\n      swap1\n      return\n        /* \"lib/openzeppelin-contracts/contracts/access/AccessControl.sol\":2565:2767  function supportsInterface(bytes4 interfaceId) public view virtual override returns (bool) {... */\n    tag_28:\n        /* \"lib/openzeppelin-contracts/contracts/access/AccessControl.sol\":2650:2654  bool */\n      0x00\n        /* \"lib/openzeppelin-contracts/contracts/access/AccessControl.sol\":2688:2720  type(IAccessControl).interfaceId */\n      0x7965db0b00000000000000000000000000000000000000000000000000000000\n        /* \"lib/openzeppelin-contracts/contracts/access/AccessControl.sol\":2673:2720  interfaceId == type(IAccessControl).interfaceId */\n      not(0xffffffffffffffffffffffffffffffffffffffffffffffffffffffff)\n      and\n        /* \"lib/openzeppelin-contracts/contracts/access/AccessControl.sol\":2673:2684  interfaceId */\n      dup3\n        /* \"lib/openzeppelin-contracts/contracts/access/AccessControl.sol\":2673:2720  interfaceId == type(IAccessControl).interfaceId */\n      not(0xffffffffffffffffffffffffffffffffffffffffffffffffffffffff)\n      and\n      eq\n        /* \"lib/openzeppelin-contracts/contracts/access/AccessControl.sol\":2673:2760  interfaceId == type(IAccessControl).interfaceId || super.supportsInterface(interfaceId) */\n      dup1\n      tag_103\n      jumpi\n      pop\n        /* \"lib/openzeppelin-contracts/contracts/access/AccessControl.sol\":2724:2760  super.supportsInterface(interfaceId) */\n      tag_104\n        /* \"lib/openzeppelin-contracts/contracts/access/AccessControl.sol\":2748:2759  interfaceId */\n      dup3\n        /* \"lib/openzeppelin-contracts/contracts/access/AccessControl.sol\":2724:2747  super.supportsInterface */\n      tag_105\n        /* \"lib/openzeppelin-contracts/contracts/access/AccessControl.sol\":2724:2760  super.supportsInterface(interfaceId) */\n      jump\t// in\n    tag_104:\n        /* \"lib/openzeppelin-contracts/contracts/access/AccessControl.sol\":2673:2760  interfaceId == type(IAccessControl).interfaceId || super.supportsInterface(interfaceId) */\n    tag_103:\n        /* \"lib/openzeppelin-contracts/contracts/access/AccessControl.sol\":2666:2760  return interfaceId == type(IAccessControl).interfaceId || super.supportsInterface(interfaceId) */\n      swap1\n      pop\n        /* \"lib/openzeppelin-contracts/contracts/access/AccessControl.sol\":2565:2767  function supportsInterface(bytes4 interfaceId) public view virtual override returns (bool) {... */\n      swap2\n      swap1\n      pop\n      jump\t// out\n        /* \"lib/openzeppelin-contracts/contracts/token/ERC20/ERC20.sol\":1760:1849  function name() public view virtual returns (string memory) {... */\n    tag_32:\n        /* \"lib/openzeppelin-contracts/contracts/token/ERC20/ERC20.sol\":1805:1818  string memory */\n      0x60\n        /* \"lib/openzeppelin-contracts/contracts/token/ERC20/ERC20.sol\":1837:1842  _name */\n      0x03\n        /* \"lib/openzeppelin-contracts/contracts/token/ERC20/ERC20.sol\":1830:1842  return _name */\n      dup1\n      sload\n      tag_107\n      swap1\n      tag_108\n      jump\t// in\n    tag_107:\n      dup1\n      0x1f\n      add\n      0x20\n      dup1\n      swap2\n      div\n      mul\n      0x20\n      add\n      mload(0x40)\n      swap1\n      dup2\n      add\n      0x40\n      mstore\n      dup1\n      swap3\n      swap2\n      swap1\n      dup2\n      dup2\n      mstore\n      0x20\n      add\n      dup3\n      dup1\n      sload\n      tag_109\n      swap1\n      tag_108\n      jump\t// in\n    tag_109:\n      dup1\n      iszero\n      tag_110\n      jumpi\n      dup1\n      0x1f\n      lt\n      tag_111\n      jumpi\n      0x0100\n      dup1\n      dup4\n      sload\n      div\n      mul\n      dup4\n      mstore\n      swap2\n      0x20\n      add\n      swap2\n      jump(tag_110)\n    tag_111:\n      dup3\n      add\n      swap2\n      swap1\n      0x00\n      mstore\n      keccak256(0x00, 0x20)\n      swap1\n    tag_112:\n      dup2\n      sload\n      dup2\n      mstore\n      swap1\n      0x01\n      add\n      swap1\n      0x20\n      add\n      dup1\n      dup4\n      gt\n      tag_112\n      jumpi\n      dup3\n      swap1\n      sub\n      0x1f\n      and\n      dup3\n      add\n      swap2\n    tag_110:\n      pop\n      pop\n      pop\n      pop\n      pop\n      swap1\n      pop\n        /* \"lib/openzeppelin-contracts/contracts/token/ERC20/ERC20.sol\":1760:1849  function name() public view virtual returns (string memory) {... */\n      swap1\n      jump\t// out\n        /* \"lib/openzeppelin-contracts/contracts/token/ERC20/ERC20.sol\":3979:4165  function approve(address spender, uint256 value) public virtual returns (bool) {... */\n    tag_38:\n        /* \"lib/openzeppelin-contracts/contracts/token/ERC20/ERC20.sol\":4052:4056  bool */\n      0x00\n        /* \"lib/openzeppelin-contracts/contracts/token/ERC20/ERC20.sol\":4068:4081  address owner */\n      0x00\n        /* \"lib/openzeppelin-contracts/contracts/token/ERC20/ERC20.sol\":4084:4096  _msgSender() */\n      tag_114\n        /* \"lib/openzeppelin-contracts/contracts/token/ERC20/ERC20.sol\":4084:4094  _msgSender */\n      tag_115\n        /* \"lib/openzeppelin-contracts/contracts/token/ERC20/ERC20.sol\":4084:4096  _msgSender() */\n      jump\t// in\n    tag_114:\n        /* \"lib/openzeppelin-contracts/contracts/token/ERC20/ERC20.sol\":4068:4096  address owner = _msgSender() */\n      swap1\n      pop\n        /* \"lib/openzeppelin-contracts/contracts/token/ERC20/ERC20.sol\":4106:4137  _approve(owner, spender, value) */\n      tag_116\n        /* \"lib/openzeppelin-contracts/contracts/token/ERC20/ERC20.sol\":4115:4120  owner */\n      dup2\n        /* \"lib/openzeppelin-contracts/contracts/token/ERC20/ERC20.sol\":4122:4129  spender */\n      dup6\n        /* \"lib/openzeppelin-contracts/contracts/token/ERC20/ERC20.sol\":4131:4136  value */\n      dup6\n        /* \"lib/openzeppelin-contracts/contracts/token/ERC20/ERC20.sol\":4106:4114  _approve */\n      tag_117\n        /* \"lib/openzeppelin-contracts/contracts/token/ERC20/ERC20.sol\":4106:4137  _approve(owner, spender, value) */\n      jump\t// in\n    tag_116:\n        /* \"lib/openzeppelin-contracts/contracts/token/ERC20/ERC20.sol\":4154:4158  true */\n      0x01\n        /* \"lib/openzeppelin-contracts/contracts/token/ERC20/ERC20.sol\":4147:4158  return true */\n      swap2\n      pop\n      pop\n        /* \"lib/openzeppelin-contracts/contracts/token/ERC20/ERC20.sol\":3979:4165  function approve(address spender, uint256 value) public virtual returns (bool) {... */\n      swap3\n      swap2\n      pop\n      pop\n      jump\t// out\n        /* \"lib/openzeppelin-contracts/contracts/token/ERC20/ERC20.sol\":2830:2927  function totalSupply() public view virtual returns (uint256) {... */\n    tag_41:\n        /* \"lib/openzeppelin-contracts/contracts/token/ERC20/ERC20.sol\":2882:2889  uint256 */\n      0x00\n        /* \"lib/openzeppelin-contracts/contracts/token/ERC20/ERC20.sol\":2908:2920  _totalSupply */\n      sload(0x02)\n        /* \"lib/openzeppelin-contracts/contracts/token/ERC20/ERC20.sol\":2901:2920  return _totalSupply */\n      swap1\n      pop\n        /* \"lib/openzeppelin-contracts/contracts/token/ERC20/ERC20.sol\":2830:2927  function totalSupply() public view virtual returns (uint256) {... */\n      swap1\n      jump\t// out\n        /* \"lib/openzeppelin-contracts/contracts/token/ERC20/ERC20.sol\":4757:5001  function transferFrom(address from, address to, uint256 value) public virtual returns (bool) {... */\n    tag_47:\n        /* \"lib/openzeppelin-contracts/contracts/token/ERC20/ERC20.sol\":4844:4848  bool */\n      0x00\n        /* \"lib/openzeppelin-contracts/contracts/token/ERC20/ERC20.sol\":4860:4875  address spender */\n      0x00\n        /* \"lib/openzeppelin-contracts/contracts/token/ERC20/ERC20.sol\":4878:4890  _msgSender() */\n      tag_120\n        /* \"lib/openzeppelin-contracts/contracts/token/ERC20/ERC20.sol\":4878:4888  _msgSender */\n      tag_115\n        /* \"lib/openzeppelin-contracts/contracts/token/ERC20/ERC20.sol\":4878:4890  _msgSender() */\n      jump\t// in\n    tag_120:\n        /* \"lib/openzeppelin-contracts/contracts/token/ERC20/ERC20.sol\":4860:4890  address spender = _msgSender() */\n      swap1\n      pop\n        /* \"lib/openzeppelin-contracts/contracts/token/ERC20/ERC20.sol\":4900:4937  _spendAllowance(from, spender, value) */\n      tag_121\n        /* \"lib/openzeppelin-contracts/contracts/token/ERC20/ERC20.sol\":4916:4920  from */\n      dup6\n        /* \"lib/openzeppelin-contracts/contracts/token/ERC20/ERC20.sol\":4922:4929  spender */\n      dup3\n        /* \"lib/openzeppelin-contracts/contracts/token/ERC20/ERC20.sol\":4931:4936  value */\n      dup6\n        /* \"lib/openzeppelin-contracts/contracts/token/ERC20/ERC20.sol\":4900:4915  _spendAllowance */\n      tag_122\n        /* \"lib/openzeppelin-contracts/contracts/token/ERC20/ERC20.sol\":4900:4937  _spendAllowance(from, spender, value) */\n      jump\t// in\n    tag_121:\n        /* \"lib/openzeppelin-contracts/contracts/token/ERC20/ERC20.sol\":4947:4973  _transfer(from, to, value) */\n      tag_123\n        /* \"lib/openzeppelin-contracts/contracts/token/ERC20/ERC20.sol\":4957:4961  from */\n      dup6\n        /* \"lib/openzeppelin-contracts/contracts/token/ERC20/ERC20.sol\":4963:4965  to */\n      dup6\n        /* \"lib/openzeppelin-contracts/contracts/token/ERC20/ERC20.sol\":4967:4972  value */\n      dup6\n        /* \"lib/openzeppelin-contracts/contracts/token/ERC20/ERC20.sol\":4947:4956  _transfer */\n      tag_124\n        /* \"lib/openzeppelin-contracts/contracts/token/ERC20/ERC20.sol\":4947:4973  _transfer(from, to, value) */\n      jump\t// in\n    tag_123:\n        /* \"lib/openzeppelin-contracts/contracts/token/ERC20/ERC20.sol\":4990:4994  true */\n      0x01\n        /* \"lib/openzeppelin-contracts/contracts/token/ERC20/ERC20.sol\":4983:4994  return true */\n      swap2\n      pop\n      pop\n        /* \"lib/openzeppelin-contracts/contracts/token/ERC20/ERC20.sol\":4757:5001  function transferFrom(address from, address to, uint256 value) public virtual returns (bool) {... */\n      swap4\n      swap3\n      pop\n      pop\n      pop\n      jump\t// out\n        /* \"lib/openzeppelin-contracts/contracts/access/AccessControl.sol\":3810:3930  function getRoleAdmin(bytes32 role) public view virtual returns (bytes32) {... */\n    tag_52:\n        /* \"lib/openzeppelin-contracts/contracts/access/AccessControl.sol\":3875:3882  bytes32 */\n      0x00\n        /* \"lib/openzeppelin-contracts/contracts/access/AccessControl.sol\":3901:3907  _roles */\n      0x05\n        /* \"lib/openzeppelin-contracts/contracts/access/AccessControl.sol\":3901:3913  _roles[role] */\n      0x00\n        /* \"lib/openzeppelin-contracts/contracts/access/AccessControl.sol\":3908:3912  role */\n      dup4\n        /* \"lib/openzeppelin-contracts/contracts/access/AccessControl.sol\":3901:3913  _roles[role] */\n      dup2\n      mstore\n      0x20\n      add\n      swap1\n      dup2\n      mstore\n      0x20\n      add\n      0x00\n      keccak256\n        /* \"lib/openzeppelin-contracts/contracts/access/AccessControl.sol\":3901:3923  _roles[role].adminRole */\n      0x01\n      add\n      sload\n        /* \"lib/openzeppelin-contracts/contracts/access/AccessControl.sol\":3894:3923  return _roles[role].adminRole */\n      swap1\n      pop\n        /* \"lib/openzeppelin-contracts/contracts/access/AccessControl.sol\":3810:3930  function getRoleAdmin(bytes32 role) public view virtual returns (bytes32) {... */\n      swap2\n      swap1\n      pop\n      jump\t// out\n        /* \"lib/openzeppelin-contracts/contracts/access/AccessControl.sol\":4226:4362  function grantRole(bytes32 role, address account) public virtual onlyRole(getRoleAdmin(role)) {... */\n    tag_58:\n        /* \"lib/openzeppelin-contracts/contracts/access/AccessControl.sol\":4300:4318  getRoleAdmin(role) */\n      tag_126\n        /* \"lib/openzeppelin-contracts/contracts/access/AccessControl.sol\":4313:4317  role */\n      dup3\n        /* \"lib/openzeppelin-contracts/contracts/access/AccessControl.sol\":4300:4312  getRoleAdmin */\n      tag_52\n        /* \"lib/openzeppelin-contracts/contracts/access/AccessControl.sol\":4300:4318  getRoleAdmin(role) */\n      jump\t// in\n    tag_126:\n        /* \"lib/openzeppelin-contracts/contracts/access/AccessControl.sol\":2464:2480  _checkRole(role) */\n      tag_128\n        /* \"lib/openzeppelin-contracts/contracts/access/AccessControl.sol\":2475:2479  role */\n      dup2\n        /* \"lib/openzeppelin-contracts/contracts/access/AccessControl.sol\":2464:2474  _checkRole */\n      tag_129\n        /* \"lib/openzeppelin-contracts/contracts/access/AccessControl.sol\":2464:2480  _checkRole(role) */\n      jump\t// in\n    tag_128:\n        /* \"lib/openzeppelin-contracts/contracts/access/AccessControl.sol\":4330:4355  _grantRole(role, account) */\n      tag_131\n        /* \"lib/openzeppelin-contracts/contracts/access/AccessControl.sol\":4341:4345  role */\n      dup4\n        /* \"lib/openzeppelin-contracts/contracts/access/AccessControl.sol\":4347:4354  account */\n      dup4\n        /* \"lib/openzeppelin-contracts/contracts/access/AccessControl.sol\":4330:4340  _grantRole */\n      tag_132\n        /* \"lib/openzeppelin-contracts/contracts/access/AccessControl.sol\":4330:4355  _grantRole(role, account) */\n      jump\t// in\n    tag_131:\n      pop\n        /* \"lib/openzeppelin-contracts/contracts/access/AccessControl.sol\":4226:4362  function grantRole(bytes32 role, address account) public virtual onlyRole(getRoleAdmin(role)) {... */\n      pop\n      pop\n      pop\n      jump\t// out\n        /* \"lib/openzeppelin-contracts/contracts/token/ERC20/ERC20.sol\":2688:2770  function decimals() public view virtual returns (uint8) {... */\n    tag_60:\n        /* \"lib/openzeppelin-contracts/contracts/token/ERC20/ERC20.sol\":2737:2742  uint8 */\n      0x00\n        /* \"lib/openzeppelin-contracts/contracts/token/ERC20/ERC20.sol\":2761:2763  18 */\n      0x12\n        /* \"lib/openzeppelin-contracts/contracts/token/ERC20/ERC20.sol\":2754:2763  return 18 */\n      swap1\n      pop\n        /* \"lib/openzeppelin-contracts/contracts/token/ERC20/ERC20.sol\":2688:2770  function decimals() public view virtual returns (uint8) {... */\n      swap1\n      jump\t// out\n        /* \"lib/openzeppelin-contracts/contracts/access/AccessControl.sol\":5328:5573  function renounceRole(bytes32 role, address callerConfirmation) public virtual {... */\n    tag_65:\n        /* \"lib/openzeppelin-contracts/contracts/access/AccessControl.sol\":5443:5455  _msgSender() */\n      tag_135\n        /* \"lib/openzeppelin-contracts/contracts/access/AccessControl.sol\":5443:5453  _msgSender */\n      tag_115\n        /* \"lib/openzeppelin-contracts/contracts/access/AccessControl.sol\":5443:5455  _msgSender() */\n      jump\t// in\n    tag_135:\n        /* \"lib/openzeppelin-contracts/contracts/access/AccessControl.sol\":5421:5455  callerConfirmation != _msgSender() */\n      0xffffffffffffffffffffffffffffffffffffffff\n      and\n        /* \"lib/openzeppelin-contracts/contracts/access/AccessControl.sol\":5421:5439  callerConfirmation */\n      dup2\n        /* \"lib/openzeppelin-contracts/contracts/access/AccessControl.sol\":5421:5455  callerConfirmation != _msgSender() */\n      0xffffffffffffffffffffffffffffffffffffffff\n      and\n      eq\n        /* \"lib/openzeppelin-contracts/contracts/access/AccessControl.sol\":5417:5519  if (callerConfirmation != _msgSender()) {... */\n      tag_136\n      jumpi\n        /* \"lib/openzeppelin-contracts/contracts/access/AccessControl.sol\":5478:5508  AccessControlBadConfirmation() */\n      mload(0x40)\n      0x6697b23200000000000000000000000000000000000000000000000000000000\n      dup2\n      mstore\n      0x04\n      add\n      mload(0x40)\n      dup1\n      swap2\n      sub\n      swap1\n      revert\n        /* \"lib/openzeppelin-contracts/contracts/access/AccessControl.sol\":5417:5519  if (callerConfirmation != _msgSender()) {... */\n    tag_136:\n        /* \"lib/openzeppelin-contracts/contracts/access/AccessControl.sol\":5529:5566  _revokeRole(role, callerConfirmation) */\n      tag_137\n        /* \"lib/openzeppelin-contracts/contracts/access/AccessControl.sol\":5541:5545  role */\n      dup3\n        /* \"lib/openzeppelin-contracts/contracts/access/AccessControl.sol\":5547:5565  callerConfirmation */\n      dup3\n        /* \"lib/openzeppelin-contracts/contracts/access/AccessControl.sol\":5529:5540  _revokeRole */\n      tag_138\n        /* \"lib/openzeppelin-contracts/contracts/access/AccessControl.sol\":5529:5566  _revokeRole(role, callerConfirmation) */\n      jump\t// in\n    tag_137:\n      pop\n        /* \"lib/openzeppelin-contracts/contracts/access/AccessControl.sol\":5328:5573  function renounceRole(bytes32 role, address callerConfirmation) public virtual {... */\n      pop\n      pop\n      jump\t// out\n        /* \"src/InvestmentPoolToken.sol\":682:796  function mint(address to, uint256 amount) external onlyRole(MINTER_BURNER_ROLE) {... */\n    tag_68:\n        /* \"src/InvestmentPoolToken.sol\":491:522  keccak256(\"MINTER_BURNER_ROLE\") */\n      0xcfd53186d792f1ec9d0679afc2dc3ffc86fc31fe1e0f342b838eb6c3eade62b3\n        /* \"lib/openzeppelin-contracts/contracts/access/AccessControl.sol\":2464:2480  _checkRole(role) */\n      tag_140\n        /* \"lib/openzeppelin-contracts/contracts/access/AccessControl.sol\":2475:2479  role */\n      dup2\n        /* \"lib/openzeppelin-contracts/contracts/access/AccessControl.sol\":2464:2474  _checkRole */\n      tag_129\n        /* \"lib/openzeppelin-contracts/contracts/access/AccessControl.sol\":2464:2480  _checkRole(role) */\n      jump\t// in\n    tag_140:\n        /* \"src/InvestmentPoolToken.sol\":772:789  _mint(to, amount) */\n      tag_142\n        /* \"src/InvestmentPoolToken.sol\":778:780  to */\n      dup4\n        /* \"src/InvestmentPoolToken.sol\":782:788  amount */\n      dup4\n        /* \"src/InvestmentPoolToken.sol\":772:777  _mint */\n      tag_143\n        /* \"src/InvestmentPoolToken.sol\":772:789  _mint(to, amount) */\n      jump\t// in\n    tag_142:\n        /* \"src/InvestmentPoolToken.sol\":682:796  function mint(address to, uint256 amount) external onlyRole(MINTER_BURNER_ROLE) {... */\n      pop\n      pop\n      pop\n      jump\t// out\n        /* \"lib/openzeppelin-contracts/contracts/token/ERC20/ERC20.sol\":2985:3101  function balanceOf(address account) public view virtual returns (uint256) {... */\n    tag_72:\n        /* \"lib/openzeppelin-contracts/contracts/token/ERC20/ERC20.sol\":3050:3057  uint256 */\n      0x00\n        /* \"lib/openzeppelin-contracts/contracts/token/ERC20/ERC20.sol\":3076:3085  _balances */\n      0x00\n        /* \"lib/openzeppelin-contracts/contracts/token/ERC20/ERC20.sol\":3076:3094  _balances[account] */\n      0x00\n        /* \"lib/openzeppelin-contracts/contracts/token/ERC20/ERC20.sol\":3086:3093  account */\n      dup4\n        /* \"lib/openzeppelin-contracts/contracts/token/ERC20/ERC20.sol\":3076:3094  _balances[account] */\n      0xffffffffffffffffffffffffffffffffffffffff\n      and\n      0xffffffffffffffffffffffffffffffffffffffff\n      and\n      dup2\n      mstore\n      0x20\n      add\n      swap1\n      dup2\n      mstore\n      0x20\n      add\n      0x00\n      keccak256\n      sload\n        /* \"lib/openzeppelin-contracts/contracts/token/ERC20/ERC20.sol\":3069:3094  return _balances[account] */\n      swap1\n      pop\n        /* \"lib/openzeppelin-contracts/contracts/token/ERC20/ERC20.sol\":2985:3101  function balanceOf(address account) public view virtual returns (uint256) {... */\n      swap2\n      swap1\n      pop\n      jump\t// out\n        /* \"src/InvestmentPoolToken.sol\":446:522  bytes32 public constant MINTER_BURNER_ROLE = keccak256(\"MINTER_BURNER_ROLE\") */\n    tag_75:\n        /* \"src/InvestmentPoolToken.sol\":491:522  keccak256(\"MINTER_BURNER_ROLE\") */\n      0xcfd53186d792f1ec9d0679afc2dc3ffc86fc31fe1e0f342b838eb6c3eade62b3\n        /* \"src/InvestmentPoolToken.sol\":446:522  bytes32 public constant MINTER_BURNER_ROLE = keccak256(\"MINTER_BURNER_ROLE\") */\n      dup2\n      jump\t// out\n        /* \"lib/openzeppelin-contracts/contracts/access/AccessControl.sol\":2854:2990  function hasRole(bytes32 role, address account) public view virtual returns (bool) {... */\n    tag_79:\n        /* \"lib/openzeppelin-contracts/contracts/access/AccessControl.sol\":2931:2935  bool */\n      0x00\n        /* \"lib/openzeppelin-contracts/contracts/access/AccessControl.sol\":2954:2960  _roles */\n      0x05\n        /* \"lib/openzeppelin-contracts/contracts/access/AccessControl.sol\":2954:2966  _roles[role] */\n      0x00\n        /* \"lib/openzeppelin-contracts/contracts/access/AccessControl.sol\":2961:2965  role */\n      dup5\n        /* \"lib/openzeppelin-contracts/contracts/access/AccessControl.sol\":2954:2966  _roles[role] */\n      dup2\n      mstore\n      0x20\n      add\n      swap1\n      dup2\n      mstore\n      0x20\n      add\n      0x00\n      keccak256\n        /* \"lib/openzeppelin-contracts/contracts/access/AccessControl.sol\":2954:2974  _roles[role].hasRole */\n      0x00\n      add\n        /* \"lib/openzeppelin-contracts/contracts/access/AccessControl.sol\":2954:2983  _roles[role].hasRole[account] */\n      0x00\n        /* \"lib/openzeppelin-contracts/contracts/access/AccessControl.sol\":2975:2982  account */\n      dup4\n        /* \"lib/openzeppelin-contracts/contracts/access/AccessControl.sol\":2954:2983  _roles[role].hasRole[account] */\n      0xffffffffffffffffffffffffffffffffffffffff\n      and\n      0xffffffffffffffffffffffffffffffffffffffff\n      and\n      dup2\n      mstore\n      0x20\n      add\n      swap1\n      dup2\n      mstore\n      0x20\n      add\n      0x00\n      keccak256\n      0x00\n      swap1\n      sload\n      swap1\n      0x0100\n      exp\n      swap1\n      div\n      0xff\n      and\n        /* \"lib/openzeppelin-contracts/contracts/access/AccessControl.sol\":2947:2983  return _roles[role].hasRole[account] */\n      swap1\n      pop\n        /* \"lib/openzeppelin-contracts/contracts/access/AccessControl.sol\":2854:2990  function hasRole(bytes32 role, address account) public view virtual returns (bool) {... */\n      swap3\n      swap2\n      pop\n      pop\n      jump\t// out\n        /* \"lib/openzeppelin-contracts/contracts/token/ERC20/ERC20.sol\":1962:2055  function symbol() public view virtual returns (string memory) {... */\n    tag_82:\n        /* \"lib/openzeppelin-contracts/contracts/token/ERC20/ERC20.sol\":2009:2022  string memory */\n      0x60\n        /* \"lib/openzeppelin-contracts/contracts/token/ERC20/ERC20.sol\":2041:2048  _symbol */\n      0x04\n        /* \"lib/openzeppelin-contracts/contracts/token/ERC20/ERC20.sol\":2034:2048  return _symbol */\n      dup1\n      sload\n      tag_147\n      swap1\n      tag_108\n      jump\t// in\n    tag_147:\n      dup1\n      0x1f\n      add\n      0x20\n      dup1\n      swap2\n      div\n      mul\n      0x20\n      add\n      mload(0x40)\n      swap1\n      dup2\n      add\n      0x40\n      mstore\n      dup1\n      swap3\n      swap2\n      swap1\n      dup2\n      dup2\n      mstore\n      0x20\n      add\n      dup3\n      dup1\n      sload\n      tag_148\n      swap1\n      tag_108\n      jump\t// in\n    tag_148:\n      dup1\n      iszero\n      tag_149\n      jumpi\n      dup1\n      0x1f\n      lt\n      tag_150\n      jumpi\n      0x0100\n      dup1\n      dup4\n      sload\n      div\n      mul\n      dup4\n      mstore\n      swap2\n      0x20\n      add\n      swap2\n      jump(tag_149)\n    tag_150:\n      dup3\n      add\n      swap2\n      swap1\n      0x00\n      mstore\n      keccak256(0x00, 0x20)\n      swap1\n    tag_151:\n      dup2\n      sload\n      dup2\n      mstore\n      swap1\n      0x01\n      add\n      swap1\n      0x20\n      add\n      dup1\n      dup4\n      gt\n      tag_151\n      jumpi\n      dup3\n      swap1\n      sub\n      0x1f\n      and\n      dup3\n      add\n      swap2\n    tag_149:\n      pop\n      pop\n      pop\n      pop\n      pop\n      swap1\n      pop\n        /* \"lib/openzeppelin-contracts/contracts/token/ERC20/ERC20.sol\":1962:2055  function symbol() public view virtual returns (string memory) {... */\n      swap1\n      jump\t// out\n        /* \"src/InvestmentPoolToken.sol\":802:920  function burn(address from, uint256 amount) external onlyRole(MINTER_BURNER_ROLE) {... */\n    tag_86:\n        /* \"src/InvestmentPoolToken.sol\":491:522  keccak256(\"MINTER_BURNER_ROLE\") */\n      0xcfd53186d792f1ec9d0679afc2dc3ffc86fc31fe1e0f342b838eb6c3eade62b3\n        /* \"lib/openzeppelin-contracts/contracts/access/AccessControl.sol\":2464:2480  _checkRole(role) */\n      tag_153\n        /* \"lib/openzeppelin-contracts/contracts/access/AccessControl.sol\":2475:2479  role */\n      dup2\n        /* \"lib/openzeppelin-contracts/contracts/access/AccessControl.sol\":2464:2474  _checkRole */\n      tag_129\n        /* \"lib/openzeppelin-contracts/contracts/access/AccessControl.sol\":2464:2480  _checkRole(role) */\n      jump\t// in\n    tag_153:\n        /* \"src/InvestmentPoolToken.sol\":894:913  _burn(from, amount) */\n      tag_155\n        /* \"src/InvestmentPoolToken.sol\":900:904  from */\n      dup4\n        /* \"src/InvestmentPoolToken.sol\":906:912  amount */\n      dup4\n        /* \"src/InvestmentPoolToken.sol\":894:899  _burn */\n      tag_156\n        /* \"src/InvestmentPoolToken.sol\":894:913  _burn(from, amount) */\n      jump\t// in\n    tag_155:\n        /* \"src/InvestmentPoolToken.sol\":802:920  function burn(address from, uint256 amount) external onlyRole(MINTER_BURNER_ROLE) {... */\n      pop\n      pop\n      pop\n      jump\t// out\n        /* \"lib/openzeppelin-contracts/contracts/access/AccessControl.sol\":2187:2236  bytes32 public constant DEFAULT_ADMIN_ROLE = 0x00 */\n    tag_88:\n        /* \"lib/openzeppelin-contracts/contracts/access/AccessControl.sol\":2232:2236  0x00 */\n      0x00\n        /* \"lib/openzeppelin-contracts/contracts/access/AccessControl.sol\":2187:2236  bytes32 public constant DEFAULT_ADMIN_ROLE = 0x00 */\n      0x00\n      shl\n      dup2\n      jump\t// out\n        /* \"lib/openzeppelin-contracts/contracts/token/ERC20/ERC20.sol\":3296:3474  function transfer(address to, uint256 value) public virtual returns (bool) {... */\n    tag_92:\n        /* \"lib/openzeppelin-contracts/contracts/token/ERC20/ERC20.sol\":3365:3369  bool */\n      0x00\n        /* \"lib/openzeppelin-contracts/contracts/token/ERC20/ERC20.sol\":3381:3394  address owner */\n      0x00\n        /* \"lib/openzeppelin-contracts/contracts/token/ERC20/ERC20.sol\":3397:3409  _msgSender() */\n      tag_158\n        /* \"lib/openzeppelin-contracts/contracts/token/ERC20/ERC20.sol\":3397:3407  _msgSender */\n      tag_115\n        /* \"lib/openzeppelin-contracts/contracts/token/ERC20/ERC20.sol\":3397:3409  _msgSender() */\n      jump\t// in\n    tag_158:\n        /* \"lib/openzeppelin-contracts/contracts/token/ERC20/ERC20.sol\":3381:3409  address owner = _msgSender() */\n      swap1\n      pop\n        /* \"lib/openzeppelin-contracts/contracts/token/ERC20/ERC20.sol\":3419:3446  _transfer(owner, to, value) */\n      tag_159\n        /* \"lib/openzeppelin-contracts/contracts/token/ERC20/ERC20.sol\":3429:3434  owner */\n      dup2\n        /* \"lib/openzeppelin-contracts/contracts/token/ERC20/ERC20.sol\":3436:3438  to */\n      dup6\n        /* \"lib/openzeppelin-contracts/contracts/token/ERC20/ERC20.sol\":3440:3445  value */\n      dup6\n        /* \"lib/openzeppelin-contracts/contracts/token/ERC20/ERC20.sol\":3419:3428  _transfer */\n      tag_124\n        /* \"lib/openzeppelin-contracts/contracts/token/ERC20/ERC20.sol\":3419:3446  _transfer(owner, to, value) */\n      jump\t// in\n    tag_159:\n        /* \"lib/openzeppelin-contracts/contracts/token/ERC20/ERC20.sol\":3463:3467  true */\n      0x01\n        /* \"lib/openzeppelin-contracts/contracts/token/ERC20/ERC20.sol\":3456:3467  return true */\n      swap2\n      pop\n      pop\n        /* \"lib/openzeppelin-contracts/contracts/token/ERC20/ERC20.sol\":3296:3474  function transfer(address to, uint256 value) public virtual returns (bool) {... */\n      swap3\n      swap2\n      pop\n      pop\n      jump\t// out\n        /* \"lib/openzeppelin-contracts/contracts/access/AccessControl.sol\":4642:4780  function revokeRole(bytes32 role, address account) public virtual onlyRole(getRoleAdmin(role)) {... */\n    tag_96:\n        /* \"lib/openzeppelin-contracts/contracts/access/AccessControl.sol\":4717:4735  getRoleAdmin(role) */\n      tag_160\n        /* \"lib/openzeppelin-contracts/contracts/access/AccessControl.sol\":4730:4734  role */\n      dup3\n        /* \"lib/openzeppelin-contracts/contracts/access/AccessControl.sol\":4717:4729  getRoleAdmin */\n      tag_52\n        /* \"lib/openzeppelin-contracts/contracts/access/AccessControl.sol\":4717:4735  getRoleAdmin(role) */\n      jump\t// in\n    tag_160:\n        /* \"lib/openzeppelin-contracts/contracts/access/AccessControl.sol\":2464:2480  _checkRole(role) */\n      tag_162\n        /* \"lib/openzeppelin-contracts/contracts/access/AccessControl.sol\":2475:2479  role */\n      dup2\n        /* \"lib/openzeppelin-contracts/contracts/access/AccessControl.sol\":2464:2474  _checkRole */\n      tag_129\n        /* \"lib/openzeppelin-contracts/contracts/access/AccessControl.sol\":2464:2480  _checkRole(role) */\n      jump\t// in\n    tag_162:\n        /* \"lib/openzeppelin-contracts/contracts/access/AccessControl.sol\":4747:4773  _revokeRole(role, account) */\n      tag_164\n        /* \"lib/openzeppelin-contracts/contracts/access/AccessControl.sol\":4759:4763  role */\n      dup4\n        /* \"lib/openzeppelin-contracts/contracts/access/AccessControl.sol\":4765:4772  account */\n      dup4\n        /* \"lib/openzeppelin-contracts/contracts/access/AccessControl.sol\":4747:4758  _revokeRole */\n      tag_138\n        /* \"lib/openzeppelin-contracts/contracts/access/AccessControl.sol\":4747:4773  _revokeRole(role, account) */\n      jump\t// in\n    tag_164:\n      pop\n        /* \"lib/openzeppelin-contracts/contracts/access/AccessControl.sol\":4642:4780  function revokeRole(bytes32 role, address account) public virtual onlyRole(getRoleAdmin(role)) {... */\n      pop\n      pop\n      pop\n      jump\t// out\n        /* \"lib/openzeppelin-contracts/contracts/token/ERC20/ERC20.sol\":3532:3672  function allowance(address owner, address spender) public view virtual returns (uint256) {... */\n    tag_100:\n        /* \"lib/openzeppelin-contracts/contracts/token/ERC20/ERC20.sol\":3612:3619  uint256 */\n      0x00\n        /* \"lib/openzeppelin-contracts/contracts/token/ERC20/ERC20.sol\":3638:3649  _allowances */\n      0x01\n        /* \"lib/openzeppelin-contracts/contracts/token/ERC20/ERC20.sol\":3638:3656  _allowances[owner] */\n      0x00\n        /* \"lib/openzeppelin-contracts/contracts/token/ERC20/ERC20.sol\":3650:3655  owner */\n      dup5\n        /* \"lib/openzeppelin-contracts/contracts/token/ERC20/ERC20.sol\":3638:3656  _allowances[owner] */\n      0xffffffffffffffffffffffffffffffffffffffff\n      and\n      0xffffffffffffffffffffffffffffffffffffffff\n      and\n      dup2\n      mstore\n      0x20\n      add\n      swap1\n      dup2\n      mstore\n      0x20\n      add\n      0x00\n      keccak256\n        /* \"lib/openzeppelin-contracts/contracts/token/ERC20/ERC20.sol\":3638:3665  _allowances[owner][spender] */\n      0x00\n        /* \"lib/openzeppelin-contracts/contracts/token/ERC20/ERC20.sol\":3657:3664  spender */\n      dup4\n        /* \"lib/openzeppelin-contracts/contracts/token/ERC20/ERC20.sol\":3638:3665  _allowances[owner][spender] */\n      0xffffffffffffffffffffffffffffffffffffffff\n      and\n      0xffffffffffffffffffffffffffffffffffffffff\n      and\n      dup2\n      mstore\n      0x20\n      add\n      swap1\n      dup2\n      mstore\n      0x20\n      add\n      0x00\n      keccak256\n      sload\n        /* \"lib/openzeppelin-contracts/contracts/token/ERC20/ERC20.sol\":3631:3665  return _allowances[owner][spender] */\n      swap1\n      pop\n        /* \"lib/openzeppelin-contracts/contracts/token/ERC20/ERC20.sol\":3532:3672  function allowance(address owner, address spender) public view virtual returns (uint256) {... */\n      swap3\n      swap2\n      pop\n      pop\n      jump\t// out\n        /* \"lib/openzeppelin-contracts/contracts/utils/introspection/ERC165.sol\":763:909  function supportsInterface(bytes4 interfaceId) public view virtual returns (bool) {... */\n    tag_105:\n        /* \"lib/openzeppelin-contracts/contracts/utils/introspection/ERC165.sol\":839:843  bool */\n      0x00\n        /* \"lib/openzeppelin-contracts/contracts/utils/introspection/ERC165.sol\":877:902  type(IERC165).interfaceId */\n      0x01ffc9a700000000000000000000000000000000000000000000000000000000\n        /* \"lib/openzeppelin-contracts/contracts/utils/introspection/ERC165.sol\":862:902  interfaceId == type(IERC165).interfaceId */\n      not(0xffffffffffffffffffffffffffffffffffffffffffffffffffffffff)\n      and\n        /* \"lib/openzeppelin-contracts/contracts/utils/introspection/ERC165.sol\":862:873  interfaceId */\n      dup3\n        /* \"lib/openzeppelin-contracts/contracts/utils/introspection/ERC165.sol\":862:902  interfaceId == type(IERC165).interfaceId */\n      not(0xffffffffffffffffffffffffffffffffffffffffffffffffffffffff)\n      and\n      eq\n        /* \"lib/openzeppelin-contracts/contracts/utils/introspection/ERC165.sol\":855:902  return interfaceId == type(IERC165).interfaceId */\n      swap1\n      pop\n        /* \"lib/openzeppelin-contracts/contracts/utils/introspection/ERC165.sol\":763:909  function supportsInterface(bytes4 interfaceId) public view virtual returns (bool) {... */\n      swap2\n      swap1\n      pop\n      jump\t// out\n        /* \"lib/openzeppelin-contracts/contracts/utils/Context.sol\":656:752  function _msgSender() internal view virtual returns (address) {... */\n    tag_115:\n        /* \"lib/openzeppelin-contracts/contracts/utils/Context.sol\":709:716  address */\n      0x00\n        /* \"lib/openzeppelin-contracts/contracts/utils/Context.sol\":735:745  msg.sender */\n      caller\n        /* \"lib/openzeppelin-contracts/contracts/utils/Context.sol\":728:745  return msg.sender */\n      swap1\n      pop\n        /* \"lib/openzeppelin-contracts/contracts/utils/Context.sol\":656:752  function _msgSender() internal view virtual returns (address) {... */\n      swap1\n      jump\t// out\n        /* \"lib/openzeppelin-contracts/contracts/token/ERC20/ERC20.sol\":8707:8835  function _approve(address owner, address spender, uint256 value) internal {... */\n    tag_117:\n        /* \"lib/openzeppelin-contracts/contracts/token/ERC20/ERC20.sol\":8791:8828  _approve(owner, spender, value, true) */\n      tag_169\n        /* \"lib/openzeppelin-contracts/contracts/token/ERC20/ERC20.sol\":8800:8805  owner */\n      dup4\n        /* \"lib/openzeppelin-contracts/contracts/token/ERC20/ERC20.sol\":8807:8814  spender */\n      dup4\n        /* \"lib/openzeppelin-contracts/contracts/token/ERC20/ERC20.sol\":8816:8821  value */\n      dup4\n        /* \"lib/openzeppelin-contracts/contracts/token/ERC20/ERC20.sol\":8823:8827  true */\n      0x01\n        /* \"lib/openzeppelin-contracts/contracts/token/ERC20/ERC20.sol\":8791:8799  _approve */\n      tag_170\n        /* \"lib/openzeppelin-contracts/contracts/token/ERC20/ERC20.sol\":8791:8828  _approve(owner, spender, value, true) */\n      jump\t// in\n    tag_169:\n        /* \"lib/openzeppelin-contracts/contracts/token/ERC20/ERC20.sol\":8707:8835  function _approve(address owner, address spender, uint256 value) internal {... */\n      pop\n      pop\n      pop\n      jump\t// out\n        /* \"lib/openzeppelin-contracts/contracts/token/ERC20/ERC20.sol\":10396:10872  function _spendAllowance(address owner, address spender, uint256 value) internal virtual {... */\n    tag_122:\n        /* \"lib/openzeppelin-contracts/contracts/token/ERC20/ERC20.sol\":10495:10519  uint256 currentAllowance */\n      0x00\n        /* \"lib/openzeppelin-contracts/contracts/token/ERC20/ERC20.sol\":10522:10547  allowance(owner, spender) */\n      tag_172\n        /* \"lib/openzeppelin-contracts/contracts/token/ERC20/ERC20.sol\":10532:10537  owner */\n      dup5\n        /* \"lib/openzeppelin-contracts/contracts/token/ERC20/ERC20.sol\":10539:10546  spender */\n      dup5\n        /* \"lib/openzeppelin-contracts/contracts/token/ERC20/ERC20.sol\":10522:10531  allowance */\n      tag_100\n        /* \"lib/openzeppelin-contracts/contracts/token/ERC20/ERC20.sol\":10522:10547  allowance(owner, spender) */\n      jump\t// in\n    tag_172:\n        /* \"lib/openzeppelin-contracts/contracts/token/ERC20/ERC20.sol\":10495:10547  uint256 currentAllowance = allowance(owner, spender) */\n      swap1\n      pop\n        /* \"lib/openzeppelin-contracts/contracts/token/ERC20/ERC20.sol\":10580:10597  type(uint256).max */\n      0xffffffffffffffffffffffffffffffffffffffffffffffffffffffffffffffff\n        /* \"lib/openzeppelin-contracts/contracts/token/ERC20/ERC20.sol\":10561:10577  currentAllowance */\n      dup2\n        /* \"lib/openzeppelin-contracts/contracts/token/ERC20/ERC20.sol\":10561:10597  currentAllowance < type(uint256).max */\n      lt\n        /* \"lib/openzeppelin-contracts/contracts/token/ERC20/ERC20.sol\":10557:10866  if (currentAllowance < type(uint256).max) {... */\n      iszero\n      tag_173\n      jumpi\n        /* \"lib/openzeppelin-contracts/contracts/token/ERC20/ERC20.sol\":10636:10641  value */\n      dup2\n        /* \"lib/openzeppelin-contracts/contracts/token/ERC20/ERC20.sol\":10617:10633  currentAllowance */\n      dup2\n        /* \"lib/openzeppelin-contracts/contracts/token/ERC20/ERC20.sol\":10617:10641  currentAllowance < value */\n      lt\n        /* \"lib/openzeppelin-contracts/contracts/token/ERC20/ERC20.sol\":10613:10743  if (currentAllowance < value) {... */\n      iszero\n      tag_174\n      jumpi\n        /* \"lib/openzeppelin-contracts/contracts/token/ERC20/ERC20.sol\":10695:10702  spender */\n      dup3\n        /* \"lib/openzeppelin-contracts/contracts/token/ERC20/ERC20.sol\":10704:10720  currentAllowance */\n      dup2\n        /* \"lib/openzeppelin-contracts/contracts/token/ERC20/ERC20.sol\":10722:10727  value */\n      dup4\n        /* \"lib/openzeppelin-contracts/contracts/token/ERC20/ERC20.sol\":10668:10728  ERC20InsufficientAllowance(spender, currentAllowance, value) */\n      mload(0x40)\n      0xfb8f41b200000000000000000000000000000000000000000000000000000000\n      dup2\n      mstore\n      0x04\n      add\n      tag_175\n      swap4\n      swap3\n      swap2\n      swap1\n      tag_176\n      jump\t// in\n    tag_175:\n      mload(0x40)\n      dup1\n      swap2\n      sub\n      swap1\n      revert\n        /* \"lib/openzeppelin-contracts/contracts/token/ERC20/ERC20.sol\":10613:10743  if (currentAllowance < value) {... */\n    tag_174:\n        /* \"lib/openzeppelin-contracts/contracts/token/ERC20/ERC20.sol\":10784:10841  _approve(owner, spender, currentAllowance - value, false) */\n      tag_177\n        /* \"lib/openzeppelin-contracts/contracts/token/ERC20/ERC20.sol\":10793:10798  owner */\n      dup5\n        /* \"lib/openzeppelin-contracts/contracts/token/ERC20/ERC20.sol\":10800:10807  spender */\n      dup5\n        /* \"lib/openzeppelin-contracts/contracts/token/ERC20/ERC20.sol\":10828:10833  value */\n      dup5\n        /* \"lib/openzeppelin-contracts/contracts/token/ERC20/ERC20.sol\":10809:10825  currentAllowance */\n      dup5\n        /* \"lib/openzeppelin-contracts/contracts/token/ERC20/ERC20.sol\":10809:10833  currentAllowance - value */\n      sub\n        /* \"lib/openzeppelin-contracts/contracts/token/ERC20/ERC20.sol\":10835:10840  false */\n      0x00\n        /* \"lib/openzeppelin-contracts/contracts/token/ERC20/ERC20.sol\":10784:10792  _approve */\n      tag_170\n        /* \"lib/openzeppelin-contracts/contracts/token/ERC20/ERC20.sol\":10784:10841  _approve(owner, spender, currentAllowance - value, false) */\n      jump\t// in\n    tag_177:\n        /* \"lib/openzeppelin-contracts/contracts/token/ERC20/ERC20.sol\":10557:10866  if (currentAllowance < type(uint256).max) {... */\n    tag_173:\n        /* \"lib/openzeppelin-contracts/contracts/token/ERC20/ERC20.sol\":10485:10872  {... */\n      pop\n        /* \"lib/openzeppelin-contracts/contracts/token/ERC20/ERC20.sol\":10396:10872  function _spendAllowance(address owner, address spender, uint256 value) internal virtual {... */\n      pop\n      pop\n      pop\n      jump\t// out\n        /* \"lib/openzeppelin-contracts/contracts/token/ERC20/ERC20.sol\":5374:5674  function _transfer(address from, address to, uint256 value) internal {... */\n    tag_124:\n        /* \"lib/openzeppelin-contracts/contracts/token/ERC20/ERC20.sol\":5473:5474  0 */\n      0x00\n        /* \"lib/openzeppelin-contracts/contracts/token/ERC20/ERC20.sol\":5457:5475  from == address(0) */\n      0xffffffffffffffffffffffffffffffffffffffff\n      and\n        /* \"lib/openzeppelin-contracts/contracts/token/ERC20/ERC20.sol\":5457:5461  from */\n      dup4\n        /* \"lib/openzeppelin-contracts/contracts/token/ERC20/ERC20.sol\":5457:5475  from == address(0) */\n      0xffffffffffffffffffffffffffffffffffffffff\n      and\n      sub\n        /* \"lib/openzeppelin-contracts/contracts/token/ERC20/ERC20.sol\":5453:5539  if (from == address(0)) {... */\n      tag_179\n      jumpi\n        /* \"lib/openzeppelin-contracts/contracts/token/ERC20/ERC20.sol\":5525:5526  0 */\n      0x00\n        /* \"lib/openzeppelin-contracts/contracts/token/ERC20/ERC20.sol\":5498:5528  ERC20InvalidSender(address(0)) */\n      mload(0x40)\n      0x96c6fd1e00000000000000000000000000000000000000000000000000000000\n      dup2\n      mstore\n      0x04\n      add\n      tag_180\n      swap2\n      swap1\n      tag_181\n      jump\t// in\n    tag_180:\n      mload(0x40)\n      dup1\n      swap2\n      sub\n      swap1\n      revert\n        /* \"lib/openzeppelin-contracts/contracts/token/ERC20/ERC20.sol\":5453:5539  if (from == address(0)) {... */\n    tag_179:\n        /* \"lib/openzeppelin-contracts/contracts/token/ERC20/ERC20.sol\":5566:5567  0 */\n      0x00\n        /* \"lib/openzeppelin-contracts/contracts/token/ERC20/ERC20.sol\":5552:5568  to == address(0) */\n      0xffffffffffffffffffffffffffffffffffffffff\n      and\n        /* \"lib/openzeppelin-contracts/contracts/token/ERC20/ERC20.sol\":5552:5554  to */\n      dup3\n        /* \"lib/openzeppelin-contracts/contracts/token/ERC20/ERC20.sol\":5552:5568  to == address(0) */\n      0xffffffffffffffffffffffffffffffffffffffff\n      and\n      sub\n        /* \"lib/openzeppelin-contracts/contracts/token/ERC20/ERC20.sol\":5548:5634  if (to == address(0)) {... */\n      tag_182\n      jumpi\n        /* \"lib/openzeppelin-contracts/contracts/token/ERC20/ERC20.sol\":5620:5621  0 */\n      0x00\n        /* \"lib/openzeppelin-contracts/contracts/token/ERC20/ERC20.sol\":5591:5623  ERC20InvalidReceiver(address(0)) */\n      mload(0x40)\n      0xec442f0500000000000000000000000000000000000000000000000000000000\n      dup2\n      mstore\n      0x04\n      add\n      tag_183\n      swap2\n      swap1\n      tag_181\n      jump\t// in\n    tag_183:\n      mload(0x40)\n      dup1\n      swap2\n      sub\n      swap1\n      revert\n        /* \"lib/openzeppelin-contracts/contracts/token/ERC20/ERC20.sol\":5548:5634  if (to == address(0)) {... */\n    tag_182:\n        /* \"lib/openzeppelin-contracts/contracts/token/ERC20/ERC20.sol\":5643:5667  _update(from, to, value) */\n      tag_184\n        /* \"lib/openzeppelin-contracts/contracts/token/ERC20/ERC20.sol\":5651:5655  from */\n      dup4\n        /* \"lib/openzeppelin-contracts/contracts/token/ERC20/ERC20.sol\":5657:5659  to */\n      dup4\n        /* \"lib/openzeppelin-contracts/contracts/token/ERC20/ERC20.sol\":5661:5666  value */\n      dup4\n        /* \"lib/openzeppelin-contracts/contracts/token/ERC20/ERC20.sol\":5643:5650  _update */\n      tag_185\n        /* \"lib/openzeppelin-contracts/contracts/token/ERC20/ERC20.sol\":5643:5667  _update(from, to, value) */\n      jump\t// in\n    tag_184:\n        /* \"lib/openzeppelin-contracts/contracts/token/ERC20/ERC20.sol\":5374:5674  function _transfer(address from, address to, uint256 value) internal {... */\n      pop\n      pop\n      pop\n      jump\t// out\n        /* \"lib/openzeppelin-contracts/contracts/access/AccessControl.sol\":3199:3302  function _checkRole(bytes32 role) internal view virtual {... */\n    tag_129:\n        /* \"lib/openzeppelin-contracts/contracts/access/AccessControl.sol\":3265:3295  _checkRole(role, _msgSender()) */\n      tag_187\n        /* \"lib/openzeppelin-contracts/contracts/access/AccessControl.sol\":3276:3280  role */\n      dup2\n        /* \"lib/openzeppelin-contracts/contracts/access/AccessControl.sol\":3282:3294  _msgSender() */\n      tag_188\n        /* \"lib/openzeppelin-contracts/contracts/access/AccessControl.sol\":3282:3292  _msgSender */\n      tag_115\n        /* \"lib/openzeppelin-contracts/contracts/access/AccessControl.sol\":3282:3294  _msgSender() */\n      jump\t// in\n    tag_188:\n        /* \"lib/openzeppelin-contracts/contracts/access/AccessControl.sol\":3265:3275  _checkRole */\n      tag_189\n        /* \"lib/openzeppelin-contracts/contracts/access/AccessControl.sol\":3265:3295  _checkRole(role, _msgSender()) */\n      jump\t// in\n    tag_187:\n        /* \"lib/openzeppelin-contracts/contracts/access/AccessControl.sol\":3199:3302  function _checkRole(bytes32 role) internal view virtual {... */\n      pop\n      jump\t// out\n        /* \"lib/openzeppelin-contracts/contracts/access/AccessControl.sol\":6179:6495  function _grantRole(bytes32 role, address account) internal virtual returns (bool) {... */\n    tag_132:\n        /* \"lib/openzeppelin-contracts/contracts/access/AccessControl.sol\":6256:6260  bool */\n      0x00\n        /* \"lib/openzeppelin-contracts/contracts/access/AccessControl.sol\":6277:6299  hasRole(role, account) */\n      tag_191\n        /* \"lib/openzeppelin-contracts/contracts/access/AccessControl.sol\":6285:6289  role */\n      dup4\n        /* \"lib/openzeppelin-contracts/contracts/access/AccessControl.sol\":6291:6298  account */\n      dup4\n        /* \"lib/openzeppelin-contracts/contracts/access/AccessControl.sol\":6277:6284  hasRole */\n      tag_79\n        /* \"lib/openzeppelin-contracts/contracts/access/AccessControl.sol\":6277:6299  hasRole(role, account) */\n      jump\t// in\n    tag_191:\n        /* \"lib/openzeppelin-contracts/contracts/access/AccessControl.sol\":6272:6489  if (!hasRole(role, account)) {... */\n      tag_192\n      jumpi\n        /* \"lib/openzeppelin-contracts/contracts/access/AccessControl.sol\":6347:6351  true */\n      0x01\n        /* \"lib/openzeppelin-contracts/contracts/access/AccessControl.sol\":6315:6321  _roles */\n      0x05\n        /* \"lib/openzeppelin-contracts/contracts/access/AccessControl.sol\":6315:6327  _roles[role] */\n      0x00\n        /* \"lib/openzeppelin-contracts/contracts/access/AccessControl.sol\":6322:6326  role */\n      dup6\n        /* \"lib/openzeppelin-contracts/contracts/access/AccessControl.sol\":6315:6327  _roles[role] */\n      dup2\n      mstore\n      0x20\n      add\n      swap1\n      dup2\n      mstore\n      0x20\n      add\n      0x00\n      keccak256\n        /* \"lib/openzeppelin-contracts/contracts/access/AccessControl.sol\":6315:6335  _roles[role].hasRole */\n      0x00\n      add\n        /* \"lib/openzeppelin-contracts/contracts/access/AccessControl.sol\":6315:6344  _roles[role].hasRole[account] */\n      0x00\n        /* \"lib/openzeppelin-contracts/contracts/access/AccessControl.sol\":6336:6343  account */\n      dup5\n        /* \"lib/openzeppelin-contracts/contracts/access/AccessControl.sol\":6315:6344  _roles[role].hasRole[account] */\n      0xffffffffffffffffffffffffffffffffffffffff\n      and\n      0xffffffffffffffffffffffffffffffffffffffff\n      and\n      dup2\n      mstore\n      0x20\n      add\n      swap1\n      dup2\n      mstore\n      0x20\n      add\n      0x00\n      keccak256\n      0x00\n        /* \"lib/openzeppelin-contracts/contracts/access/AccessControl.sol\":6315:6351  _roles[role].hasRole[account] = true */\n      0x0100\n      exp\n      dup2\n      sload\n      dup2\n      0xff\n      mul\n      not\n      and\n      swap1\n      dup4\n      iszero\n      iszero\n      mul\n      or\n      swap1\n      sstore\n      pop\n        /* \"lib/openzeppelin-contracts/contracts/access/AccessControl.sol\":6397:6409  _msgSender() */\n      tag_193\n        /* \"lib/openzeppelin-contracts/contracts/access/AccessControl.sol\":6397:6407  _msgSender */\n      tag_115\n        /* \"lib/openzeppelin-contracts/contracts/access/AccessControl.sol\":6397:6409  _msgSender() */\n      jump\t// in\n    tag_193:\n        /* \"lib/openzeppelin-contracts/contracts/access/AccessControl.sol\":6370:6410  RoleGranted(role, account, _msgSender()) */\n      0xffffffffffffffffffffffffffffffffffffffff\n      and\n        /* \"lib/openzeppelin-contracts/contracts/access/AccessControl.sol\":6388:6395  account */\n      dup3\n        /* \"lib/openzeppelin-contracts/contracts/access/AccessControl.sol\":6370:6410  RoleGranted(role, account, _msgSender()) */\n      0xffffffffffffffffffffffffffffffffffffffff\n      and\n        /* \"lib/openzeppelin-contracts/contracts/access/AccessControl.sol\":6382:6386  role */\n      dup5\n        /* \"lib/openzeppelin-contracts/contracts/access/AccessControl.sol\":6370:6410  RoleGranted(role, account, _msgSender()) */\n      0x2f8788117e7eff1d82e926ec794901d17c78024a50270940304540a733656f0d\n      mload(0x40)\n      mload(0x40)\n      dup1\n      swap2\n      sub\n      swap1\n      log4\n        /* \"lib/openzeppelin-contracts/contracts/access/AccessControl.sol\":6431:6435  true */\n      0x01\n        /* \"lib/openzeppelin-contracts/contracts/access/AccessControl.sol\":6424:6435  return true */\n      swap1\n      pop\n      jump(tag_190)\n        /* \"lib/openzeppelin-contracts/contracts/access/AccessControl.sol\":6272:6489  if (!hasRole(role, account)) {... */\n    tag_192:\n        /* \"lib/openzeppelin-contracts/contracts/access/AccessControl.sol\":6473:6478  false */\n      0x00\n        /* \"lib/openzeppelin-contracts/contracts/access/AccessControl.sol\":6466:6478  return false */\n      swap1\n      pop\n        /* \"lib/openzeppelin-contracts/contracts/access/AccessControl.sol\":6179:6495  function _grantRole(bytes32 role, address account) internal virtual returns (bool) {... */\n    tag_190:\n      swap3\n      swap2\n      pop\n      pop\n      jump\t// out\n        /* \"lib/openzeppelin-contracts/contracts/access/AccessControl.sol\":6732:7049  function _revokeRole(bytes32 role, address account) internal virtual returns (bool) {... */\n    tag_138:\n        /* \"lib/openzeppelin-contracts/contracts/access/AccessControl.sol\":6810:6814  bool */\n      0x00\n        /* \"lib/openzeppelin-contracts/contracts/access/AccessControl.sol\":6830:6852  hasRole(role, account) */\n      tag_196\n        /* \"lib/openzeppelin-contracts/contracts/access/AccessControl.sol\":6838:6842  role */\n      dup4\n        /* \"lib/openzeppelin-contracts/contracts/access/AccessControl.sol\":6844:6851  account */\n      dup4\n        /* \"lib/openzeppelin-contracts/contracts/access/AccessControl.sol\":6830:6837  hasRole */\n      tag_79\n        /* \"lib/openzeppelin-contracts/contracts/access/AccessControl.sol\":6830:6852  hasRole(role, account) */\n      jump\t// in\n    tag_196:\n        /* \"lib/openzeppelin-contracts/contracts/access/AccessControl.sol\":6826:7043  if (hasRole(role, account)) {... */\n      iszero\n      tag_197\n      jumpi\n        /* \"lib/openzeppelin-contracts/contracts/access/AccessControl.sol\":6900:6905  false */\n      0x00\n        /* \"lib/openzeppelin-contracts/contracts/access/AccessControl.sol\":6868:6874  _roles */\n      0x05\n        /* \"lib/openzeppelin-contracts/contracts/access/AccessControl.sol\":6868:6880  _roles[role] */\n      0x00\n        /* \"lib/openzeppelin-contracts/contracts/access/AccessControl.sol\":6875:6879  role */\n      dup6\n        /* \"lib/openzeppelin-contracts/contracts/access/AccessControl.sol\":6868:6880  _roles[role] */\n      dup2\n      mstore\n      0x20\n      add\n      swap1\n      dup2\n      mstore\n      0x20\n      add\n      0x00\n      keccak256\n        /* \"lib/openzeppelin-contracts/contracts/access/AccessControl.sol\":6868:6888  _roles[role].hasRole */\n      0x00\n      add\n        /* \"lib/openzeppelin-contracts/contracts/access/AccessControl.sol\":6868:6897  _roles[role].hasRole[account] */\n      0x00\n        /* \"lib/openzeppelin-contracts/contracts/access/AccessControl.sol\":6889:6896  account */\n      dup5\n        /* \"lib/openzeppelin-contracts/contracts/access/AccessControl.sol\":6868:6897  _roles[role].hasRole[account] */\n      0xffffffffffffffffffffffffffffffffffffffff\n      and\n      0xffffffffffffffffffffffffffffffffffffffff\n      and\n      dup2\n      mstore\n      0x20\n      add\n      swap1\n      dup2\n      mstore\n      0x20\n      add\n      0x00\n      keccak256\n      0x00\n        /* \"lib/openzeppelin-contracts/contracts/access/AccessControl.sol\":6868:6905  _roles[role].hasRole[account] = false */\n      0x0100\n      exp\n      dup2\n      sload\n      dup2\n      0xff\n      mul\n      not\n      and\n      swap1\n      dup4\n      iszero\n      iszero\n      mul\n      or\n      swap1\n      sstore\n      pop\n        /* \"lib/openzeppelin-contracts/contracts/access/AccessControl.sol\":6951:6963  _msgSender() */\n      tag_198\n        /* \"lib/openzeppelin-contracts/contracts/access/AccessControl.sol\":6951:6961  _msgSender */\n      tag_115\n        /* \"lib/openzeppelin-contracts/contracts/access/AccessControl.sol\":6951:6963  _msgSender() */\n      jump\t// in\n    tag_198:\n        /* \"lib/openzeppelin-contracts/contracts/access/AccessControl.sol\":6924:6964  RoleRevoked(role, account, _msgSender()) */\n      0xffffffffffffffffffffffffffffffffffffffff\n      and\n        /* \"lib/openzeppelin-contracts/contracts/access/AccessControl.sol\":6942:6949  account */\n      dup3\n        /* \"lib/openzeppelin-contracts/contracts/access/AccessControl.sol\":6924:6964  RoleRevoked(role, account, _msgSender()) */\n      0xffffffffffffffffffffffffffffffffffffffff\n      and\n        /* \"lib/openzeppelin-contracts/contracts/access/AccessControl.sol\":6936:6940  role */\n      dup5\n        /* \"lib/openzeppelin-contracts/contracts/access/AccessControl.sol\":6924:6964  RoleRevoked(role, account, _msgSender()) */\n      0xf6391f5c32d9c69d2a47ea670b442974b53935d1edc7fd64eb21e047a839171b\n      mload(0x40)\n      mload(0x40)\n      dup1\n      swap2\n      sub\n      swap1\n      log4\n        /* \"lib/openzeppelin-contracts/contracts/access/AccessControl.sol\":6985:6989  true */\n      0x01\n        /* \"lib/openzeppelin-contracts/contracts/access/AccessControl.sol\":6978:6989  return true */\n      swap1\n      pop\n      jump(tag_195)\n        /* \"lib/openzeppelin-contracts/contracts/access/AccessControl.sol\":6826:7043  if (hasRole(role, account)) {... */\n    tag_197:\n        /* \"lib/openzeppelin-contracts/contracts/access/AccessControl.sol\":7027:7032  false */\n      0x00\n        /* \"lib/openzeppelin-contracts/contracts/access/AccessControl.sol\":7020:7032  return false */\n      swap1\n      pop\n        /* \"lib/openzeppelin-contracts/contracts/access/AccessControl.sol\":6732:7049  function _revokeRole(bytes32 role, address account) internal virtual returns (bool) {... */\n    tag_195:\n      swap3\n      swap2\n      pop\n      pop\n      jump\t// out\n        /* \"lib/openzeppelin-contracts/contracts/token/ERC20/ERC20.sol\":7439:7647  function _mint(address account, uint256 value) internal {... */\n    tag_143:\n        /* \"lib/openzeppelin-contracts/contracts/token/ERC20/ERC20.sol\":7528:7529  0 */\n      0x00\n        /* \"lib/openzeppelin-contracts/contracts/token/ERC20/ERC20.sol\":7509:7530  account == address(0) */\n      0xffffffffffffffffffffffffffffffffffffffff\n      and\n        /* \"lib/openzeppelin-contracts/contracts/token/ERC20/ERC20.sol\":7509:7516  account */\n      dup3\n        /* \"lib/openzeppelin-contracts/contracts/token/ERC20/ERC20.sol\":7509:7530  account == address(0) */\n      0xffffffffffffffffffffffffffffffffffffffff\n      and\n      sub\n        /* \"lib/openzeppelin-contracts/contracts/token/ERC20/ERC20.sol\":7505:7596  if (account == address(0)) {... */\n      tag_201\n      jumpi\n        /* \"lib/openzeppelin-contracts/contracts/token/ERC20/ERC20.sol\":7582:7583  0 */\n      0x00\n        /* \"lib/openzeppelin-contracts/contracts/token/ERC20/ERC20.sol\":7553:7585  ERC20InvalidReceiver(address(0)) */\n      mload(0x40)\n      0xec442f0500000000000000000000000000000000000000000000000000000000\n      dup2\n      mstore\n      0x04\n      add\n      tag_202\n      swap2\n      swap1\n      tag_181\n      jump\t// in\n    tag_202:\n      mload(0x40)\n      dup1\n      swap2\n      sub\n      swap1\n      revert\n        /* \"lib/openzeppelin-contracts/contracts/token/ERC20/ERC20.sol\":7505:7596  if (account == address(0)) {... */\n    tag_201:\n        /* \"lib/openzeppelin-contracts/contracts/token/ERC20/ERC20.sol\":7605:7640  _update(address(0), account, value) */\n      tag_203\n        /* \"lib/openzeppelin-contracts/contracts/token/ERC20/ERC20.sol\":7621:7622  0 */\n      0x00\n        /* \"lib/openzeppelin-contracts/contracts/token/ERC20/ERC20.sol\":7625:7632  account */\n      dup4\n        /* \"lib/openzeppelin-contracts/contracts/token/ERC20/ERC20.sol\":7634:7639  value */\n      dup4\n        /* \"lib/openzeppelin-contracts/contracts/token/ERC20/ERC20.sol\":7605:7612  _update */\n      tag_185\n        /* \"lib/openzeppelin-contracts/contracts/token/ERC20/ERC20.sol\":7605:7640  _update(address(0), account, value) */\n      jump\t// in\n    tag_203:\n        /* \"lib/openzeppelin-contracts/contracts/token/ERC20/ERC20.sol\":7439:7647  function _mint(address account, uint256 value) internal {... */\n      pop\n      pop\n      jump\t// out\n        /* \"lib/openzeppelin-contracts/contracts/token/ERC20/ERC20.sol\":7965:8171  function _burn(address account, uint256 value) internal {... */\n    tag_156:\n        /* \"lib/openzeppelin-contracts/contracts/token/ERC20/ERC20.sol\":8054:8055  0 */\n      0x00\n        /* \"lib/openzeppelin-contracts/contracts/token/ERC20/ERC20.sol\":8035:8056  account == address(0) */\n      0xffffffffffffffffffffffffffffffffffffffff\n      and\n        /* \"lib/openzeppelin-contracts/contracts/token/ERC20/ERC20.sol\":8035:8042  account */\n      dup3\n        /* \"lib/openzeppelin-contracts/contracts/token/ERC20/ERC20.sol\":8035:8056  account == address(0) */\n      0xffffffffffffffffffffffffffffffffffffffff\n      and\n      sub\n        /* \"lib/openzeppelin-contracts/contracts/token/ERC20/ERC20.sol\":8031:8120  if (account == address(0)) {... */\n      tag_205\n      jumpi\n        /* \"lib/openzeppelin-contracts/contracts/token/ERC20/ERC20.sol\":8106:8107  0 */\n      0x00\n        /* \"lib/openzeppelin-contracts/contracts/token/ERC20/ERC20.sol\":8079:8109  ERC20InvalidSender(address(0)) */\n      mload(0x40)\n      0x96c6fd1e00000000000000000000000000000000000000000000000000000000\n      dup2\n      mstore\n      0x04\n      add\n      tag_206\n      swap2\n      swap1\n      tag_181\n      jump\t// in\n    tag_206:\n      mload(0x40)\n      dup1\n      swap2\n      sub\n      swap1\n      revert\n        /* \"lib/openzeppelin-contracts/contracts/token/ERC20/ERC20.sol\":8031:8120  if (account == address(0)) {... */\n    tag_205:\n        /* \"lib/openzeppelin-contracts/contracts/token/ERC20/ERC20.sol\":8129:8164  _update(account, address(0), value) */\n      tag_207\n        /* \"lib/openzeppelin-contracts/contracts/token/ERC20/ERC20.sol\":8137:8144  account */\n      dup3\n        /* \"lib/openzeppelin-contracts/contracts/token/ERC20/ERC20.sol\":8154:8155  0 */\n      0x00\n        /* \"lib/openzeppelin-contracts/contracts/token/ERC20/ERC20.sol\":8158:8163  value */\n      dup4\n        /* \"lib/openzeppelin-contracts/contracts/token/ERC20/ERC20.sol\":8129:8136  _update */\n      tag_185\n        /* \"lib/openzeppelin-contracts/contracts/token/ERC20/ERC20.sol\":8129:8164  _update(account, address(0), value) */\n      jump\t// in\n    tag_207:\n        /* \"lib/openzeppelin-contracts/contracts/token/ERC20/ERC20.sol\":7965:8171  function _burn(address account, uint256 value) internal {... */\n      pop\n      pop\n      jump\t// out\n        /* \"lib/openzeppelin-contracts/contracts/token/ERC20/ERC20.sol\":9682:10114  function _approve(address owner, address spender, uint256 value, bool emitEvent) internal virtual {... */\n    tag_170:\n        /* \"lib/openzeppelin-contracts/contracts/token/ERC20/ERC20.sol\":9811:9812  0 */\n      0x00\n        /* \"lib/openzeppelin-contracts/contracts/token/ERC20/ERC20.sol\":9794:9813  owner == address(0) */\n      0xffffffffffffffffffffffffffffffffffffffff\n      and\n        /* \"lib/openzeppelin-contracts/contracts/token/ERC20/ERC20.sol\":9794:9799  owner */\n      dup5\n        /* \"lib/openzeppelin-contracts/contracts/token/ERC20/ERC20.sol\":9794:9813  owner == address(0) */\n      0xffffffffffffffffffffffffffffffffffffffff\n      and\n      sub\n        /* \"lib/openzeppelin-contracts/contracts/token/ERC20/ERC20.sol\":9790:9879  if (owner == address(0)) {... */\n      tag_209\n      jumpi\n        /* \"lib/openzeppelin-contracts/contracts/token/ERC20/ERC20.sol\":9865:9866  0 */\n      0x00\n        /* \"lib/openzeppelin-contracts/contracts/token/ERC20/ERC20.sol\":9836:9868  ERC20InvalidApprover(address(0)) */\n      mload(0x40)\n      0xe602df0500000000000000000000000000000000000000000000000000000000\n      dup2\n      mstore\n      0x04\n      add\n      tag_210\n      swap2\n      swap1\n      tag_181\n      jump\t// in\n    tag_210:\n      mload(0x40)\n      dup1\n      swap2\n      sub\n      swap1\n      revert\n        /* \"lib/openzeppelin-contracts/contracts/token/ERC20/ERC20.sol\":9790:9879  if (owner == address(0)) {... */\n    tag_209:\n        /* \"lib/openzeppelin-contracts/contracts/token/ERC20/ERC20.sol\":9911:9912  0 */\n      0x00\n        /* \"lib/openzeppelin-contracts/contracts/token/ERC20/ERC20.sol\":9892:9913  spender == address(0) */\n      0xffffffffffffffffffffffffffffffffffffffff\n      and\n        /* \"lib/openzeppelin-contracts/contracts/token/ERC20/ERC20.sol\":9892:9899  spender */\n      dup4\n        /* \"lib/openzeppelin-contracts/contracts/token/ERC20/ERC20.sol\":9892:9913  spender == address(0) */\n      0xffffffffffffffffffffffffffffffffffffffff\n      and\n      sub\n        /* \"lib/openzeppelin-contracts/contracts/token/ERC20/ERC20.sol\":9888:9978  if (spender == address(0)) {... */\n      tag_211\n      jumpi\n        /* \"lib/openzeppelin-contracts/contracts/token/ERC20/ERC20.sol\":9964:9965  0 */\n      0x00\n        /* \"lib/openzeppelin-contracts/contracts/token/ERC20/ERC20.sol\":9936:9967  ERC20InvalidSpender(address(0)) */\n      mload(0x40)\n      0x94280d6200000000000000000000000000000000000000000000000000000000\n      dup2\n      mstore\n      0x04\n      add\n      tag_212\n      swap2\n      swap1\n      tag_181\n      jump\t// in\n    tag_212:\n      mload(0x40)\n      dup1\n      swap2\n      sub\n      swap1\n      revert\n        /* \"lib/openzeppelin-contracts/contracts/token/ERC20/ERC20.sol\":9888:9978  if (spender == address(0)) {... */\n    tag_211:\n        /* \"lib/openzeppelin-contracts/contracts/token/ERC20/ERC20.sol\":10017:10022  value */\n      dup2\n        /* \"lib/openzeppelin-contracts/contracts/token/ERC20/ERC20.sol\":9987:9998  _allowances */\n      0x01\n        /* \"lib/openzeppelin-contracts/contracts/token/ERC20/ERC20.sol\":9987:10005  _allowances[owner] */\n      0x00\n        /* \"lib/openzeppelin-contracts/contracts/token/ERC20/ERC20.sol\":9999:10004  owner */\n      dup7\n        /* \"lib/openzeppelin-contracts/contracts/token/ERC20/ERC20.sol\":9987:10005  _allowances[owner] */\n      0xffffffffffffffffffffffffffffffffffffffff\n      and\n      0xffffffffffffffffffffffffffffffffffffffff\n      and\n      dup2\n      mstore\n      0x20\n      add\n      swap1\n      dup2\n      mstore\n      0x20\n      add\n      0x00\n      keccak256\n        /* \"lib/openzeppelin-contracts/contracts/token/ERC20/ERC20.sol\":9987:10014  _allowances[owner][spender] */\n      0x00\n        /* \"lib/openzeppelin-contracts/contracts/token/ERC20/ERC20.sol\":10006:10013  spender */\n      dup6\n        /* \"lib/openzeppelin-contracts/contracts/token/ERC20/ERC20.sol\":9987:10014  _allowances[owner][spender] */\n      0xffffffffffffffffffffffffffffffffffffffff\n      and\n      0xffffffffffffffffffffffffffffffffffffffff\n      and\n      dup2\n      mstore\n      0x20\n      add\n      swap1\n      dup2\n      mstore\n      0x20\n      add\n      0x00\n      keccak256\n        /* \"lib/openzeppelin-contracts/contracts/token/ERC20/ERC20.sol\":9987:10022  _allowances[owner][spender] = value */\n      dup2\n      swap1\n      sstore\n      pop\n        /* \"lib/openzeppelin-contracts/contracts/token/ERC20/ERC20.sol\":10036:10045  emitEvent */\n      dup1\n        /* \"lib/openzeppelin-contracts/contracts/token/ERC20/ERC20.sol\":10032:10108  if (emitEvent) {... */\n      iszero\n      tag_213\n      jumpi\n        /* \"lib/openzeppelin-contracts/contracts/token/ERC20/ERC20.sol\":10082:10089  spender */\n      dup3\n        /* \"lib/openzeppelin-contracts/contracts/token/ERC20/ERC20.sol\":10066:10097  Approval(owner, spender, value) */\n      0xffffffffffffffffffffffffffffffffffffffff\n      and\n        /* \"lib/openzeppelin-contracts/contracts/token/ERC20/ERC20.sol\":10075:10080  owner */\n      dup5\n        /* \"lib/openzeppelin-contracts/contracts/token/ERC20/ERC20.sol\":10066:10097  Approval(owner, spender, value) */\n      0xffffffffffffffffffffffffffffffffffffffff\n      and\n      0x8c5be1e5ebec7d5bd14f71427d1e84f3dd0314c0f7b2291e5b200ac8c7c3b925\n        /* \"lib/openzeppelin-contracts/contracts/token/ERC20/ERC20.sol\":10091:10096  value */\n      dup5\n        /* \"lib/openzeppelin-contracts/contracts/token/ERC20/ERC20.sol\":10066:10097  Approval(owner, spender, value) */\n      mload(0x40)\n      tag_214\n      swap2\n      swap1\n      tag_43\n      jump\t// in\n    tag_214:\n      mload(0x40)\n      dup1\n      swap2\n      sub\n      swap1\n      log3\n        /* \"lib/openzeppelin-contracts/contracts/token/ERC20/ERC20.sol\":10032:10108  if (emitEvent) {... */\n    tag_213:\n        /* \"lib/openzeppelin-contracts/contracts/token/ERC20/ERC20.sol\":9682:10114  function _approve(address owner, address spender, uint256 value, bool emitEvent) internal virtual {... */\n      pop\n      pop\n      pop\n      pop\n      jump\t// out\n        /* \"lib/openzeppelin-contracts/contracts/token/ERC20/ERC20.sol\":5989:7096  function _update(address from, address to, uint256 value) internal virtual {... */\n    tag_185:\n        /* \"lib/openzeppelin-contracts/contracts/token/ERC20/ERC20.sol\":6094:6095  0 */\n      0x00\n        /* \"lib/openzeppelin-contracts/contracts/token/ERC20/ERC20.sol\":6078:6096  from == address(0) */\n      0xffffffffffffffffffffffffffffffffffffffff\n      and\n        /* \"lib/openzeppelin-contracts/contracts/token/ERC20/ERC20.sol\":6078:6082  from */\n      dup4\n        /* \"lib/openzeppelin-contracts/contracts/token/ERC20/ERC20.sol\":6078:6096  from == address(0) */\n      0xffffffffffffffffffffffffffffffffffffffff\n      and\n      sub\n        /* \"lib/openzeppelin-contracts/contracts/token/ERC20/ERC20.sol\":6074:6614  if (from == address(0)) {... */\n      tag_216\n      jumpi\n        /* \"lib/openzeppelin-contracts/contracts/token/ERC20/ERC20.sol\":6230:6235  value */\n      dup1\n        /* \"lib/openzeppelin-contracts/contracts/token/ERC20/ERC20.sol\":6214:6226  _totalSupply */\n      0x02\n      0x00\n        /* \"lib/openzeppelin-contracts/contracts/token/ERC20/ERC20.sol\":6214:6235  _totalSupply += value */\n      dup3\n      dup3\n      sload\n      tag_217\n      swap2\n      swap1\n      tag_218\n      jump\t// in\n    tag_217:\n      swap3\n      pop\n      pop\n      dup2\n      swap1\n      sstore\n      pop\n        /* \"lib/openzeppelin-contracts/contracts/token/ERC20/ERC20.sol\":6074:6614  if (from == address(0)) {... */\n      jump(tag_219)\n    tag_216:\n        /* \"lib/openzeppelin-contracts/contracts/token/ERC20/ERC20.sol\":6266:6285  uint256 fromBalance */\n      0x00\n        /* \"lib/openzeppelin-contracts/contracts/token/ERC20/ERC20.sol\":6288:6297  _balances */\n      0x00\n        /* \"lib/openzeppelin-contracts/contracts/token/ERC20/ERC20.sol\":6288:6303  _balances[from] */\n      0x00\n        /* \"lib/openzeppelin-contracts/contracts/token/ERC20/ERC20.sol\":6298:6302  from */\n      dup6\n        /* \"lib/openzeppelin-contracts/contracts/token/ERC20/ERC20.sol\":6288:6303  _balances[from] */\n      0xffffffffffffffffffffffffffffffffffffffff\n      and\n      0xffffffffffffffffffffffffffffffffffffffff\n      and\n      dup2\n      mstore\n      0x20\n      add\n      swap1\n      dup2\n      mstore\n      0x20\n      add\n      0x00\n      keccak256\n      sload\n        /* \"lib/openzeppelin-contracts/contracts/token/ERC20/ERC20.sol\":6266:6303  uint256 fromBalance = _balances[from] */\n      swap1\n      pop\n        /* \"lib/openzeppelin-contracts/contracts/token/ERC20/ERC20.sol\":6335:6340  value */\n      dup2\n        /* \"lib/openzeppelin-contracts/contracts/token/ERC20/ERC20.sol\":6321:6332  fromBalance */\n      dup2\n        /* \"lib/openzeppelin-contracts/contracts/token/ERC20/ERC20.sol\":6321:6340  fromBalance < value */\n      lt\n        /* \"lib/openzeppelin-contracts/contracts/token/ERC20/ERC20.sol\":6317:6432  if (fromBalance < value) {... */\n      iszero\n      tag_220\n      jumpi\n        /* \"lib/openzeppelin-contracts/contracts/token/ERC20/ERC20.sol\":6392:6396  from */\n      dup4\n        /* \"lib/openzeppelin-contracts/contracts/token/ERC20/ERC20.sol\":6398:6409  fromBalance */\n      dup2\n        /* \"lib/openzeppelin-contracts/contracts/token/ERC20/ERC20.sol\":6411:6416  value */\n      dup4\n        /* \"lib/openzeppelin-contracts/contracts/token/ERC20/ERC20.sol\":6367:6417  ERC20InsufficientBalance(from, fromBalance, value) */\n      mload(0x40)\n      0xe450d38c00000000000000000000000000000000000000000000000000000000\n      dup2\n      mstore\n      0x04\n      add\n      tag_221\n      swap4\n      swap3\n      swap2\n      swap1\n      tag_176\n      jump\t// in\n    tag_221:\n      mload(0x40)\n      dup1\n      swap2\n      sub\n      swap1\n      revert\n        /* \"lib/openzeppelin-contracts/contracts/token/ERC20/ERC20.sol\":6317:6432  if (fromBalance < value) {... */\n    tag_220:\n        /* \"lib/openzeppelin-contracts/contracts/token/ERC20/ERC20.sol\":6584:6589  value */\n      dup2\n        /* \"lib/openzeppelin-contracts/contracts/token/ERC20/ERC20.sol\":6570:6581  fromBalance */\n      dup2\n        /* \"lib/openzeppelin-contracts/contracts/token/ERC20/ERC20.sol\":6570:6589  fromBalance - value */\n      sub\n        /* \"lib/openzeppelin-contracts/contracts/token/ERC20/ERC20.sol\":6552:6561  _balances */\n      0x00\n        /* \"lib/openzeppelin-contracts/contracts/token/ERC20/ERC20.sol\":6552:6567  _balances[from] */\n      0x00\n        /* \"lib/openzeppelin-contracts/contracts/token/ERC20/ERC20.sol\":6562:6566  from */\n      dup7\n        /* \"lib/openzeppelin-contracts/contracts/token/ERC20/ERC20.sol\":6552:6567  _balances[from] */\n      0xffffffffffffffffffffffffffffffffffffffff\n      and\n      0xffffffffffffffffffffffffffffffffffffffff\n      and\n      dup2\n      mstore\n      0x20\n      add\n      swap1\n      dup2\n      mstore\n      0x20\n      add\n      0x00\n      keccak256\n        /* \"lib/openzeppelin-contracts/contracts/token/ERC20/ERC20.sol\":6552:6589  _balances[from] = fromBalance - value */\n      dup2\n      swap1\n      sstore\n      pop\n        /* \"lib/openzeppelin-contracts/contracts/token/ERC20/ERC20.sol\":6252:6614  {... */\n      pop\n        /* \"lib/openzeppelin-contracts/contracts/token/ERC20/ERC20.sol\":6074:6614  if (from == address(0)) {... */\n    tag_219:\n        /* \"lib/openzeppelin-contracts/contracts/token/ERC20/ERC20.sol\":6642:6643  0 */\n      0x00\n        /* \"lib/openzeppelin-contracts/contracts/token/ERC20/ERC20.sol\":6628:6644  to == address(0) */\n      0xffffffffffffffffffffffffffffffffffffffff\n      and\n        /* \"lib/openzeppelin-contracts/contracts/token/ERC20/ERC20.sol\":6628:6630  to */\n      dup3\n        /* \"lib/openzeppelin-contracts/contracts/token/ERC20/ERC20.sol\":6628:6644  to == address(0) */\n      0xffffffffffffffffffffffffffffffffffffffff\n      and\n      sub\n        /* \"lib/openzeppelin-contracts/contracts/token/ERC20/ERC20.sol\":6624:7049  if (to == address(0)) {... */\n      tag_222\n      jumpi\n        /* \"lib/openzeppelin-contracts/contracts/token/ERC20/ERC20.sol\":6807:6812  value */\n      dup1\n        /* \"lib/openzeppelin-contracts/contracts/token/ERC20/ERC20.sol\":6791:6803  _totalSupply */\n      0x02\n      0x00\n        /* \"lib/openzeppelin-contracts/contracts/token/ERC20/ERC20.sol\":6791:6812  _totalSupply -= value */\n      dup3\n      dup3\n      sload\n      sub\n      swap3\n      pop\n      pop\n      dup2\n      swap1\n      sstore\n      pop\n        /* \"lib/openzeppelin-contracts/contracts/token/ERC20/ERC20.sol\":6624:7049  if (to == address(0)) {... */\n      jump(tag_223)\n    tag_222:\n        /* \"lib/openzeppelin-contracts/contracts/token/ERC20/ERC20.sol\":7019:7024  value */\n      dup1\n        /* \"lib/openzeppelin-contracts/contracts/token/ERC20/ERC20.sol\":7002:7011  _balances */\n      0x00\n        /* \"lib/openzeppelin-contracts/contracts/token/ERC20/ERC20.sol\":7002:7015  _balances[to] */\n      0x00\n        /* \"lib/openzeppelin-contracts/contracts/token/ERC20/ERC20.sol\":7012:7014  to */\n      dup5\n        /* \"lib/openzeppelin-contracts/contracts/token/ERC20/ERC20.sol\":7002:7015  _balances[to] */\n      0xffffffffffffffffffffffffffffffffffffffff\n      and\n      0xffffffffffffffffffffffffffffffffffffffff\n      and\n      dup2\n      mstore\n      0x20\n      add\n      swap1\n      dup2\n      mstore\n      0x20\n      add\n      0x00\n      keccak256\n      0x00\n        /* \"lib/openzeppelin-contracts/contracts/token/ERC20/ERC20.sol\":7002:7024  _balances[to] += value */\n      dup3\n      dup3\n      sload\n      add\n      swap3\n      pop\n      pop\n      dup2\n      swap1\n      sstore\n      pop\n        /* \"lib/openzeppelin-contracts/contracts/token/ERC20/ERC20.sol\":6624:7049  if (to == address(0)) {... */\n    tag_223:\n        /* \"lib/openzeppelin-contracts/contracts/token/ERC20/ERC20.sol\":7079:7081  to */\n      dup2\n        /* \"lib/openzeppelin-contracts/contracts/token/ERC20/ERC20.sol\":7064:7089  Transfer(from, to, value) */\n      0xffffffffffffffffffffffffffffffffffffffff\n      and\n        /* \"lib/openzeppelin-contracts/contracts/token/ERC20/ERC20.sol\":7073:7077  from */\n      dup4\n        /* \"lib/openzeppelin-contracts/contracts/token/ERC20/ERC20.sol\":7064:7089  Transfer(from, to, value) */\n      0xffffffffffffffffffffffffffffffffffffffff\n      and\n      0xddf252ad1be2c89b69c2b068fc378daa952ba7f163c4a11628f55a4df523b3ef\n        /* \"lib/openzeppelin-contracts/contracts/token/ERC20/ERC20.sol\":7083:7088  value */\n      dup4\n        /* \"lib/openzeppelin-contracts/contracts/token/ERC20/ERC20.sol\":7064:7089  Transfer(from, to, value) */\n      mload(0x40)\n      tag_224\n      swap2\n      swap1\n      tag_43\n      jump\t// in\n    tag_224:\n      mload(0x40)\n      dup1\n      swap2\n      sub\n      swap1\n      log3\n        /* \"lib/openzeppelin-contracts/contracts/token/ERC20/ERC20.sol\":5989:7096  function _update(address from, address to, uint256 value) internal virtual {... */\n      pop\n      pop\n      pop\n      jump\t// out\n        /* \"lib/openzeppelin-contracts/contracts/access/AccessControl.sol\":3432:3629  function _checkRole(bytes32 role, address account) internal view virtual {... */\n    tag_189:\n        /* \"lib/openzeppelin-contracts/contracts/access/AccessControl.sol\":3520:3542  hasRole(role, account) */\n      tag_226\n        /* \"lib/openzeppelin-contracts/contracts/access/AccessControl.sol\":3528:3532  role */\n      dup3\n        /* \"lib/openzeppelin-contracts/contracts/access/AccessControl.sol\":3534:3541  account */\n      dup3\n        /* \"lib/openzeppelin-contracts/contracts/access/AccessControl.sol\":3520:3527  hasRole */\n      tag_79\n        /* \"lib/openzeppelin-contracts/contracts/access/AccessControl.sol\":3520:3542  hasRole(role, account) */\n      jump\t// in\n    tag_226:\n        /* \"lib/openzeppelin-contracts/contracts/access/AccessControl.sol\":3515:3623  if (!hasRole(role, account)) {... */\n      tag_227\n      jumpi\n        /* \"lib/openzeppelin-contracts/contracts/access/AccessControl.sol\":3598:3605  account */\n      dup1\n        /* \"lib/openzeppelin-contracts/contracts/access/AccessControl.sol\":3607:3611  role */\n      dup3\n        /* \"lib/openzeppelin-contracts/contracts/access/AccessControl.sol\":3565:3612  AccessControlUnauthorizedAccount(account, role) */\n      mload(0x40)\n      0xe2517d3f00000000000000000000000000000000000000000000000000000000\n      dup2\n      mstore\n      0x04\n      add\n      tag_228\n      swap3\n      swap2\n      swap1\n      tag_229\n      jump\t// in\n    tag_228:\n      mload(0x40)\n      dup1\n      swap2\n      sub\n      swap1\n      revert\n        /* \"lib/openzeppelin-contracts/contracts/access/AccessControl.sol\":3515:3623  if (!hasRole(role, account)) {... */\n    tag_227:\n        /* \"lib/openzeppelin-contracts/contracts/access/AccessControl.sol\":3432:3629  function _checkRole(bytes32 role, address account) internal view virtual {... */\n      pop\n      pop\n      jump\t// out\n        /* \"#utility.yul\":88:205   */\n    tag_231:\n        /* \"#utility.yul\":197:198   */\n      0x00\n        /* \"#utility.yul\":194:195   */\n      0x00\n        /* \"#utility.yul\":187:199   */\n      revert\n        /* \"#utility.yul\":334:483   */\n    tag_233:\n        /* \"#utility.yul\":370:377   */\n      0x00\n        /* \"#utility.yul\":410:476   */\n      0xffffffff00000000000000000000000000000000000000000000000000000000\n        /* \"#utility.yul\":403:408   */\n      dup3\n        /* \"#utility.yul\":399:477   */\n      and\n        /* \"#utility.yul\":388:477   */\n      swap1\n      pop\n        /* \"#utility.yul\":334:483   */\n      swap2\n      swap1\n      pop\n      jump\t// out\n        /* \"#utility.yul\":489:609   */\n    tag_234:\n        /* \"#utility.yul\":561:584   */\n      tag_266\n        /* \"#utility.yul\":578:583   */\n      dup2\n        /* \"#utility.yul\":561:584   */\n      tag_233\n      jump\t// in\n    tag_266:\n        /* \"#utility.yul\":554:559   */\n      dup2\n        /* \"#utility.yul\":551:585   */\n      eq\n        /* \"#utility.yul\":541:603   */\n      tag_267\n      jumpi\n        /* \"#utility.yul\":599:600   */\n      0x00\n        /* \"#utility.yul\":596:597   */\n      0x00\n        /* \"#utility.yul\":589:601   */\n      revert\n        /* \"#utility.yul\":541:603   */\n    tag_267:\n        /* \"#utility.yul\":489:609   */\n      pop\n      jump\t// out\n        /* \"#utility.yul\":615:752   */\n    tag_235:\n        /* \"#utility.yul\":660:665   */\n      0x00\n        /* \"#utility.yul\":698:704   */\n      dup2\n        /* \"#utility.yul\":685:705   */\n      calldataload\n        /* \"#utility.yul\":676:705   */\n      swap1\n      pop\n        /* \"#utility.yul\":714:746   */\n      tag_269\n        /* \"#utility.yul\":740:745   */\n      dup2\n        /* \"#utility.yul\":714:746   */\n      tag_234\n      jump\t// in\n    tag_269:\n        /* \"#utility.yul\":615:752   */\n      swap3\n      swap2\n      pop\n      pop\n      jump\t// out\n        /* \"#utility.yul\":758:1085   */\n    tag_27:\n        /* \"#utility.yul\":816:822   */\n      0x00\n        /* \"#utility.yul\":865:867   */\n      0x20\n        /* \"#utility.yul\":853:862   */\n      dup3\n        /* \"#utility.yul\":844:851   */\n      dup5\n        /* \"#utility.yul\":840:863   */\n      sub\n        /* \"#utility.yul\":836:868   */\n      slt\n        /* \"#utility.yul\":833:952   */\n      iszero\n      tag_271\n      jumpi\n        /* \"#utility.yul\":871:950   */\n      tag_272\n      tag_231\n      jump\t// in\n    tag_272:\n        /* \"#utility.yul\":833:952   */\n    tag_271:\n        /* \"#utility.yul\":991:992   */\n      0x00\n        /* \"#utility.yul\":1016:1068   */\n      tag_273\n        /* \"#utility.yul\":1060:1067   */\n      dup5\n        /* \"#utility.yul\":1051:1057   */\n      dup3\n        /* \"#utility.yul\":1040:1049   */\n      dup6\n        /* \"#utility.yul\":1036:1058   */\n      add\n        /* \"#utility.yul\":1016:1068   */\n      tag_235\n      jump\t// in\n    tag_273:\n        /* \"#utility.yul\":1006:1068   */\n      swap2\n      pop\n        /* \"#utility.yul\":962:1078   */\n      pop\n        /* \"#utility.yul\":758:1085   */\n      swap3\n      swap2\n      pop\n      pop\n      jump\t// out\n        /* \"#utility.yul\":1091:1181   */\n    tag_236:\n        /* \"#utility.yul\":1125:1132   */\n      0x00\n        /* \"#utility.yul\":1168:1173   */\n      dup2\n        /* \"#utility.yul\":1161:1174   */\n      iszero\n        /* \"#utility.yul\":1154:1175   */\n      iszero\n        /* \"#utility.yul\":1143:1175   */\n      swap1\n      pop\n        /* \"#utility.yul\":1091:1181   */\n      swap2\n      swap1\n      pop\n      jump\t// out\n        /* \"#utility.yul\":1187:1296   */\n    tag_237:\n        /* \"#utility.yul\":1268:1289   */\n      tag_276\n        /* \"#utility.yul\":1283:1288   */\n      dup2\n        /* \"#utility.yul\":1268:1289   */\n      tag_236\n      jump\t// in\n    tag_276:\n        /* \"#utility.yul\":1263:1266   */\n      dup3\n        /* \"#utility.yul\":1256:1290   */\n      mstore\n        /* \"#utility.yul\":1187:1296   */\n      pop\n      pop\n      jump\t// out\n        /* \"#utility.yul\":1302:1512   */\n    tag_30:\n        /* \"#utility.yul\":1389:1393   */\n      0x00\n        /* \"#utility.yul\":1427:1429   */\n      0x20\n        /* \"#utility.yul\":1416:1425   */\n      dup3\n        /* \"#utility.yul\":1412:1430   */\n      add\n        /* \"#utility.yul\":1404:1430   */\n      swap1\n      pop\n        /* \"#utility.yul\":1440:1505   */\n      tag_278\n        /* \"#utility.yul\":1502:1503   */\n      0x00\n        /* \"#utility.yul\":1491:1500   */\n      dup4\n        /* \"#utility.yul\":1487:1504   */\n      add\n        /* \"#utility.yul\":1478:1484   */\n      dup5\n        /* \"#utility.yul\":1440:1505   */\n      tag_237\n      jump\t// in\n    tag_278:\n        /* \"#utility.yul\":1302:1512   */\n      swap3\n      swap2\n      pop\n      pop\n      jump\t// out\n        /* \"#utility.yul\":1518:1617   */\n    tag_238:\n        /* \"#utility.yul\":1570:1576   */\n      0x00\n        /* \"#utility.yul\":1604:1609   */\n      dup2\n        /* \"#utility.yul\":1598:1610   */\n      mload\n        /* \"#utility.yul\":1588:1610   */\n      swap1\n      pop\n        /* \"#utility.yul\":1518:1617   */\n      swap2\n      swap1\n      pop\n      jump\t// out\n        /* \"#utility.yul\":1623:1792   */\n    tag_239:\n        /* \"#utility.yul\":1707:1718   */\n      0x00\n        /* \"#utility.yul\":1741:1747   */\n      dup3\n        /* \"#utility.yul\":1736:1739   */\n      dup3\n        /* \"#utility.yul\":1729:1748   */\n      mstore\n        /* \"#utility.yul\":1781:1785   */\n      0x20\n        /* \"#utility.yul\":1776:1779   */\n      dup3\n        /* \"#utility.yul\":1772:1786   */\n      add\n        /* \"#utility.yul\":1757:1786   */\n      swap1\n      pop\n        /* \"#utility.yul\":1623:1792   */\n      swap3\n      swap2\n      pop\n      pop\n      jump\t// out\n        /* \"#utility.yul\":1798:1937   */\n    tag_240:\n        /* \"#utility.yul\":1887:1893   */\n      dup3\n        /* \"#utility.yul\":1882:1885   */\n      dup2\n        /* \"#utility.yul\":1877:1880   */\n      dup4\n        /* \"#utility.yul\":1871:1894   */\n      mcopy\n        /* \"#utility.yul\":1928:1929   */\n      0x00\n        /* \"#utility.yul\":1919:1925   */\n      dup4\n        /* \"#utility.yul\":1914:1917   */\n      dup4\n        /* \"#utility.yul\":1910:1926   */\n      add\n        /* \"#utility.yul\":1903:1930   */\n      mstore\n        /* \"#utility.yul\":1798:1937   */\n      pop\n      pop\n      pop\n      jump\t// out\n        /* \"#utility.yul\":1943:2045   */\n    tag_241:\n        /* \"#utility.yul\":1984:1990   */\n      0x00\n        /* \"#utility.yul\":2035:2037   */\n      0x1f\n        /* \"#utility.yul\":2031:2038   */\n      not\n        /* \"#utility.yul\":2026:2028   */\n      0x1f\n        /* \"#utility.yul\":2019:2024   */\n      dup4\n        /* \"#utility.yul\":2015:2029   */\n      add\n        /* \"#utility.yul\":2011:2039   */\n      and\n        /* \"#utility.yul\":2001:2039   */\n      swap1\n      pop\n        /* \"#utility.yul\":1943:2045   */\n      swap2\n      swap1\n      pop\n      jump\t// out\n        /* \"#utility.yul\":2051:2428   */\n    tag_242:\n        /* \"#utility.yul\":2139:2142   */\n      0x00\n        /* \"#utility.yul\":2167:2206   */\n      tag_284\n        /* \"#utility.yul\":2200:2205   */\n      dup3\n        /* \"#utility.yul\":2167:2206   */\n      tag_238\n      jump\t// in\n    tag_284:\n        /* \"#utility.yul\":2222:2293   */\n      tag_285\n        /* \"#utility.yul\":2286:2292   */\n      dup2\n        /* \"#utility.yul\":2281:2284   */\n      dup6\n        /* \"#utility.yul\":2222:2293   */\n      tag_239\n      jump\t// in\n    tag_285:\n        /* \"#utility.yul\":2215:2293   */\n      swap4\n      pop\n        /* \"#utility.yul\":2302:2367   */\n      tag_286\n        /* \"#utility.yul\":2360:2366   */\n      dup2\n        /* \"#utility.yul\":2355:2358   */\n      dup6\n        /* \"#utility.yul\":2348:2352   */\n      0x20\n        /* \"#utility.yul\":2341:2346   */\n      dup7\n        /* \"#utility.yul\":2337:2353   */\n      add\n        /* \"#utility.yul\":2302:2367   */\n      tag_240\n      jump\t// in\n    tag_286:\n        /* \"#utility.yul\":2392:2421   */\n      tag_287\n        /* \"#utility.yul\":2414:2420   */\n      dup2\n        /* \"#utility.yul\":2392:2421   */\n      tag_241\n      jump\t// in\n    tag_287:\n        /* \"#utility.yul\":2387:2390   */\n      dup5\n        /* \"#utility.yul\":2383:2422   */\n      add\n        /* \"#utility.yul\":2376:2422   */\n      swap2\n      pop\n        /* \"#utility.yul\":2143:2428   */\n      pop\n        /* \"#utility.yul\":2051:2428   */\n      swap3\n      swap2\n      pop\n      pop\n      jump\t// out\n        /* \"#utility.yul\":2434:2747   */\n    tag_34:\n        /* \"#utility.yul\":2547:2551   */\n      0x00\n        /* \"#utility.yul\":2585:2587   */\n      0x20\n        /* \"#utility.yul\":2574:2583   */\n      dup3\n        /* \"#utility.yul\":2570:2588   */\n      add\n        /* \"#utility.yul\":2562:2588   */\n      swap1\n      pop\n        /* \"#utility.yul\":2634:2643   */\n      dup2\n        /* \"#utility.yul\":2628:2632   */\n      dup2\n        /* \"#utility.yul\":2624:2644   */\n      sub\n        /* \"#utility.yul\":2620:2621   */\n      0x00\n        /* \"#utility.yul\":2609:2618   */\n      dup4\n        /* \"#utility.yul\":2605:2622   */\n      add\n        /* \"#utility.yul\":2598:2645   */\n      mstore\n        /* \"#utility.yul\":2662:2740   */\n      tag_289\n        /* \"#utility.yul\":2735:2739   */\n      dup2\n        /* \"#utility.yul\":2726:2732   */\n      dup5\n        /* \"#utility.yul\":2662:2740   */\n      tag_242\n      jump\t// in\n    tag_289:\n        /* \"#utility.yul\":2654:2740   */\n      swap1\n      pop\n        /* \"#utility.yul\":2434:2747   */\n      swap3\n      swap2\n      pop\n      pop\n      jump\t// out\n        /* \"#utility.yul\":2753:2879   */\n    tag_243:\n        /* \"#utility.yul\":2790:2797   */\n      0x00\n        /* \"#utility.yul\":2830:2872   */\n      0xffffffffffffffffffffffffffffffffffffffff\n        /* \"#utility.yul\":2823:2828   */\n      dup3\n        /* \"#utility.yul\":2819:2873   */\n      and\n        /* \"#utility.yul\":2808:2873   */\n      swap1\n      pop\n        /* \"#utility.yul\":2753:2879   */\n      swap2\n      swap1\n      pop\n      jump\t// out\n        /* \"#utility.yul\":2885:2981   */\n    tag_244:\n        /* \"#utility.yul\":2922:2929   */\n      0x00\n        /* \"#utility.yul\":2951:2975   */\n      tag_292\n        /* \"#utility.yul\":2969:2974   */\n      dup3\n        /* \"#utility.yul\":2951:2975   */\n      tag_243\n      jump\t// in\n    tag_292:\n        /* \"#utility.yul\":2940:2975   */\n      swap1\n      pop\n        /* \"#utility.yul\":2885:2981   */\n      swap2\n      swap1\n      pop\n      jump\t// out\n        /* \"#utility.yul\":2987:3109   */\n    tag_245:\n        /* \"#utility.yul\":3060:3084   */\n      tag_294\n        /* \"#utility.yul\":3078:3083   */\n      dup2\n        /* \"#utility.yul\":3060:3084   */\n      tag_244\n      jump\t// in\n    tag_294:\n        /* \"#utility.yul\":3053:3058   */\n      dup2\n        /* \"#utility.yul\":3050:3085   */\n      eq\n        /* \"#utility.yul\":3040:3103   */\n      tag_295\n      jumpi\n        /* \"#utility.yul\":3099:3100   */\n      0x00\n        /* \"#utility.yul\":3096:3097   */\n      0x00\n        /* \"#utility.yul\":3089:3101   */\n      revert\n        /* \"#utility.yul\":3040:3103   */\n    tag_295:\n        /* \"#utility.yul\":2987:3109   */\n      pop\n      jump\t// out\n        /* \"#utility.yul\":3115:3254   */\n    tag_246:\n        /* \"#utility.yul\":3161:3166   */\n      0x00\n        /* \"#utility.yul\":3199:3205   */\n      dup2\n        /* \"#utility.yul\":3186:3206   */\n      calldataload\n        /* \"#utility.yul\":3177:3206   */\n      swap1\n      pop\n        /* \"#utility.yul\":3215:3248   */\n      tag_297\n        /* \"#utility.yul\":3242:3247   */\n      dup2\n        /* \"#utility.yul\":3215:3248   */\n      tag_245\n      jump\t// in\n    tag_297:\n        /* \"#utility.yul\":3115:3254   */\n      swap3\n      swap2\n      pop\n      pop\n      jump\t// out\n        /* \"#utility.yul\":3260:3337   */\n    tag_247:\n        /* \"#utility.yul\":3297:3304   */\n      0x00\n        /* \"#utility.yul\":3326:3331   */\n      dup2\n        /* \"#utility.yul\":3315:3331   */\n      swap1\n      pop\n        /* \"#utility.yul\":3260:3337   */\n      swap2\n      swap1\n      pop\n      jump\t// out\n        /* \"#utility.yul\":3343:3465   */\n    tag_248:\n        /* \"#utility.yul\":3416:3440   */\n      tag_300\n        /* \"#utility.yul\":3434:3439   */\n      dup2\n        /* \"#utility.yul\":3416:3440   */\n      tag_247\n      jump\t// in\n    tag_300:\n        /* \"#utility.yul\":3409:3414   */\n      dup2\n        /* \"#utility.yul\":3406:3441   */\n      eq\n        /* \"#utility.yul\":3396:3459   */\n      tag_301\n      jumpi\n        /* \"#utility.yul\":3455:3456   */\n      0x00\n        /* \"#utility.yul\":3452:3453   */\n      0x00\n        /* \"#utility.yul\":3445:3457   */\n      revert\n        /* \"#utility.yul\":3396:3459   */\n    tag_301:\n        /* \"#utility.yul\":3343:3465   */\n      pop\n      jump\t// out\n        /* \"#utility.yul\":3471:3610   */\n    tag_249:\n        /* \"#utility.yul\":3517:3522   */\n      0x00\n        /* \"#utility.yul\":3555:3561   */\n      dup2\n        /* \"#utility.yul\":3542:3562   */\n      calldataload\n        /* \"#utility.yul\":3533:3562   */\n      swap1\n      pop\n        /* \"#utility.yul\":3571:3604   */\n      tag_303\n        /* \"#utility.yul\":3598:3603   */\n      dup2\n        /* \"#utility.yul\":3571:3604   */\n      tag_248\n      jump\t// in\n    tag_303:\n        /* \"#utility.yul\":3471:3610   */\n      swap3\n      swap2\n      pop\n      pop\n      jump\t// out\n        /* \"#utility.yul\":3616:4090   */\n    tag_37:\n        /* \"#utility.yul\":3684:3690   */\n      0x00\n        /* \"#utility.yul\":3692:3698   */\n      0x00\n        /* \"#utility.yul\":3741:3743   */\n      0x40\n        /* \"#utility.yul\":3729:3738   */\n      dup4\n        /* \"#utility.yul\":3720:3727   */\n      dup6\n        /* \"#utility.yul\":3716:3739   */\n      sub\n        /* \"#utility.yul\":3712:3744   */\n      slt\n        /* \"#utility.yul\":3709:3828   */\n      iszero\n      tag_305\n      jumpi\n        /* \"#utility.yul\":3747:3826   */\n      tag_306\n      tag_231\n      jump\t// in\n    tag_306:\n        /* \"#utility.yul\":3709:3828   */\n    tag_305:\n        /* \"#utility.yul\":3867:3868   */\n      0x00\n        /* \"#utility.yul\":3892:3945   */\n      tag_307\n        /* \"#utility.yul\":3937:3944   */\n      dup6\n        /* \"#utility.yul\":3928:3934   */\n      dup3\n        /* \"#utility.yul\":3917:3926   */\n      dup7\n        /* \"#utility.yul\":3913:3935   */\n      add\n        /* \"#utility.yul\":3892:3945   */\n      tag_246\n      jump\t// in\n    tag_307:\n        /* \"#utility.yul\":3882:3945   */\n      swap3\n      pop\n        /* \"#utility.yul\":3838:3955   */\n      pop\n        /* \"#utility.yul\":3994:3996   */\n      0x20\n        /* \"#utility.yul\":4020:4073   */\n      tag_308\n        /* \"#utility.yul\":4065:4072   */\n      dup6\n        /* \"#utility.yul\":4056:4062   */\n      dup3\n        /* \"#utility.yul\":4045:4054   */\n      dup7\n        /* \"#utility.yul\":4041:4063   */\n      add\n        /* \"#utility.yul\":4020:4073   */\n      tag_249\n      jump\t// in\n    tag_308:\n        /* \"#utility.yul\":4010:4073   */\n      swap2\n      pop\n        /* \"#utility.yul\":3965:4083   */\n      pop\n        /* \"#utility.yul\":3616:4090   */\n      swap3\n      pop\n      swap3\n      swap1\n      pop\n      jump\t// out\n        /* \"#utility.yul\":4096:4214   */\n    tag_250:\n        /* \"#utility.yul\":4183:4207   */\n      tag_310\n        /* \"#utility.yul\":4201:4206   */\n      dup2\n        /* \"#utility.yul\":4183:4207   */\n      tag_247\n      jump\t// in\n    tag_310:\n        /* \"#utility.yul\":4178:4181   */\n      dup3\n        /* \"#utility.yul\":4171:4208   */\n      mstore\n        /* \"#utility.yul\":4096:4214   */\n      pop\n      pop\n      jump\t// out\n        /* \"#utility.yul\":4220:4442   */\n    tag_43:\n        /* \"#utility.yul\":4313:4317   */\n      0x00\n        /* \"#utility.yul\":4351:4353   */\n      0x20\n        /* \"#utility.yul\":4340:4349   */\n      dup3\n        /* \"#utility.yul\":4336:4354   */\n      add\n        /* \"#utility.yul\":4328:4354   */\n      swap1\n      pop\n        /* \"#utility.yul\":4364:4435   */\n      tag_312\n        /* \"#utility.yul\":4432:4433   */\n      0x00\n        /* \"#utility.yul\":4421:4430   */\n      dup4\n        /* \"#utility.yul\":4417:4434   */\n      add\n        /* \"#utility.yul\":4408:4414   */\n      dup5\n        /* \"#utility.yul\":4364:4435   */\n      tag_250\n      jump\t// in\n    tag_312:\n        /* \"#utility.yul\":4220:4442   */\n      swap3\n      swap2\n      pop\n      pop\n      jump\t// out\n        /* \"#utility.yul\":4448:5067   */\n    tag_46:\n        /* \"#utility.yul\":4525:4531   */\n      0x00\n        /* \"#utility.yul\":4533:4539   */\n      0x00\n        /* \"#utility.yul\":4541:4547   */\n      0x00\n        /* \"#utility.yul\":4590:4592   */\n      0x60\n        /* \"#utility.yul\":4578:4587   */\n      dup5\n        /* \"#utility.yul\":4569:4576   */\n      dup7\n        /* \"#utility.yul\":4565:4588   */\n      sub\n        /* \"#utility.yul\":4561:4593   */\n      slt\n        /* \"#utility.yul\":4558:4677   */\n      iszero\n      tag_314\n      jumpi\n        /* \"#utility.yul\":4596:4675   */\n      tag_315\n      tag_231\n      jump\t// in\n    tag_315:\n        /* \"#utility.yul\":4558:4677   */\n    tag_314:\n        /* \"#utility.yul\":4716:4717   */\n      0x00\n        /* \"#utility.yul\":4741:4794   */\n      tag_316\n        /* \"#utility.yul\":4786:4793   */\n      dup7\n        /* \"#utility.yul\":4777:4783   */\n      dup3\n        /* \"#utility.yul\":4766:4775   */\n      dup8\n        /* \"#utility.yul\":4762:4784   */\n      add\n        /* \"#utility.yul\":4741:4794   */\n      tag_246\n      jump\t// in\n    tag_316:\n        /* \"#utility.yul\":4731:4794   */\n      swap4\n      pop\n        /* \"#utility.yul\":4687:4804   */\n      pop\n        /* \"#utility.yul\":4843:4845   */\n      0x20\n        /* \"#utility.yul\":4869:4922   */\n      tag_317\n        /* \"#utility.yul\":4914:4921   */\n      dup7\n        /* \"#utility.yul\":4905:4911   */\n      dup3\n        /* \"#utility.yul\":4894:4903   */\n      dup8\n        /* \"#utility.yul\":4890:4912   */\n      add\n        /* \"#utility.yul\":4869:4922   */\n      tag_246\n      jump\t// in\n    tag_317:\n        /* \"#utility.yul\":4859:4922   */\n      swap3\n      pop\n        /* \"#utility.yul\":4814:4932   */\n      pop\n        /* \"#utility.yul\":4971:4973   */\n      0x40\n        /* \"#utility.yul\":4997:5050   */\n      tag_318\n        /* \"#utility.yul\":5042:5049   */\n      dup7\n        /* \"#utility.yul\":5033:5039   */\n      dup3\n        /* \"#utility.yul\":5022:5031   */\n      dup8\n        /* \"#utility.yul\":5018:5040   */\n      add\n        /* \"#utility.yul\":4997:5050   */\n      tag_249\n      jump\t// in\n    tag_318:\n        /* \"#utility.yul\":4987:5050   */\n      swap2\n      pop\n        /* \"#utility.yul\":4942:5060   */\n      pop\n        /* \"#utility.yul\":4448:5067   */\n      swap3\n      pop\n      swap3\n      pop\n      swap3\n      jump\t// out\n        /* \"#utility.yul\":5073:5150   */\n    tag_251:\n        /* \"#utility.yul\":5110:5117   */\n      0x00\n        /* \"#utility.yul\":5139:5144   */\n      dup2\n        /* \"#utility.yul\":5128:5144   */\n      swap1\n      pop\n        /* \"#utility.yul\":5073:5150   */\n      swap2\n      swap1\n      pop\n      jump\t// out\n        /* \"#utility.yul\":5156:5278   */\n    tag_252:\n        /* \"#utility.yul\":5229:5253   */\n      tag_321\n        /* \"#utility.yul\":5247:5252   */\n      dup2\n        /* \"#utility.yul\":5229:5253   */\n      tag_251\n      jump\t// in\n    tag_321:\n        /* \"#utility.yul\":5222:5227   */\n      dup2\n        /* \"#utility.yul\":5219:5254   */\n      eq\n        /* \"#utility.yul\":5209:5272   */\n      tag_322\n      jumpi\n        /* \"#utility.yul\":5268:5269   */\n      0x00\n        /* \"#utility.yul\":5265:5266   */\n      0x00\n        /* \"#utility.yul\":5258:5270   */\n      revert\n        /* \"#utility.yul\":5209:5272   */\n    tag_322:\n        /* \"#utility.yul\":5156:5278   */\n      pop\n      jump\t// out\n        /* \"#utility.yul\":5284:5423   */\n    tag_253:\n        /* \"#utility.yul\":5330:5335   */\n      0x00\n        /* \"#utility.yul\":5368:5374   */\n      dup2\n        /* \"#utility.yul\":5355:5375   */\n      calldataload\n        /* \"#utility.yul\":5346:5375   */\n      swap1\n      pop\n        /* \"#utility.yul\":5384:5417   */\n      tag_324\n        /* \"#utility.yul\":5411:5416   */\n      dup2\n        /* \"#utility.yul\":5384:5417   */\n      tag_252\n      jump\t// in\n    tag_324:\n        /* \"#utility.yul\":5284:5423   */\n      swap3\n      swap2\n      pop\n      pop\n      jump\t// out\n        /* \"#utility.yul\":5429:5758   */\n    tag_51:\n        /* \"#utility.yul\":5488:5494   */\n      0x00\n        /* \"#utility.yul\":5537:5539   */\n      0x20\n        /* \"#utility.yul\":5525:5534   */\n      dup3\n        /* \"#utility.yul\":5516:5523   */\n      dup5\n        /* \"#utility.yul\":5512:5535   */\n      sub\n        /* \"#utility.yul\":5508:5540   */\n      slt\n        /* \"#utility.yul\":5505:5624   */\n      iszero\n      tag_326\n      jumpi\n        /* \"#utility.yul\":5543:5622   */\n      tag_327\n      tag_231\n      jump\t// in\n    tag_327:\n        /* \"#utility.yul\":5505:5624   */\n    tag_326:\n        /* \"#utility.yul\":5663:5664   */\n      0x00\n        /* \"#utility.yul\":5688:5741   */\n      tag_328\n        /* \"#utility.yul\":5733:5740   */\n      dup5\n        /* \"#utility.yul\":5724:5730   */\n      dup3\n        /* \"#utility.yul\":5713:5722   */\n      dup6\n        /* \"#utility.yul\":5709:5731   */\n      add\n        /* \"#utility.yul\":5688:5741   */\n      tag_253\n      jump\t// in\n    tag_328:\n        /* \"#utility.yul\":5678:5741   */\n      swap2\n      pop\n        /* \"#utility.yul\":5634:5751   */\n      pop\n        /* \"#utility.yul\":5429:5758   */\n      swap3\n      swap2\n      pop\n      pop\n      jump\t// out\n        /* \"#utility.yul\":5764:5882   */\n    tag_254:\n        /* \"#utility.yul\":5851:5875   */\n      tag_330\n        /* \"#utility.yul\":5869:5874   */\n      dup2\n        /* \"#utility.yul\":5851:5875   */\n      tag_251\n      jump\t// in\n    tag_330:\n        /* \"#utility.yul\":5846:5849   */\n      dup3\n        /* \"#utility.yul\":5839:5876   */\n      mstore\n        /* \"#utility.yul\":5764:5882   */\n      pop\n      pop\n      jump\t// out\n        /* \"#utility.yul\":5888:6110   */\n    tag_54:\n        /* \"#utility.yul\":5981:5985   */\n      0x00\n        /* \"#utility.yul\":6019:6021   */\n      0x20\n        /* \"#utility.yul\":6008:6017   */\n      dup3\n        /* \"#utility.yul\":6004:6022   */\n      add\n        /* \"#utility.yul\":5996:6022   */\n      swap1\n      pop\n        /* \"#utility.yul\":6032:6103   */\n      tag_332\n        /* \"#utility.yul\":6100:6101   */\n      0x00\n        /* \"#utility.yul\":6089:6098   */\n      dup4\n        /* \"#utility.yul\":6085:6102   */\n      add\n        /* \"#utility.yul\":6076:6082   */\n      dup5\n        /* \"#utility.yul\":6032:6103   */\n      tag_254\n      jump\t// in\n    tag_332:\n        /* \"#utility.yul\":5888:6110   */\n      swap3\n      swap2\n      pop\n      pop\n      jump\t// out\n        /* \"#utility.yul\":6116:6590   */\n    tag_57:\n        /* \"#utility.yul\":6184:6190   */\n      0x00\n        /* \"#utility.yul\":6192:6198   */\n      0x00\n        /* \"#utility.yul\":6241:6243   */\n      0x40\n        /* \"#utility.yul\":6229:6238   */\n      dup4\n        /* \"#utility.yul\":6220:6227   */\n      dup6\n        /* \"#utility.yul\":6216:6239   */\n      sub\n        /* \"#utility.yul\":6212:6244   */\n      slt\n        /* \"#utility.yul\":6209:6328   */\n      iszero\n      tag_334\n      jumpi\n        /* \"#utility.yul\":6247:6326   */\n      tag_335\n      tag_231\n      jump\t// in\n    tag_335:\n        /* \"#utility.yul\":6209:6328   */\n    tag_334:\n        /* \"#utility.yul\":6367:6368   */\n      0x00\n        /* \"#utility.yul\":6392:6445   */\n      tag_336\n        /* \"#utility.yul\":6437:6444   */\n      dup6\n        /* \"#utility.yul\":6428:6434   */\n      dup3\n        /* \"#utility.yul\":6417:6426   */\n      dup7\n        /* \"#utility.yul\":6413:6435   */\n      add\n        /* \"#utility.yul\":6392:6445   */\n      tag_253\n      jump\t// in\n    tag_336:\n        /* \"#utility.yul\":6382:6445   */\n      swap3\n      pop\n        /* \"#utility.yul\":6338:6455   */\n      pop\n        /* \"#utility.yul\":6494:6496   */\n      0x20\n        /* \"#utility.yul\":6520:6573   */\n      tag_337\n        /* \"#utility.yul\":6565:6572   */\n      dup6\n        /* \"#utility.yul\":6556:6562   */\n      dup3\n        /* \"#utility.yul\":6545:6554   */\n      dup7\n        /* \"#utility.yul\":6541:6563   */\n      add\n        /* \"#utility.yul\":6520:6573   */\n      tag_246\n      jump\t// in\n    tag_337:\n        /* \"#utility.yul\":6510:6573   */\n      swap2\n      pop\n        /* \"#utility.yul\":6465:6583   */\n      pop\n        /* \"#utility.yul\":6116:6590   */\n      swap3\n      pop\n      swap3\n      swap1\n      pop\n      jump\t// out\n        /* \"#utility.yul\":6596:6682   */\n    tag_255:\n        /* \"#utility.yul\":6631:6638   */\n      0x00\n        /* \"#utility.yul\":6671:6675   */\n      0xff\n        /* \"#utility.yul\":6664:6669   */\n      dup3\n        /* \"#utility.yul\":6660:6676   */\n      and\n        /* \"#utility.yul\":6649:6676   */\n      swap1\n      pop\n        /* \"#utility.yul\":6596:6682   */\n      swap2\n      swap1\n      pop\n      jump\t// out\n        /* \"#utility.yul\":6688:6800   */\n    tag_256:\n        /* \"#utility.yul\":6771:6793   */\n      tag_340\n        /* \"#utility.yul\":6787:6792   */\n      dup2\n        /* \"#utility.yul\":6771:6793   */\n      tag_255\n      jump\t// in\n    tag_340:\n        /* \"#utility.yul\":6766:6769   */\n      dup3\n        /* \"#utility.yul\":6759:6794   */\n      mstore\n        /* \"#utility.yul\":6688:6800   */\n      pop\n      pop\n      jump\t// out\n        /* \"#utility.yul\":6806:7020   */\n    tag_62:\n        /* \"#utility.yul\":6895:6899   */\n      0x00\n        /* \"#utility.yul\":6933:6935   */\n      0x20\n        /* \"#utility.yul\":6922:6931   */\n      dup3\n        /* \"#utility.yul\":6918:6936   */\n      add\n        /* \"#utility.yul\":6910:6936   */\n      swap1\n      pop\n        /* \"#utility.yul\":6946:7013   */\n      tag_342\n        /* \"#utility.yul\":7010:7011   */\n      0x00\n        /* \"#utility.yul\":6999:7008   */\n      dup4\n        /* \"#utility.yul\":6995:7012   */\n      add\n        /* \"#utility.yul\":6986:6992   */\n      dup5\n        /* \"#utility.yul\":6946:7013   */\n      tag_256\n      jump\t// in\n    tag_342:\n        /* \"#utility.yul\":6806:7020   */\n      swap3\n      swap2\n      pop\n      pop\n      jump\t// out\n        /* \"#utility.yul\":7026:7355   */\n    tag_71:\n        /* \"#utility.yul\":7085:7091   */\n      0x00\n        /* \"#utility.yul\":7134:7136   */\n      0x20\n        /* \"#utility.yul\":7122:7131   */\n      dup3\n        /* \"#utility.yul\":7113:7120   */\n      dup5\n        /* \"#utility.yul\":7109:7132   */\n      sub\n        /* \"#utility.yul\":7105:7137   */\n      slt\n        /* \"#utility.yul\":7102:7221   */\n      iszero\n      tag_344\n      jumpi\n        /* \"#utility.yul\":7140:7219   */\n      tag_345\n      tag_231\n      jump\t// in\n    tag_345:\n        /* \"#utility.yul\":7102:7221   */\n    tag_344:\n        /* \"#utility.yul\":7260:7261   */\n      0x00\n        /* \"#utility.yul\":7285:7338   */\n      tag_346\n        /* \"#utility.yul\":7330:7337   */\n      dup5\n        /* \"#utility.yul\":7321:7327   */\n      dup3\n        /* \"#utility.yul\":7310:7319   */\n      dup6\n        /* \"#utility.yul\":7306:7328   */\n      add\n        /* \"#utility.yul\":7285:7338   */\n      tag_246\n      jump\t// in\n    tag_346:\n        /* \"#utility.yul\":7275:7338   */\n      swap2\n      pop\n        /* \"#utility.yul\":7231:7348   */\n      pop\n        /* \"#utility.yul\":7026:7355   */\n      swap3\n      swap2\n      pop\n      pop\n      jump\t// out\n        /* \"#utility.yul\":7361:7835   */\n    tag_99:\n        /* \"#utility.yul\":7429:7435   */\n      0x00\n        /* \"#utility.yul\":7437:7443   */\n      0x00\n        /* \"#utility.yul\":7486:7488   */\n      0x40\n        /* \"#utility.yul\":7474:7483   */\n      dup4\n        /* \"#utility.yul\":7465:7472   */\n      dup6\n        /* \"#utility.yul\":7461:7484   */\n      sub\n        /* \"#utility.yul\":7457:7489   */\n      slt\n        /* \"#utility.yul\":7454:7573   */\n      iszero\n      tag_348\n      jumpi\n        /* \"#utility.yul\":7492:7571   */\n      tag_349\n      tag_231\n      jump\t// in\n    tag_349:\n        /* \"#utility.yul\":7454:7573   */\n    tag_348:\n        /* \"#utility.yul\":7612:7613   */\n      0x00\n        /* \"#utility.yul\":7637:7690   */\n      tag_350\n        /* \"#utility.yul\":7682:7689   */\n      dup6\n        /* \"#utility.yul\":7673:7679   */\n      dup3\n        /* \"#utility.yul\":7662:7671   */\n      dup7\n        /* \"#utility.yul\":7658:7680   */\n      add\n        /* \"#utility.yul\":7637:7690   */\n      tag_246\n      jump\t// in\n    tag_350:\n        /* \"#utility.yul\":7627:7690   */\n      swap3\n      pop\n        /* \"#utility.yul\":7583:7700   */\n      pop\n        /* \"#utility.yul\":7739:7741   */\n      0x20\n        /* \"#utility.yul\":7765:7818   */\n      tag_351\n        /* \"#utility.yul\":7810:7817   */\n      dup6\n        /* \"#utility.yul\":7801:7807   */\n      dup3\n        /* \"#utility.yul\":7790:7799   */\n      dup7\n        /* \"#utility.yul\":7786:7808   */\n      add\n        /* \"#utility.yul\":7765:7818   */\n      tag_246\n      jump\t// in\n    tag_351:\n        /* \"#utility.yul\":7755:7818   */\n      swap2\n      pop\n        /* \"#utility.yul\":7710:7828   */\n      pop\n        /* \"#utility.yul\":7361:7835   */\n      swap3\n      pop\n      swap3\n      swap1\n      pop\n      jump\t// out\n        /* \"#utility.yul\":7841:8021   */\n    tag_257:\n        /* \"#utility.yul\":7889:7966   */\n      0x4e487b7100000000000000000000000000000000000000000000000000000000\n        /* \"#utility.yul\":7886:7887   */\n      0x00\n        /* \"#utility.yul\":7879:7967   */\n      mstore\n        /* \"#utility.yul\":7986:7990   */\n      0x22\n        /* \"#utility.yul\":7983:7984   */\n      0x04\n        /* \"#utility.yul\":7976:7991   */\n      mstore\n        /* \"#utility.yul\":8010:8014   */\n      0x24\n        /* \"#utility.yul\":8007:8008   */\n      0x00\n        /* \"#utility.yul\":8000:8015   */\n      revert\n        /* \"#utility.yul\":8027:8347   */\n    tag_108:\n        /* \"#utility.yul\":8071:8077   */\n      0x00\n        /* \"#utility.yul\":8108:8109   */\n      0x02\n        /* \"#utility.yul\":8102:8106   */\n      dup3\n        /* \"#utility.yul\":8098:8110   */\n      div\n        /* \"#utility.yul\":8088:8110   */\n      swap1\n      pop\n        /* \"#utility.yul\":8155:8156   */\n      0x01\n        /* \"#utility.yul\":8149:8153   */\n      dup3\n        /* \"#utility.yul\":8145:8157   */\n      and\n        /* \"#utility.yul\":8176:8194   */\n      dup1\n        /* \"#utility.yul\":8166:8247   */\n      tag_354\n      jumpi\n        /* \"#utility.yul\":8232:8236   */\n      0x7f\n        /* \"#utility.yul\":8224:8230   */\n      dup3\n        /* \"#utility.yul\":8220:8237   */\n      and\n        /* \"#utility.yul\":8210:8237   */\n      swap2\n      pop\n        /* \"#utility.yul\":8166:8247   */\n    tag_354:\n        /* \"#utility.yul\":8294:8296   */\n      0x20\n        /* \"#utility.yul\":8286:8292   */\n      dup3\n        /* \"#utility.yul\":8283:8297   */\n      lt\n        /* \"#utility.yul\":8263:8281   */\n      dup2\n        /* \"#utility.yul\":8260:8298   */\n      sub\n        /* \"#utility.yul\":8257:8341   */\n      tag_355\n      jumpi\n        /* \"#utility.yul\":8313:8331   */\n      tag_356\n      tag_257\n      jump\t// in\n    tag_356:\n        /* \"#utility.yul\":8257:8341   */\n    tag_355:\n        /* \"#utility.yul\":8078:8347   */\n      pop\n        /* \"#utility.yul\":8027:8347   */\n      swap2\n      swap1\n      pop\n      jump\t// out\n        /* \"#utility.yul\":8353:8471   */\n    tag_258:\n        /* \"#utility.yul\":8440:8464   */\n      tag_358\n        /* \"#utility.yul\":8458:8463   */\n      dup2\n        /* \"#utility.yul\":8440:8464   */\n      tag_244\n      jump\t// in\n    tag_358:\n        /* \"#utility.yul\":8435:8438   */\n      dup3\n        /* \"#utility.yul\":8428:8465   */\n      mstore\n        /* \"#utility.yul\":8353:8471   */\n      pop\n      pop\n      jump\t// out\n        /* \"#utility.yul\":8477:8919   */\n    tag_176:\n        /* \"#utility.yul\":8626:8630   */\n      0x00\n        /* \"#utility.yul\":8664:8666   */\n      0x60\n        /* \"#utility.yul\":8653:8662   */\n      dup3\n        /* \"#utility.yul\":8649:8667   */\n      add\n        /* \"#utility.yul\":8641:8667   */\n      swap1\n      pop\n        /* \"#utility.yul\":8677:8748   */\n      tag_360\n        /* \"#utility.yul\":8745:8746   */\n      0x00\n        /* \"#utility.yul\":8734:8743   */\n      dup4\n        /* \"#utility.yul\":8730:8747   */\n      add\n        /* \"#utility.yul\":8721:8727   */\n      dup7\n        /* \"#utility.yul\":8677:8748   */\n      tag_258\n      jump\t// in\n    tag_360:\n        /* \"#utility.yul\":8758:8830   */\n      tag_361\n        /* \"#utility.yul\":8826:8828   */\n      0x20\n        /* \"#utility.yul\":8815:8824   */\n      dup4\n        /* \"#utility.yul\":8811:8829   */\n      add\n        /* \"#utility.yul\":8802:8808   */\n      dup6\n        /* \"#utility.yul\":8758:8830   */\n      tag_250\n      jump\t// in\n    tag_361:\n        /* \"#utility.yul\":8840:8912   */\n      tag_362\n        /* \"#utility.yul\":8908:8910   */\n      0x40\n        /* \"#utility.yul\":8897:8906   */\n      dup4\n        /* \"#utility.yul\":8893:8911   */\n      add\n        /* \"#utility.yul\":8884:8890   */\n      dup5\n        /* \"#utility.yul\":8840:8912   */\n      tag_250\n      jump\t// in\n    tag_362:\n        /* \"#utility.yul\":8477:8919   */\n      swap5\n      swap4\n      pop\n      pop\n      pop\n      pop\n      jump\t// out\n        /* \"#utility.yul\":8925:9147   */\n    tag_181:\n        /* \"#utility.yul\":9018:9022   */\n      0x00\n        /* \"#utility.yul\":9056:9058   */\n      0x20\n        /* \"#utility.yul\":9045:9054   */\n      dup3\n        /* \"#utility.yul\":9041:9059   */\n      add\n        /* \"#utility.yul\":9033:9059   */\n      swap1\n      pop\n        /* \"#utility.yul\":9069:9140   */\n      tag_364\n        /* \"#utility.yul\":9137:9138   */\n      0x00\n        /* \"#utility.yul\":9126:9135   */\n      dup4\n        /* \"#utility.yul\":9122:9139   */\n      add\n        /* \"#utility.yul\":9113:9119   */\n      dup5\n        /* \"#utility.yul\":9069:9140   */\n      tag_258\n      jump\t// in\n    tag_364:\n        /* \"#utility.yul\":8925:9147   */\n      swap3\n      swap2\n      pop\n      pop\n      jump\t// out\n        /* \"#utility.yul\":9153:9333   */\n    tag_259:\n        /* \"#utility.yul\":9201:9278   */\n      0x4e487b7100000000000000000000000000000000000000000000000000000000\n        /* \"#utility.yul\":9198:9199   */\n      0x00\n        /* \"#utility.yul\":9191:9279   */\n      mstore\n        /* \"#utility.yul\":9298:9302   */\n      0x11\n        /* \"#utility.yul\":9295:9296   */\n      0x04\n        /* \"#utility.yul\":9288:9303   */\n      mstore\n        /* \"#utility.yul\":9322:9326   */\n      0x24\n        /* \"#utility.yul\":9319:9320   */\n      0x00\n        /* \"#utility.yul\":9312:9327   */\n      revert\n        /* \"#utility.yul\":9339:9530   */\n    tag_218:\n        /* \"#utility.yul\":9379:9382   */\n      0x00\n        /* \"#utility.yul\":9398:9418   */\n      tag_367\n        /* \"#utility.yul\":9416:9417   */\n      dup3\n        /* \"#utility.yul\":9398:9418   */\n      tag_247\n      jump\t// in\n    tag_367:\n        /* \"#utility.yul\":9393:9418   */\n      swap2\n      pop\n        /* \"#utility.yul\":9432:9452   */\n      tag_368\n        /* \"#utility.yul\":9450:9451   */\n      dup4\n        /* \"#utility.yul\":9432:9452   */\n      tag_247\n      jump\t// in\n    tag_368:\n        /* \"#utility.yul\":9427:9452   */\n      swap3\n      pop\n        /* \"#utility.yul\":9475:9476   */\n      dup3\n        /* \"#utility.yul\":9472:9473   */\n      dup3\n        /* \"#utility.yul\":9468:9477   */\n      add\n        /* \"#utility.yul\":9461:9477   */\n      swap1\n      pop\n        /* \"#utility.yul\":9496:9499   */\n      dup1\n        /* \"#utility.yul\":9493:9494   */\n      dup3\n        /* \"#utility.yul\":9490:9500   */\n      gt\n        /* \"#utility.yul\":9487:9523   */\n      iszero\n      tag_369\n      jumpi\n        /* \"#utility.yul\":9503:9521   */\n      tag_370\n      tag_259\n      jump\t// in\n    tag_370:\n        /* \"#utility.yul\":9487:9523   */\n    tag_369:\n        /* \"#utility.yul\":9339:9530   */\n      swap3\n      swap2\n      pop\n      pop\n      jump\t// out\n        /* \"#utility.yul\":9536:9868   */\n    tag_229:\n        /* \"#utility.yul\":9657:9661   */\n      0x00\n        /* \"#utility.yul\":9695:9697   */\n      0x40\n        /* \"#utility.yul\":9684:9693   */\n      dup3\n        /* \"#utility.yul\":9680:9698   */\n      add\n        /* \"#utility.yul\":9672:9698   */\n      swap1\n      pop\n        /* \"#utility.yul\":9708:9779   */\n      tag_372\n        /* \"#utility.yul\":9776:9777   */\n      0x00\n        /* \"#utility.yul\":9765:9774   */\n      dup4\n        /* \"#utility.yul\":9761:9778   */\n      add\n        /* \"#utility.yul\":9752:9758   */\n      dup6\n        /* \"#utility.yul\":9708:9779   */\n      tag_258\n      jump\t// in\n    tag_372:\n        /* \"#utility.yul\":9789:9861   */\n      tag_373\n        /* \"#utility.yul\":9857:9859   */\n      0x20\n        /* \"#utility.yul\":9846:9855   */\n      dup4\n        /* \"#utility.yul\":9842:9860   */\n      add\n        /* \"#utility.yul\":9833:9839   */\n      dup5\n        /* \"#utility.yul\":9789:9861   */\n      tag_254\n      jump\t// in\n    tag_373:\n        /* \"#utility.yul\":9536:9868   */\n      swap4\n      swap3\n      pop\n      pop\n      pop\n      jump\t// out\n\n    auxdata: 0xa2646970667358221220b24bf74e90948f0fb1518fccc763dbecd4167f43b527267a4f0fa6401a73ac9064736f6c634300081e0033\n}\n",
				"bytecode": {
					"linkReferences": {},
					"object": "608060405234801561000f575f5ffd5b50604051611e14380380611e1483398181016040528101906100319190610378565b828281600390816100429190610610565b5080600490816100529190610610565b5050506100675f5f1b8261007060201b60201c565b505050506106df565b5f610081838361016660201b60201c565b61015c57600160055f8581526020019081526020015f205f015f8473ffffffffffffffffffffffffffffffffffffffff1673ffffffffffffffffffffffffffffffffffffffff1681526020019081526020015f205f6101000a81548160ff0219169083151502179055506100f96101ca60201b60201c565b73ffffffffffffffffffffffffffffffffffffffff168273ffffffffffffffffffffffffffffffffffffffff16847f2f8788117e7eff1d82e926ec794901d17c78024a50270940304540a733656f0d60405160405180910390a460019050610160565b5f90505b92915050565b5f60055f8481526020019081526020015f205f015f8373ffffffffffffffffffffffffffffffffffffffff1673ffffffffffffffffffffffffffffffffffffffff1681526020019081526020015f205f9054906101000a900460ff16905092915050565b5f33905090565b5f604051905090565b5f5ffd5b5f5ffd5b5f5ffd5b5f5ffd5b5f601f19601f8301169050919050565b7f4e487b71000000000000000000000000000000000000000000000000000000005f52604160045260245ffd5b610230826101ea565b810181811067ffffffffffffffff8211171561024f5761024e6101fa565b5b80604052505050565b5f6102616101d1565b905061026d8282610227565b919050565b5f67ffffffffffffffff82111561028c5761028b6101fa565b5b610295826101ea565b9050602081019050919050565b8281835e5f83830152505050565b5f6102c26102bd84610272565b610258565b9050828152602081018484840111156102de576102dd6101e6565b5b6102e98482856102a2565b509392505050565b5f82601f830112610305576103046101e2565b5b81516103158482602086016102b0565b91505092915050565b5f73ffffffffffffffffffffffffffffffffffffffff82169050919050565b5f6103478261031e565b9050919050565b6103578161033d565b8114610361575f5ffd5b50565b5f815190506103728161034e565b92915050565b5f5f5f6060848603121561038f5761038e6101da565b5b5f84015167ffffffffffffffff8111156103ac576103ab6101de565b5b6103b8868287016102f1565b935050602084015167ffffffffffffffff8111156103d9576103d86101de565b5b6103e5868287016102f1565b92505060406103f686828701610364565b9150509250925092565b5f81519050919050565b7f4e487b71000000000000000000000000000000000000000000000000000000005f52602260045260245ffd5b5f600282049050600182168061044e57607f821691505b6020821081036104615761046061040a565b5b50919050565b5f819050815f5260205f209050919050565b5f6020601f8301049050919050565b5f82821b905092915050565b5f600883026104c37fffffffffffffffffffffffffffffffffffffffffffffffffffffffffffffffff82610488565b6104cd8683610488565b95508019841693508086168417925050509392505050565b5f819050919050565b5f819050919050565b5f61051161050c610507846104e5565b6104ee565b6104e5565b9050919050565b5f819050919050565b61052a836104f7565b61053e61053682610518565b848454610494565b825550505050565b5f5f905090565b610555610546565b610560818484610521565b505050565b5b81811015610583576105785f8261054d565b600181019050610566565b5050565b601f8211156105c85761059981610467565b6105a284610479565b810160208510156105b1578190505b6105c56105bd85610479565b830182610565565b50505b505050565b5f82821c905092915050565b5f6105e85f19846008026105cd565b1980831691505092915050565b5f61060083836105d9565b9150826002028217905092915050565b61061982610400565b67ffffffffffffffff811115610632576106316101fa565b5b61063c8254610437565b610647828285610587565b5f60209050601f831160018114610678575f8415610666578287015190505b61067085826105f5565b8655506106d7565b601f19841661068686610467565b5f5b828110156106ad57848901518255600182019150602085019450602081019050610688565b868310156106ca57848901516106c6601f8916826105d9565b8355505b6001600288020188555050505b505050505050565b611728806106ec5f395ff3fe608060405234801561000f575f5ffd5b506004361061011f575f3560e01c806340c10f19116100ab5780639dc29fac1161006f5780639dc29fac1461032d578063a217fddf14610349578063a9059cbb14610367578063d547741f14610397578063dd62ed3e146103b35761011f565b806340c10f191461027557806370a082311461029157806372c32860146102c157806391d14854146102df57806395d89b411461030f5761011f565b806323b872dd116100f257806323b872dd146101bf578063248a9ca3146101ef5780632f2ff15d1461021f578063313ce5671461023b57806336568abe146102595761011f565b806301ffc9a71461012357806306fdde0314610153578063095ea7b31461017157806318160ddd146101a1575b5f5ffd5b61013d6004803603810190610138919061121f565b6103e3565b60405161014a9190611264565b60405180910390f35b61015b61045c565b60405161016891906112ed565b60405180910390f35b61018b6004803603810190610186919061139a565b6104ec565b6040516101989190611264565b60405180910390f35b6101a961050e565b6040516101b691906113e7565b60405180910390f35b6101d960048036038101906101d49190611400565b610517565b6040516101e69190611264565b60405180910390f35b61020960048036038101906102049190611483565b610545565b60405161021691906114bd565b60405180910390f35b610239600480360381019061023491906114d6565b610562565b005b610243610584565b604051610250919061152f565b60405180910390f35b610273600480360381019061026e91906114d6565b61058c565b005b61028f600480360381019061028a919061139a565b610607565b005b6102ab60048036038101906102a69190611548565b610640565b6040516102b891906113e7565b60405180910390f35b6102c9610685565b6040516102d691906114bd565b60405180910390f35b6102f960048036038101906102f491906114d6565b6106a9565b6040516103069190611264565b60405180910390f35b61031761070d565b60405161032491906112ed565b60405180910390f35b6103476004803603810190610342919061139a565b61079d565b005b6103516107d6565b60405161035e91906114bd565b60405180910390f35b610381600480360381019061037c919061139a565b6107dc565b60405161038e9190611264565b60405180910390f35b6103b160048036038101906103ac91906114d6565b6107fe565b005b6103cd60048036038101906103c89190611573565b610820565b6040516103da91906113e7565b60405180910390f35b5f7f7965db0b000000000000000000000000000000000000000000000000000000007bffffffffffffffffffffffffffffffffffffffffffffffffffffffff1916827bffffffffffffffffffffffffffffffffffffffffffffffffffffffff191614806104555750610454826108a2565b5b9050919050565b60606003805461046b906115de565b80601f0160208091040260200160405190810160405280929190818152602001828054610497906115de565b80156104e25780601f106104b9576101008083540402835291602001916104e2565b820191905f5260205f20905b8154815290600101906020018083116104c557829003601f168201915b5050505050905090565b5f5f6104f661090b565b9050610503818585610912565b600191505092915050565b5f600254905090565b5f5f61052161090b565b905061052e858285610924565b6105398585856109b7565b60019150509392505050565b5f60055f8381526020019081526020015f20600101549050919050565b61056b82610545565b61057481610aa7565b61057e8383610abb565b50505050565b5f6012905090565b61059461090b565b73ffffffffffffffffffffffffffffffffffffffff168173ffffffffffffffffffffffffffffffffffffffff16146105f8576040517f6697b23200000000000000000000000000000000000000000000000000000000815260040160405180910390fd5b6106028282610ba5565b505050565b7fcfd53186d792f1ec9d0679afc2dc3ffc86fc31fe1e0f342b838eb6c3eade62b361063181610aa7565b61063b8383610c8f565b505050565b5f5f5f8373ffffffffffffffffffffffffffffffffffffffff1673ffffffffffffffffffffffffffffffffffffffff1681526020019081526020015f20549050919050565b7fcfd53186d792f1ec9d0679afc2dc3ffc86fc31fe1e0f342b838eb6c3eade62b381565b5f60055f8481526020019081526020015f205f015f8373ffffffffffffffffffffffffffffffffffffffff1673ffffffffffffffffffffffffffffffffffffffff1681526020019081526020015f205f9054906101000a900460ff16905092915050565b60606004805461071c906115de565b80601f0160208091040260200160405190810160405280929190818152602001828054610748906115de565b80156107935780601f1061076a57610100808354040283529160200191610793565b820191905f5260205f20905b81548152906001019060200180831161077657829003601f168201915b5050505050905090565b7fcfd53186d792f1ec9d0679afc2dc3ffc86fc31fe1e0f342b838eb6c3eade62b36107c781610aa7565b6107d18383610d0e565b505050565b5f5f1b81565b5f5f6107e661090b565b90506107f38185856109b7565b600191505092915050565b61080782610545565b61081081610aa7565b61081a8383610ba5565b50505050565b5f60015f8473ffffffffffffffffffffffffffffffffffffffff1673ffffffffffffffffffffffffffffffffffffffff1681526020019081526020015f205f8373ffffffffffffffffffffffffffffffffffffffff1673ffffffffffffffffffffffffffffffffffffffff1681526020019081526020015f2054905092915050565b5f7f01ffc9a7000000000000000000000000000000000000000000000000000000007bffffffffffffffffffffffffffffffffffffffffffffffffffffffff1916827bffffffffffffffffffffffffffffffffffffffffffffffffffffffff1916149050919050565b5f33905090565b61091f8383836001610d8d565b505050565b5f61092f8484610820565b90507fffffffffffffffffffffffffffffffffffffffffffffffffffffffffffffffff8110156109b157818110156109a2578281836040517ffb8f41b20000000000000000000000000000000000000000000000000000000081526004016109999392919061161d565b60405180910390fd5b6109b084848484035f610d8d565b5b50505050565b5f73ffffffffffffffffffffffffffffffffffffffff168373ffffffffffffffffffffffffffffffffffffffff1603610a27575f6040517f96c6fd1e000000000000000000000000000000000000000000000000000000008152600401610a1e9190611652565b60405180910390fd5b5f73ffffffffffffffffffffffffffffffffffffffff168273ffffffffffffffffffffffffffffffffffffffff1603610a97575f6040517fec442f05000000000000000000000000000000000000000000000000000000008152600401610a8e9190611652565b60405180910390fd5b610aa2838383610f5c565b505050565b610ab881610ab361090b565b611175565b50565b5f610ac683836106a9565b610b9b57600160055f8581526020019081526020015f205f015f8473ffffffffffffffffffffffffffffffffffffffff1673ffffffffffffffffffffffffffffffffffffffff1681526020019081526020015f205f6101000a81548160ff021916908315150217905550610b3861090b565b73ffffffffffffffffffffffffffffffffffffffff168273ffffffffffffffffffffffffffffffffffffffff16847f2f8788117e7eff1d82e926ec794901d17c78024a50270940304540a733656f0d60405160405180910390a460019050610b9f565b5f90505b92915050565b5f610bb083836106a9565b15610c85575f60055f8581526020019081526020015f205f015f8473ffffffffffffffffffffffffffffffffffffffff1673ffffffffffffffffffffffffffffffffffffffff1681526020019081526020015f205f6101000a81548160ff021916908315150217905550610c2261090b565b73ffffffffffffffffffffffffffffffffffffffff168273ffffffffffffffffffffffffffffffffffffffff16847ff6391f5c32d9c69d2a47ea670b442974b53935d1edc7fd64eb21e047a839171b60405160405180910390a460019050610c89565b5f90505b92915050565b5f73ffffffffffffffffffffffffffffffffffffffff168273ffffffffffffffffffffffffffffffffffffffff1603610cff575f6040517fec442f05000000000000000000000000000000000000000000000000000000008152600401610cf69190611652565b60405180910390fd5b610d0a5f8383610f5c565b5050565b5f73ffffffffffffffffffffffffffffffffffffffff168273ffffffffffffffffffffffffffffffffffffffff1603610d7e575f6040517f96c6fd1e000000000000000000000000000000000000000000000000000000008152600401610d759190611652565b60405180910390fd5b610d89825f83610f5c565b5050565b5f73ffffffffffffffffffffffffffffffffffffffff168473ffffffffffffffffffffffffffffffffffffffff1603610dfd575f6040517fe602df05000000000000000000000000000000000000000000000000000000008152600401610df49190611652565b60405180910390fd5b5f73ffffffffffffffffffffffffffffffffffffffff168373ffffffffffffffffffffffffffffffffffffffff1603610e6d575f6040517f94280d62000000000000000000000000000000000000000000000000000000008152600401610e649190611652565b60405180910390fd5b8160015f8673ffffffffffffffffffffffffffffffffffffffff1673ffffffffffffffffffffffffffffffffffffffff1681526020019081526020015f205f8573ffffffffffffffffffffffffffffffffffffffff1673ffffffffffffffffffffffffffffffffffffffff1681526020019081526020015f20819055508015610f56578273ffffffffffffffffffffffffffffffffffffffff168473ffffffffffffffffffffffffffffffffffffffff167f8c5be1e5ebec7d5bd14f71427d1e84f3dd0314c0f7b2291e5b200ac8c7c3b92584604051610f4d91906113e7565b60405180910390a35b50505050565b5f73ffffffffffffffffffffffffffffffffffffffff168373ffffffffffffffffffffffffffffffffffffffff1603610fac578060025f828254610fa09190611698565b9250508190555061107a565b5f5f5f8573ffffffffffffffffffffffffffffffffffffffff1673ffffffffffffffffffffffffffffffffffffffff1681526020019081526020015f2054905081811015611035578381836040517fe450d38c00000000000000000000000000000000000000000000000000000000815260040161102c9392919061161d565b60405180910390fd5b8181035f5f8673ffffffffffffffffffffffffffffffffffffffff1673ffffffffffffffffffffffffffffffffffffffff1681526020019081526020015f2081905550505b5f73ffffffffffffffffffffffffffffffffffffffff168273ffffffffffffffffffffffffffffffffffffffff16036110c1578060025f828254039250508190555061110b565b805f5f8473ffffffffffffffffffffffffffffffffffffffff1673ffffffffffffffffffffffffffffffffffffffff1681526020019081526020015f205f82825401925050819055505b8173ffffffffffffffffffffffffffffffffffffffff168373ffffffffffffffffffffffffffffffffffffffff167fddf252ad1be2c89b69c2b068fc378daa952ba7f163c4a11628f55a4df523b3ef8360405161116891906113e7565b60405180910390a3505050565b61117f82826106a9565b6111c25780826040517fe2517d3f0000000000000000000000000000000000000000000000000000000081526004016111b99291906116cb565b60405180910390fd5b5050565b5f5ffd5b5f7fffffffff0000000000000000000000000000000000000000000000000000000082169050919050565b6111fe816111ca565b8114611208575f5ffd5b50565b5f81359050611219816111f5565b92915050565b5f60208284031215611234576112336111c6565b5b5f6112418482850161120b565b91505092915050565b5f8115159050919050565b61125e8161124a565b82525050565b5f6020820190506112775f830184611255565b92915050565b5f81519050919050565b5f82825260208201905092915050565b8281835e5f83830152505050565b5f601f19601f8301169050919050565b5f6112bf8261127d565b6112c98185611287565b93506112d9818560208601611297565b6112e2816112a5565b840191505092915050565b5f6020820190508181035f83015261130581846112b5565b905092915050565b5f73ffffffffffffffffffffffffffffffffffffffff82169050919050565b5f6113368261130d565b9050919050565b6113468161132c565b8114611350575f5ffd5b50565b5f813590506113618161133d565b92915050565b5f819050919050565b61137981611367565b8114611383575f5ffd5b50565b5f8135905061139481611370565b92915050565b5f5f604083850312156113b0576113af6111c6565b5b5f6113bd85828601611353565b92505060206113ce85828601611386565b9150509250929050565b6113e181611367565b82525050565b5f6020820190506113fa5f8301846113d8565b92915050565b5f5f5f60608486031215611417576114166111c6565b5b5f61142486828701611353565b935050602061143586828701611353565b925050604061144686828701611386565b9150509250925092565b5f819050919050565b61146281611450565b811461146c575f5ffd5b50565b5f8135905061147d81611459565b92915050565b5f60208284031215611498576114976111c6565b5b5f6114a58482850161146f565b91505092915050565b6114b781611450565b82525050565b5f6020820190506114d05f8301846114ae565b92915050565b5f5f604083850312156114ec576114eb6111c6565b5b5f6114f98582860161146f565b925050602061150a85828601611353565b9150509250929050565b5f60ff82169050919050565b61152981611514565b82525050565b5f6020820190506115425f830184611520565b92915050565b5f6020828403121561155d5761155c6111c6565b5b5f61156a84828501611353565b91505092915050565b5f5f60408385031215611589576115886111c6565b5b5f61159685828601611353565b92505060206115a785828601611353565b9150509250929050565b7f4e487b71000000000000000000000000000000000000000000000000000000005f52602260045260245ffd5b5f60028204905060018216806115f557607f821691505b602082108103611608576116076115b1565b5b50919050565b6116178161132c565b82525050565b5f6060820190506116305f83018661160e565b61163d60208301856113d8565b61164a60408301846113d8565b949350505050565b5f6020820190506116655f83018461160e565b92915050565b7f4e487b71000000000000000000000000000000000000000000000000000000005f52601160045260245ffd5b5f6116a282611367565b91506116ad83611367565b92508282019050808211156116c5576116c461166b565b5b92915050565b5f6040820190506116de5f83018561160e565b6116eb60208301846114ae565b939250505056fea2646970667358221220b24bf74e90948f0fb1518fccc763dbecd4167f43b527267a4f0fa6401a73ac9064736f6c634300081e0033",
					"opcodes": "PUSH1 0x80 PUSH1 0x40 MSTORE CALLVALUE DUP1 ISZERO PUSH2 0xF JUMPI PUSH0 PUSH0 REVERT JUMPDEST POP PUSH1 0x40 MLOAD PUSH2 0x1E14 CODESIZE SUB DUP1 PUSH2 0x1E14 DUP4 CODECOPY DUP2 DUP2 ADD PUSH1 0x40 MSTORE DUP2 ADD SWAP1 PUSH2 0x31 SWAP2 SWAP1 PUSH2 0x378 JUMP JUMPDEST DUP3 DUP3 DUP2 PUSH1 0x3 SWAP1 DUP2 PUSH2 0x42 SWAP2 SWAP1 PUSH2 0x610 JUMP JUMPDEST POP DUP1 PUSH1 0x4 SWAP1 DUP2 PUSH2 0x52 SWAP2 SWAP1 PUSH2 0x610 JUMP JUMPDEST POP POP POP PUSH2 0x67 PUSH0 PUSH0 SHL DUP3 PUSH2 0x70 PUSH1 0x20 SHL PUSH1 0x20 SHR JUMP JUMPDEST POP POP POP POP PUSH2 0x6DF JUMP JUMPDEST PUSH0 PUSH2 0x81 DUP4 DUP4 PUSH2 0x166 PUSH1 0x20 SHL PUSH1 0x20 SHR JUMP JUMPDEST PUSH2 0x15C JUMPI PUSH1 0x1 PUSH1 0x5 PUSH0 DUP6 DUP2 MSTORE PUSH1 0x20 ADD SWAP1 DUP2 MSTORE PUSH1 0x20 ADD PUSH0 KECCAK256 PUSH0 ADD PUSH0 DUP5 PUSH20 0xFFFFFFFFFFFFFFFFFFFFFFFFFFFFFFFFFFFFFFFF AND PUSH20 0xFFFFFFFFFFFFFFFFFFFFFFFFFFFFFFFFFFFFFFFF AND DUP2 MSTORE PUSH1 0x20 ADD SWAP1 DUP2 MSTORE PUSH1 0x20 ADD PUSH0 KECCAK256 PUSH0 PUSH2 0x100 EXP DUP2 SLOAD DUP2 PUSH1 0xFF MUL NOT AND SWAP1 DUP4 ISZERO ISZERO MUL OR SWAP1 SSTORE POP PUSH2 0xF9 PUSH2 0x1CA PUSH1 0x20 SHL PUSH1 0x20 SHR JUMP JUMPDEST PUSH20 0xFFFFFFFFFFFFFFFFFFFFFFFFFFFFFFFFFFFFFFFF AND DUP3 PUSH20 0xFFFFFFFFFFFFFFFFFFFFFFFFFFFFFFFFFFFFFFFF AND DUP5 PUSH32 0x2F8788117E7EFF1D82E926EC794901D17C78024A50270940304540A733656F0D PUSH1 0x40 MLOAD PUSH1 0x40 MLOAD DUP1 SWAP2 SUB SWAP1 LOG4 PUSH1 0x1 SWAP1 POP PUSH2 0x160 JUMP JUMPDEST PUSH0 SWAP1 POP JUMPDEST SWAP3 SWAP2 POP POP JUMP JUMPDEST PUSH0 PUSH1 0x5 PUSH0 DUP5 DUP2 MSTORE PUSH1 0x20 ADD SWAP1 DUP2 MSTORE PUSH1 0x20 ADD PUSH0 KECCAK256 PUSH0 ADD PUSH0 DUP4 PUSH20 0xFFFFFFFFFFFFFFFFFFFFFFFFFFFFFFFFFFFFFFFF AND PUSH20 0xFFFFFFFFFFFFFFFFFFFFFFFFFFFFFFFFFFFFFFFF AND DUP2 MSTORE PUSH1 0x20 ADD SWAP1 DUP2 MSTORE PUSH1 0x20 ADD PUSH0 KECCAK256 PUSH0 SWAP1 SLOAD SWAP1 PUSH2 0x100 EXP SWAP1 DIV PUSH1 0xFF AND SWAP1 POP SWAP3 SWAP2 POP POP JUMP JUMPDEST PUSH0 CALLER SWAP1 POP SWAP1 JUMP JUMPDEST PUSH0 PUSH1 0x40 MLOAD SWAP1 POP SWAP1 JUMP JUMPDEST PUSH0 PUSH0 REVERT JUMPDEST PUSH0 PUSH0 REVERT JUMPDEST PUSH0 PUSH0 REVERT JUMPDEST PUSH0 PUSH0 REVERT JUMPDEST PUSH0 PUSH1 0x1F NOT PUSH1 0x1F DUP4 ADD AND SWAP1 POP SWAP2 SWAP1 POP JUMP JUMPDEST PUSH32 0x4E487B7100000000000000000000000000000000000000000000000000000000 PUSH0 MSTORE PUSH1 0x41 PUSH1 0x4 MSTORE PUSH1 0x24 PUSH0 REVERT JUMPDEST PUSH2 0x230 DUP3 PUSH2 0x1EA JUMP JUMPDEST DUP2 ADD DUP2 DUP2 LT PUSH8 0xFFFFFFFFFFFFFFFF DUP3 GT OR ISZERO PUSH2 0x24F JUMPI PUSH2 0x24E PUSH2 0x1FA JUMP JUMPDEST JUMPDEST DUP1 PUSH1 0x40 MSTORE POP POP POP JUMP JUMPDEST PUSH0 PUSH2 0x261 PUSH2 0x1D1 JUMP JUMPDEST SWAP1 POP PUSH2 0x26D DUP3 DUP3 PUSH2 0x227 JUMP JUMPDEST SWAP2 SWAP1 POP JUMP JUMPDEST PUSH0 PUSH8 0xFFFFFFFFFFFFFFFF DUP3 GT ISZERO PUSH2 0x28C JUMPI PUSH2 0x28B PUSH2 0x1FA JUMP JUMPDEST JUMPDEST PUSH2 0x295 DUP3 PUSH2 0x1EA JUMP JUMPDEST SWAP1 POP PUSH1 0x20 DUP2 ADD SWAP1 POP SWAP2 SWAP1 POP JUMP JUMPDEST DUP3 DUP2 DUP4 MCOPY PUSH0 DUP4 DUP4 ADD MSTORE POP POP POP JUMP JUMPDEST PUSH0 PUSH2 0x2C2 PUSH2 0x2BD DUP5 PUSH2 0x272 JUMP JUMPDEST PUSH2 0x258 JUMP JUMPDEST SWAP1 POP DUP3 DUP2 MSTORE PUSH1 0x20 DUP2 ADD DUP5 DUP5 DUP5 ADD GT ISZERO PUSH2 0x2DE JUMPI PUSH2 0x2DD PUSH2 0x1E6 JUMP JUMPDEST JUMPDEST PUSH2 0x2E9 DUP5 DUP3 DUP6 PUSH2 0x2A2 JUMP JUMPDEST POP SWAP4 SWAP3 POP POP POP JUMP JUMPDEST PUSH0 DUP3 PUSH1 0x1F DUP4 ADD SLT PUSH2 0x305 JUMPI PUSH2 0x304 PUSH2 0x1E2 JUMP JUMPDEST JUMPDEST DUP2 MLOAD PUSH2 0x315 DUP5 DUP3 PUSH1 0x20 DUP7 ADD PUSH2 0x2B0 JUMP JUMPDEST SWAP2 POP POP SWAP3 SWAP2 POP POP JUMP JUMPDEST PUSH0 PUSH20 0xFFFFFFFFFFFFFFFFFFFFFFFFFFFFFFFFFFFFFFFF DUP3 AND SWAP1 POP SWAP2 SWAP1 POP JUMP JUMPDEST PUSH0 PUSH2 0x347 DUP3 PUSH2 0x31E JUMP JUMPDEST SWAP1 POP SWAP2 SWAP1 POP JUMP JUMPDEST PUSH2 0x357 DUP2 PUSH2 0x33D JUMP JUMPDEST DUP2 EQ PUSH2 0x361 JUMPI PUSH0 PUSH0 REVERT JUMPDEST POP JUMP JUMPDEST PUSH0 DUP2 MLOAD SWAP1 POP PUSH2 0x372 DUP2 PUSH2 0x34E JUMP JUMPDEST SWAP3 SWAP2 POP POP JUMP JUMPDEST PUSH0 PUSH0 PUSH0 PUSH1 0x60 DUP5 DUP7 SUB SLT ISZERO PUSH2 0x38F JUMPI PUSH2 0x38E PUSH2 0x1DA JUMP JUMPDEST JUMPDEST PUSH0 DUP5 ADD MLOAD PUSH8 0xFFFFFFFFFFFFFFFF DUP2 GT ISZERO PUSH2 0x3AC JUMPI PUSH2 0x3AB PUSH2 0x1DE JUMP JUMPDEST JUMPDEST PUSH2 0x3B8 DUP7 DUP3 DUP8 ADD PUSH2 0x2F1 JUMP JUMPDEST SWAP4 POP POP PUSH1 0x20 DUP5 ADD MLOAD PUSH8 0xFFFFFFFFFFFFFFFF DUP2 GT ISZERO PUSH2 0x3D9 JUMPI PUSH2 0x3D8 PUSH2 0x1DE JUMP JUMPDEST JUMPDEST PUSH2 0x3E5 DUP7 DUP3 DUP8 ADD PUSH2 0x2F1 JUMP JUMPDEST SWAP3 POP POP PUSH1 0x40 PUSH2 0x3F6 DUP7 DUP3 DUP8 ADD PUSH2 0x364 JUMP JUMPDEST SWAP2 POP POP SWAP3 POP SWAP3 POP SWAP3 JUMP JUMPDEST PUSH0 DUP2 MLOAD SWAP1 POP SWAP2 SWAP1 POP JUMP JUMPDEST PUSH32 0x4E487B7100000000000000000000000000000000000000000000000000000000 PUSH0 MSTORE PUSH1 0x22 PUSH1 0x4 MSTORE PUSH1 0x24 PUSH0 REVERT JUMPDEST PUSH0 PUSH1 0x2 DUP3 DIV SWAP1 POP PUSH1 0x1 DUP3 AND DUP1 PUSH2 0x44E JUMPI PUSH1 0x7F DUP3 AND SWAP2 POP JUMPDEST PUSH1 0x20 DUP3 LT DUP2 SUB PUSH2 0x461 JUMPI PUSH2 0x460 PUSH2 0x40A JUMP JUMPDEST JUMPDEST POP SWAP2 SWAP1 POP JUMP JUMPDEST PUSH0 DUP2 SWAP1 POP DUP2 PUSH0 MSTORE PUSH1 0x20 PUSH0 KECCAK256 SWAP1 POP SWAP2 SWAP1 POP JUMP JUMPDEST PUSH0 PUSH1 0x20 PUSH1 0x1F DUP4 ADD DIV SWAP1 POP SWAP2 SWAP1 POP JUMP JUMPDEST PUSH0 DUP3 DUP3 SHL SWAP1 POP SWAP3 SWAP2 POP POP JUMP JUMPDEST PUSH0 PUSH1 0x8 DUP4 MUL PUSH2 0x4C3 PUSH32 0xFFFFFFFFFFFFFFFFFFFFFFFFFFFFFFFFFFFFFFFFFFFFFFFFFFFFFFFFFFFFFFFF DUP3 PUSH2 0x488 JUMP JUMPDEST PUSH2 0x4CD DUP7 DUP4 PUSH2 0x488 JUMP JUMPDEST SWAP6 POP DUP1 NOT DUP5 AND SWAP4 POP DUP1 DUP7 AND DUP5 OR SWAP3 POP POP POP SWAP4 SWAP3 POP POP POP JUMP JUMPDEST PUSH0 DUP2 SWAP1 POP SWAP2 SWAP1 POP JUMP JUMPDEST PUSH0 DUP2 SWAP1 POP SWAP2 SWAP1 POP JUMP JUMPDEST PUSH0 PUSH2 0x511 PUSH2 0x50C PUSH2 0x507 DUP5 PUSH2 0x4E5 JUMP JUMPDEST PUSH2 0x4EE JUMP JUMPDEST PUSH2 0x4E5 JUMP JUMPDEST SWAP1 POP SWAP2 SWAP1 POP JUMP JUMPDEST PUSH0 DUP2 SWAP1 POP SWAP2 SWAP1 POP JUMP JUMPDEST PUSH2 0x52A DUP4 PUSH2 0x4F7 JUMP JUMPDEST PUSH2 0x53E PUSH2 0x536 DUP3 PUSH2 0x518 JUMP JUMPDEST DUP5 DUP5 SLOAD PUSH2 0x494 JUMP JUMPDEST DUP3 SSTORE POP POP POP POP JUMP JUMPDEST PUSH0 PUSH0 SWAP1 POP SWAP1 JUMP JUMPDEST PUSH2 0x555 PUSH2 0x546 JUMP JUMPDEST PUSH2 0x560 DUP2 DUP5 DUP5 PUSH2 0x521 JUMP JUMPDEST POP POP POP JUMP JUMPDEST JUMPDEST DUP2 DUP2 LT ISZERO PUSH2 0x583 JUMPI PUSH2 0x578 PUSH0 DUP3 PUSH2 0x54D JUMP JUMPDEST PUSH1 0x1 DUP2 ADD SWAP1 POP PUSH2 0x566 JUMP JUMPDEST POP POP JUMP JUMPDEST PUSH1 0x1F DUP3 GT ISZERO PUSH2 0x5C8 JUMPI PUSH2 0x599 DUP2 PUSH2 0x467 JUMP JUMPDEST PUSH2 0x5A2 DUP5 PUSH2 0x479 JUMP JUMPDEST DUP2 ADD PUSH1 0x20 DUP6 LT ISZERO PUSH2 0x5B1 JUMPI DUP2 SWAP1 POP JUMPDEST PUSH2 0x5C5 PUSH2 0x5BD DUP6 PUSH2 0x479 JUMP JUMPDEST DUP4 ADD DUP3 PUSH2 0x565 JUMP JUMPDEST POP POP JUMPDEST POP POP POP JUMP JUMPDEST PUSH0 DUP3 DUP3 SHR SWAP1 POP SWAP3 SWAP2 POP POP JUMP JUMPDEST PUSH0 PUSH2 0x5E8 PUSH0 NOT DUP5 PUSH1 0x8 MUL PUSH2 0x5CD JUMP JUMPDEST NOT DUP1 DUP4 AND SWAP2 POP POP SWAP3 SWAP2 POP POP JUMP JUMPDEST PUSH0 PUSH2 0x600 DUP4 DUP4 PUSH2 0x5D9 JUMP JUMPDEST SWAP2 POP DUP3 PUSH1 0x2 MUL DUP3 OR SWAP1 POP SWAP3 SWAP2 POP POP JUMP JUMPDEST PUSH2 0x619 DUP3 PUSH2 0x400 JUMP JUMPDEST PUSH8 0xFFFFFFFFFFFFFFFF DUP2 GT ISZERO PUSH2 0x632 JUMPI PUSH2 0x631 PUSH2 0x1FA JUMP JUMPDEST JUMPDEST PUSH2 0x63C DUP3 SLOAD PUSH2 0x437 JUMP JUMPDEST PUSH2 0x647 DUP3 DUP3 DUP6 PUSH2 0x587 JUMP JUMPDEST PUSH0 PUSH1 0x20 SWAP1 POP PUSH1 0x1F DUP4 GT PUSH1 0x1 DUP2 EQ PUSH2 0x678 JUMPI PUSH0 DUP5 ISZERO PUSH2 0x666 JUMPI DUP3 DUP8 ADD MLOAD SWAP1 POP JUMPDEST PUSH2 0x670 DUP6 DUP3 PUSH2 0x5F5 JUMP JUMPDEST DUP7 SSTORE POP PUSH2 0x6D7 JUMP JUMPDEST PUSH1 0x1F NOT DUP5 AND PUSH2 0x686 DUP7 PUSH2 0x467 JUMP JUMPDEST PUSH0 JUMPDEST DUP3 DUP2 LT ISZERO PUSH2 0x6AD JUMPI DUP5 DUP10 ADD MLOAD DUP3 SSTORE PUSH1 0x1 DUP3 ADD SWAP2 POP PUSH1 0x20 DUP6 ADD SWAP5 POP PUSH1 0x20 DUP2 ADD SWAP1 POP PUSH2 0x688 JUMP JUMPDEST DUP7 DUP4 LT ISZERO PUSH2 0x6CA JUMPI DUP5 DUP10 ADD MLOAD PUSH2 0x6C6 PUSH1 0x1F DUP10 AND DUP3 PUSH2 0x5D9 JUMP JUMPDEST DUP4 SSTORE POP JUMPDEST PUSH1 0x1 PUSH1 0x2 DUP9 MUL ADD DUP9 SSTORE POP POP POP JUMPDEST POP POP POP POP POP POP JUMP JUMPDEST PUSH2 0x1728 DUP1 PUSH2 0x6EC PUSH0 CODECOPY PUSH0 RETURN INVALID PUSH1 0x80 PUSH1 0x40 MSTORE CALLVALUE DUP1 ISZERO PUSH2 0xF JUMPI PUSH0 PUSH0 REVERT JUMPDEST POP PUSH1 0x4 CALLDATASIZE LT PUSH2 0x11F JUMPI PUSH0 CALLDATALOAD PUSH1 0xE0 SHR DUP1 PUSH4 0x40C10F19 GT PUSH2 0xAB JUMPI DUP1 PUSH4 0x9DC29FAC GT PUSH2 0x6F JUMPI DUP1 PUSH4 0x9DC29FAC EQ PUSH2 0x32D JUMPI DUP1 PUSH4 0xA217FDDF EQ PUSH2 0x349 JUMPI DUP1 PUSH4 0xA9059CBB EQ PUSH2 0x367 JUMPI DUP1 PUSH4 0xD547741F EQ PUSH2 0x397 JUMPI DUP1 PUSH4 0xDD62ED3E EQ PUSH2 0x3B3 JUMPI PUSH2 0x11F JUMP JUMPDEST DUP1 PUSH4 0x40C10F19 EQ PUSH2 0x275 JUMPI DUP1 PUSH4 0x70A08231 EQ PUSH2 0x291 JUMPI DUP1 PUSH4 0x72C32860 EQ PUSH2 0x2C1 JUMPI DUP1 PUSH4 0x91D14854 EQ PUSH2 0x2DF JUMPI DUP1 PUSH4 0x95D89B41 EQ PUSH2 0x30F JUMPI PUSH2 0x11F JUMP JUMPDEST DUP1 PUSH4 0x23B872DD GT PUSH2 0xF2 JUMPI DUP1 PUSH4 0x23B872DD EQ PUSH2 0x1BF JUMPI DUP1 PUSH4 0x248A9CA3 EQ PUSH2 0x1EF JUMPI DUP1 PUSH4 0x2F2FF15D EQ PUSH2 0x21F JUMPI DUP1 PUSH4 0x313CE567 EQ PUSH2 0x23B JUMPI DUP1 PUSH4 0x36568ABE EQ PUSH2 0x259 JUMPI PUSH2 0x11F JUMP JUMPDEST DUP1 PUSH4 0x1FFC9A7 EQ PUSH2 0x123 JUMPI DUP1 PUSH4 0x6FDDE03 EQ PUSH2 0x153 JUMPI DUP1 PUSH4 0x95EA7B3 EQ PUSH2 0x171 JUMPI DUP1 PUSH4 0x18160DDD EQ PUSH2 0x1A1 JUMPI JUMPDEST PUSH0 PUSH0 REVERT JUMPDEST PUSH2 0x13D PUSH1 0x4 DUP1 CALLDATASIZE SUB DUP2 ADD SWAP1 PUSH2 0x138 SWAP2 SWAP1 PUSH2 0x121F JUMP JUMPDEST PUSH2 0x3E3 JUMP JUMPDEST PUSH1 0x40 MLOAD PUSH2 0x14A SWAP2 SWAP1 PUSH2 0x1264 JUMP JUMPDEST PUSH1 0x40 MLOAD DUP1 SWAP2 SUB SWAP1 RETURN JUMPDEST PUSH2 0x15B PUSH2 0x45C JUMP JUMPDEST PUSH1 0x40 MLOAD PUSH2 0x168 SWAP2 SWAP1 PUSH2 0x12ED JUMP JUMPDEST PUSH1 0x40 MLOAD DUP1 SWAP2 SUB SWAP1 RETURN JUMPDEST PUSH2 0x18B PUSH1 0x4 DUP1 CALLDATASIZE SUB DUP2 ADD SWAP1 PUSH2 0x186 SWAP2 SWAP1 PUSH2 0x139A JUMP JUMPDEST PUSH2 0x4EC JUMP JUMPDEST PUSH1 0x40 MLOAD PUSH2 0x198 SWAP2 SWAP1 PUSH2 0x1264 JUMP JUMPDEST PUSH1 0x40 MLOAD DUP1 SWAP2 SUB SWAP1 RETURN JUMPDEST PUSH2 0x1A9 PUSH2 0x50E JUMP JUMPDEST PUSH1 0x40 MLOAD PUSH2 0x1B6 SWAP2 SWAP1 PUSH2 0x13E7 JUMP JUMPDEST PUSH1 0x40 MLOAD DUP1 SWAP2 SUB SWAP1 RETURN JUMPDEST PUSH2 0x1D9 PUSH1 0x4 DUP1 CALLDATASIZE SUB DUP2 ADD SWAP1 PUSH2 0x1D4 SWAP2 SWAP1 PUSH2 0x1400 JUMP JUMPDEST PUSH2 0x517 JUMP JUMPDEST PUSH1 0x40 MLOAD PUSH2 0x1E6 SWAP2 SWAP1 PUSH2 0x1264 JUMP JUMPDEST PUSH1 0x40 MLOAD DUP1 SWAP2 SUB SWAP1 RETURN JUMPDEST PUSH2 0x209 PUSH1 0x4 DUP1 CALLDATASIZE SUB DUP2 ADD SWAP1 PUSH2 0x204 SWAP2 SWAP1 PUSH2 0x1483 JUMP JUMPDEST PUSH2 0x545 JUMP JUMPDEST PUSH1 0x40 MLOAD PUSH2 0x216 SWAP2 SWAP1 PUSH2 0x14BD JUMP JUMPDEST PUSH1 0x40 MLOAD DUP1 SWAP2 SUB SWAP1 RETURN JUMPDEST PUSH2 0x239 PUSH1 0x4 DUP1 CALLDATASIZE SUB DUP2 ADD SWAP1 PUSH2 0x234 SWAP2 SWAP1 PUSH2 0x14D6 JUMP JUMPDEST PUSH2 0x562 JUMP JUMPDEST STOP JUMPDEST PUSH2 0x243 PUSH2 0x584 JUMP JUMPDEST PUSH1 0x40 MLOAD PUSH2 0x250 SWAP2 SWAP1 PUSH2 0x152F JUMP JUMPDEST PUSH1 0x40 MLOAD DUP1 SWAP2 SUB SWAP1 RETURN JUMPDEST PUSH2 0x273 PUSH1 0x4 DUP1 CALLDATASIZE SUB DUP2 ADD SWAP1 PUSH2 0x26E SWAP2 SWAP1 PUSH2 0x14D6 JUMP JUMPDEST PUSH2 0x58C JUMP JUMPDEST STOP JUMPDEST PUSH2 0x28F PUSH1 0x4 DUP1 CALLDATASIZE SUB DUP2 ADD SWAP1 PUSH2 0x28A SWAP2 SWAP1 PUSH2 0x139A JUMP JUMPDEST PUSH2 0x607 JUMP JUMPDEST STOP JUMPDEST PUSH2 0x2AB PUSH1 0x4 DUP1 CALLDATASIZE SUB DUP2 ADD SWAP1 PUSH2 0x2A6 SWAP2 SWAP1 PUSH2 0x1548 JUMP JUMPDEST PUSH2 0x640 JUMP JUMPDEST PUSH1 0x40 MLOAD PUSH2 0x2B8 SWAP2 SWAP1 PUSH2 0x13E7 JUMP JUMPDEST PUSH1 0x40 MLOAD DUP1 SWAP2 SUB SWAP1 RETURN JUMPDEST PUSH2 0x2C9 PUSH2 0x685 JUMP JUMPDEST PUSH1 0x40 MLOAD PUSH2 0x2D6 SWAP2 SWAP1 PUSH2 0x14BD JUMP JUMPDEST PUSH1 0x40 MLOAD DUP1 SWAP2 SUB SWAP1 RETURN JUMPDEST PUSH2 0x2F9 PUSH1 0x4 DUP1 CALLDATASIZE SUB DUP2 ADD SWAP1 PUSH2 0x2F4 SWAP2 SWAP1 PUSH2 0x14D6 JUMP JUMPDEST PUSH2 0x6A9 JUMP JUMPDEST PUSH1 0x40 MLOAD PUSH2 0x306 SWAP2 SWAP1 PUSH2 0x1264 JUMP JUMPDEST PUSH1 0x40 MLOAD DUP1 SWAP2 SUB SWAP1 RETURN JUMPDEST PUSH2 0x317 PUSH2 0x70D JUMP JUMPDEST PUSH1 0x40 MLOAD PUSH2 0x324 SWAP2 SWAP1 PUSH2 0x12ED JUMP JUMPDEST PUSH1 0x40 MLOAD DUP1 SWAP2 SUB SWAP1 RETURN JUMPDEST PUSH2 0x347 PUSH1 0x4 DUP1 CALLDATASIZE SUB DUP2 ADD SWAP1 PUSH2 0x342 SWAP2 SWAP1 PUSH2 0x139A JUMP JUMPDEST PUSH2 0x79D JUMP JUMPDEST STOP JUMPDEST PUSH2 0x351 PUSH2 0x7D6 JUMP JUMPDEST PUSH1 0x40 MLOAD PUSH2 0x35E SWAP2 SWAP1 PUSH2 0x14BD JUMP JUMPDEST PUSH1 0x40 MLOAD DUP1 SWAP2 SUB SWAP1 RETURN JUMPDEST PUSH2 0x381 PUSH1 0x4 DUP1 CALLDATASIZE SUB DUP2 ADD SWAP1 PUSH2 0x37C SWAP2 SWAP1 PUSH2 0x139A JUMP JUMPDEST PUSH2 0x7DC JUMP JUMPDEST PUSH1 0x40 MLOAD PUSH2 0x38E SWAP2 SWAP1 PUSH2 0x1264 JUMP JUMPDEST PUSH1 0x40 MLOAD DUP1 SWAP2 SUB SWAP1 RETURN JUMPDEST PUSH2 0x3B1 PUSH1 0x4 DUP1 CALLDATASIZE SUB DUP2 ADD SWAP1 PUSH2 0x3AC SWAP2 SWAP1 PUSH2 0x14D6 JUMP JUMPDEST PUSH2 0x7FE JUMP JUMPDEST STOP JUMPDEST PUSH2 0x3CD PUSH1 0x4 DUP1 CALLDATASIZE SUB DUP2 ADD SWAP1 PUSH2 0x3C8 SWAP2 SWAP1 PUSH2 0x1573 JUMP JUMPDEST PUSH2 0x820 JUMP JUMPDEST PUSH1 0x40 MLOAD PUSH2 0x3DA SWAP2 SWAP1 PUSH2 0x13E7 JUMP JUMPDEST PUSH1 0x40 MLOAD DUP1 SWAP2 SUB SWAP1 RETURN JUMPDEST PUSH0 PUSH32 0x7965DB0B00000000000000000000000000000000000000000000000000000000 PUSH28 0xFFFFFFFFFFFFFFFFFFFFFFFFFFFFFFFFFFFFFFFFFFFFFFFFFFFFFFFF NOT AND DUP3 PUSH28 0xFFFFFFFFFFFFFFFFFFFFFFFFFFFFFFFFFFFFFFFFFFFFFFFFFFFFFFFF NOT AND EQ DUP1 PUSH2 0x455 JUMPI POP PUSH2 0x454 DUP3 PUSH2 0x8A2 JUMP JUMPDEST JUMPDEST SWAP1 POP SWAP2 SWAP1 POP JUMP JUMPDEST PUSH1 0x60 PUSH1 0x3 DUP1 SLOAD PUSH2 0x46B SWAP1 PUSH2 0x15DE JUMP JUMPDEST DUP1 PUSH1 0x1F ADD PUSH1 0x20 DUP1 SWAP2 DIV MUL PUSH1 0x20 ADD PUSH1 0x40 MLOAD SWAP1 DUP2 ADD PUSH1 0x40 MSTORE DUP1 SWAP3 SWAP2 SWAP1 DUP2 DUP2 MSTORE PUSH1 0x20 ADD DUP3 DUP1 SLOAD PUSH2 0x497 SWAP1 PUSH2 0x15DE JUMP JUMPDEST DUP1 ISZERO PUSH2 0x4E2 JUMPI DUP1 PUSH1 0x1F LT PUSH2 0x4B9 JUMPI PUSH2 0x100 DUP1 DUP4 SLOAD DIV MUL DUP4 MSTORE SWAP2 PUSH1 0x20 ADD SWAP2 PUSH2 0x4E2 JUMP JUMPDEST DUP3 ADD SWAP2 SWAP1 PUSH0 MSTORE PUSH1 0x20 PUSH0 KECCAK256 SWAP1 JUMPDEST DUP2 SLOAD DUP2 MSTORE SWAP1 PUSH1 0x1 ADD SWAP1 PUSH1 0x20 ADD DUP1 DUP4 GT PUSH2 0x4C5 JUMPI DUP3 SWAP1 SUB PUSH1 0x1F AND DUP3 ADD SWAP2 JUMPDEST POP POP POP POP POP SWAP1 POP SWAP1 JUMP JUMPDEST PUSH0 PUSH0 PUSH2 0x4F6 PUSH2 0x90B JUMP JUMPDEST SWAP1 POP PUSH2 0x503 DUP2 DUP6 DUP6 PUSH2 0x912 JUMP JUMPDEST PUSH1 0x1 SWAP2 POP POP SWAP3 SWAP2 POP POP JUMP JUMPDEST PUSH0 PUSH1 0x2 SLOAD SWAP1 POP SWAP1 JUMP JUMPDEST PUSH0 PUSH0 PUSH2 0x521 PUSH2 0x90B JUMP JUMPDEST SWAP1 POP PUSH2 0x52E DUP6 DUP3 DUP6 PUSH2 0x924 JUMP JUMPDEST PUSH2 0x539 DUP6 DUP6 DUP6 PUSH2 0x9B7 JUMP JUMPDEST PUSH1 0x1 SWAP2 POP POP SWAP4 SWAP3 POP POP POP JUMP JUMPDEST PUSH0 PUSH1 0x5 PUSH0 DUP4 DUP2 MSTORE PUSH1 0x20 ADD SWAP1 DUP2 MSTORE PUSH1 0x20 ADD PUSH0 KECCAK256 PUSH1 0x1 ADD SLOAD SWAP1 POP SWAP2 SWAP1 POP JUMP JUMPDEST PUSH2 0x56B DUP3 PUSH2 0x545 JUMP JUMPDEST PUSH2 0x574 DUP2 PUSH2 0xAA7 JUMP JUMPDEST PUSH2 0x57E DUP4 DUP4 PUSH2 0xABB JUMP JUMPDEST POP POP POP POP JUMP JUMPDEST PUSH0 PUSH1 0x12 SWAP1 POP SWAP1 JUMP JUMPDEST PUSH2 0x594 PUSH2 0x90B JUMP JUMPDEST PUSH20 0xFFFFFFFFFFFFFFFFFFFFFFFFFFFFFFFFFFFFFFFF AND DUP2 PUSH20 0xFFFFFFFFFFFFFFFFFFFFFFFFFFFFFFFFFFFFFFFF AND EQ PUSH2 0x5F8 JUMPI PUSH1 0x40 MLOAD PUSH32 0x6697B23200000000000000000000000000000000000000000000000000000000 DUP2 MSTORE PUSH1 0x4 ADD PUSH1 0x40 MLOAD DUP1 SWAP2 SUB SWAP1 REVERT JUMPDEST PUSH2 0x602 DUP3 DUP3 PUSH2 0xBA5 JUMP JUMPDEST POP POP POP JUMP JUMPDEST PUSH32 0xCFD53186D792F1EC9D0679AFC2DC3FFC86FC31FE1E0F342B838EB6C3EADE62B3 PUSH2 0x631 DUP2 PUSH2 0xAA7 JUMP JUMPDEST PUSH2 0x63B DUP4 DUP4 PUSH2 0xC8F JUMP JUMPDEST POP POP POP JUMP JUMPDEST PUSH0 PUSH0 PUSH0 DUP4 PUSH20 0xFFFFFFFFFFFFFFFFFFFFFFFFFFFFFFFFFFFFFFFF AND PUSH20 0xFFFFFFFFFFFFFFFFFFFFFFFFFFFFFFFFFFFFFFFF AND DUP2 MSTORE PUSH1 0x20 ADD SWAP1 DUP2 MSTORE PUSH1 0x20 ADD PUSH0 KECCAK256 SLOAD SWAP1 POP SWAP2 SWAP1 POP JUMP JUMPDEST PUSH32 0xCFD53186D792F1EC9D0679AFC2DC3FFC86FC31FE1E0F342B838EB6C3EADE62B3 DUP2 JUMP JUMPDEST PUSH0 PUSH1 0x5 PUSH0 DUP5 DUP2 MSTORE PUSH1 0x20 ADD SWAP1 DUP2 MSTORE PUSH1 0x20 ADD PUSH0 KECCAK256 PUSH0 ADD PUSH0 DUP4 PUSH20 0xFFFFFFFFFFFFFFFFFFFFFFFFFFFFFFFFFFFFFFFF AND PUSH20 0xFFFFFFFFFFFFFFFFFFFFFFFFFFFFFFFFFFFFFFFF AND DUP2 MSTORE PUSH1 0x20 ADD SWAP1 DUP2 MSTORE PUSH1 0x20 ADD PUSH0 KECCAK256 PUSH0 SWAP1 SLOAD SWAP1 PUSH2 0x100 EXP SWAP1 DIV PUSH1 0xFF AND SWAP1 POP SWAP3 SWAP2 POP POP JUMP JUMPDEST PUSH1 0x60 PUSH1 0x4 DUP1 SLOAD PUSH2 0x71C SWAP1 PUSH2 0x15DE JUMP JUMPDEST DUP1 PUSH1 0x1F ADD PUSH1 0x20 DUP1 SWAP2 DIV MUL PUSH1 0x20 ADD PUSH1 0x40 MLOAD SWAP1 DUP2 ADD PUSH1 0x40 MSTORE DUP1 SWAP3 SWAP2 SWAP1 DUP2 DUP2 MSTORE PUSH1 0x20 ADD DUP3 DUP1 SLOAD PUSH2 0x748 SWAP1 PUSH2 0x15DE JUMP JUMPDEST DUP1 ISZERO PUSH2 0x793 JUMPI DUP1 PUSH1 0x1F LT PUSH2 0x76A JUMPI PUSH2 0x100 DUP1 DUP4 SLOAD DIV MUL DUP4 MSTORE SWAP2 PUSH1 0x20 ADD SWAP2 PUSH2 0x793 JUMP JUMPDEST DUP3 ADD SWAP2 SWAP1 PUSH0 MSTORE PUSH1 0x20 PUSH0 KECCAK256 SWAP1 JUMPDEST DUP2 SLOAD DUP2 MSTORE SWAP1 PUSH1 0x1 ADD SWAP1 PUSH1 0x20 ADD DUP1 DUP4 GT PUSH2 0x776 JUMPI DUP3 SWAP1 SUB PUSH1 0x1F AND DUP3 ADD SWAP2 JUMPDEST POP POP POP POP POP SWAP1 POP SWAP1 JUMP JUMPDEST PUSH32 0xCFD53186D792F1EC9D0679AFC2DC3FFC86FC31FE1E0F342B838EB6C3EADE62B3 PUSH2 0x7C7 DUP2 PUSH2 0xAA7 JUMP JUMPDEST PUSH2 0x7D1 DUP4 DUP4 PUSH2 0xD0E JUMP JUMPDEST POP POP POP JUMP JUMPDEST PUSH0 PUSH0 SHL DUP2 JUMP JUMPDEST PUSH0 PUSH0 PUSH2 0x7E6 PUSH2 0x90B JUMP JUMPDEST SWAP1 POP PUSH2 0x7F3 DUP2 DUP6 DUP6 PUSH2 0x9B7 JUMP JUMPDEST PUSH1 0x1 SWAP2 POP POP SWAP3 SWAP2 POP POP JUMP JUMPDEST PUSH2 0x807 DUP3 PUSH2 0x545 JUMP JUMPDEST PUSH2 0x810 DUP2 PUSH2 0xAA7 JUMP JUMPDEST PUSH2 0x81A DUP4 DUP4 PUSH2 0xBA5 JUMP JUMPDEST POP POP POP POP JUMP JUMPDEST PUSH0 PUSH1 0x1 PUSH0 DUP5 PUSH20 0xFFFFFFFFFFFFFFFFFFFFFFFFFFFFFFFFFFFFFFFF AND PUSH20 0xFFFFFFFFFFFFFFFFFFFFFFFFFFFFFFFFFFFFFFFF AND DUP2 MSTORE PUSH1 0x20 ADD SWAP1 DUP2 MSTORE PUSH1 0x20 ADD PUSH0 KECCAK256 PUSH0 DUP4 PUSH20 0xFFFFFFFFFFFFFFFFFFFFFFFFFFFFFFFFFFFFFFFF AND PUSH20 0xFFFFFFFFFFFFFFFFFFFFFFFFFFFFFFFFFFFFFFFF AND DUP2 MSTORE PUSH1 0x20 ADD SWAP1 DUP2 MSTORE PUSH1 0x20 ADD PUSH0 KECCAK256 SLOAD SWAP1 POP SWAP3 SWAP2 POP POP JUMP JUMPDEST PUSH0 PUSH32 0x1FFC9A700000000000000000000000000000000000000000000000000000000 PUSH28 0xFFFFFFFFFFFFFFFFFFFFFFFFFFFFFFFFFFFFFFFFFFFFFFFFFFFFFFFF NOT AND DUP3 PUSH28 0xFFFFFFFFFFFFFFFFFFFFFFFFFFFFFFFFFFFFFFFFFFFFFFFFFFFFFFFF NOT AND EQ SWAP1 POP SWAP2 SWAP1 POP JUMP JUMPDEST PUSH0 CALLER SWAP1 POP SWAP1 JUMP JUMPDEST PUSH2 0x91F DUP4 DUP4 DUP4 PUSH1 0x1 PUSH2 0xD8D JUMP JUMPDEST POP POP POP JUMP JUMPDEST PUSH0 PUSH2 0x92F DUP5 DUP5 PUSH2 0x820 JUMP JUMPDEST SWAP1 POP PUSH32 0xFFFFFFFFFFFFFFFFFFFFFFFFFFFFFFFFFFFFFFFFFFFFFFFFFFFFFFFFFFFFFFFF DUP2 LT ISZERO PUSH2 0x9B1 JUMPI DUP2 DUP2 LT ISZERO PUSH2 0x9A2 JUMPI DUP3 DUP2 DUP4 PUSH1 0x40 MLOAD PUSH32 0xFB8F41B200000000000000000000000000000000000000000000000000000000 DUP2 MSTORE PUSH1 0x4 ADD PUSH2 0x999 SWAP4 SWAP3 SWAP2 SWAP1 PUSH2 0x161D JUMP JUMPDEST PUSH1 0x40 MLOAD DUP1 SWAP2 SUB SWAP1 REVERT JUMPDEST PUSH2 0x9B0 DUP5 DUP5 DUP5 DUP5 SUB PUSH0 PUSH2 0xD8D JUMP JUMPDEST JUMPDEST POP POP POP POP JUMP JUMPDEST PUSH0 PUSH20 0xFFFFFFFFFFFFFFFFFFFFFFFFFFFFFFFFFFFFFFFF AND DUP4 PUSH20 0xFFFFFFFFFFFFFFFFFFFFFFFFFFFFFFFFFFFFFFFF AND SUB PUSH2 0xA27 JUMPI PUSH0 PUSH1 0x40 MLOAD PUSH32 0x96C6FD1E00000000000000000000000000000000000000000000000000000000 DUP2 MSTORE PUSH1 0x4 ADD PUSH2 0xA1E SWAP2 SWAP1 PUSH2 0x1652 JUMP JUMPDEST PUSH1 0x40 MLOAD DUP1 SWAP2 SUB SWAP1 REVERT JUMPDEST PUSH0 PUSH20 0xFFFFFFFFFFFFFFFFFFFFFFFFFFFFFFFFFFFFFFFF AND DUP3 PUSH20 0xFFFFFFFFFFFFFFFFFFFFFFFFFFFFFFFFFFFFFFFF AND SUB PUSH2 0xA97 JUMPI PUSH0 PUSH1 0x40 MLOAD PUSH32 0xEC442F0500000000000000000000000000000000000000000000000000000000 DUP2 MSTORE PUSH1 0x4 ADD PUSH2 0xA8E SWAP2 SWAP1 PUSH2 0x1652 JUMP JUMPDEST PUSH1 0x40 MLOAD DUP1 SWAP2 SUB SWAP1 REVERT JUMPDEST PUSH2 0xAA2 DUP4 DUP4 DUP4 PUSH2 0xF5C JUMP JUMPDEST POP POP POP JUMP JUMPDEST PUSH2 0xAB8 DUP2 PUSH2 0xAB3 PUSH2 0x90B JUMP JUMPDEST PUSH2 0x1175 JUMP JUMPDEST POP JUMP JUMPDEST PUSH0 PUSH2 0xAC6 DUP4 DUP4 PUSH2 0x6A9 JUMP JUMPDEST PUSH2 0xB9B JUMPI PUSH1 0x1 PUSH1 0x5 PUSH0 DUP6 DUP2 MSTORE PUSH1 0x20 ADD SWAP1 DUP2 MSTORE PUSH1 0x20 ADD PUSH0 KECCAK256 PUSH0 ADD PUSH0 DUP5 PUSH20 0xFFFFFFFFFFFFFFFFFFFFFFFFFFFFFFFFFFFFFFFF AND PUSH20 0xFFFFFFFFFFFFFFFFFFFFFFFFFFFFFFFFFFFFFFFF AND DUP2 MSTORE PUSH1 0x20 ADD SWAP1 DUP2 MSTORE PUSH1 0x20 ADD PUSH0 KECCAK256 PUSH0 PUSH2 0x100 EXP DUP2 SLOAD DUP2 PUSH1 0xFF MUL NOT AND SWAP1 DUP4 ISZERO ISZERO MUL OR SWAP1 SSTORE POP PUSH2 0xB38 PUSH2 0x90B JUMP JUMPDEST PUSH20 0xFFFFFFFFFFFFFFFFFFFFFFFFFFFFFFFFFFFFFFFF AND DUP3 PUSH20 0xFFFFFFFFFFFFFFFFFFFFFFFFFFFFFFFFFFFFFFFF AND DUP5 PUSH32 0x2F8788117E7EFF1D82E926EC794901D17C78024A50270940304540A733656F0D PUSH1 0x40 MLOAD PUSH1 0x40 MLOAD DUP1 SWAP2 SUB SWAP1 LOG4 PUSH1 0x1 SWAP1 POP PUSH2 0xB9F JUMP JUMPDEST PUSH0 SWAP1 POP JUMPDEST SWAP3 SWAP2 POP POP JUMP JUMPDEST PUSH0 PUSH2 0xBB0 DUP4 DUP4 PUSH2 0x6A9 JUMP JUMPDEST ISZERO PUSH2 0xC85 JUMPI PUSH0 PUSH1 0x5 PUSH0 DUP6 DUP2 MSTORE PUSH1 0x20 ADD SWAP1 DUP2 MSTORE PUSH1 0x20 ADD PUSH0 KECCAK256 PUSH0 ADD PUSH0 DUP5 PUSH20 0xFFFFFFFFFFFFFFFFFFFFFFFFFFFFFFFFFFFFFFFF AND PUSH20 0xFFFFFFFFFFFFFFFFFFFFFFFFFFFFFFFFFFFFFFFF AND DUP2 MSTORE PUSH1 0x20 ADD SWAP1 DUP2 MSTORE PUSH1 0x20 ADD PUSH0 KECCAK256 PUSH0 PUSH2 0x100 EXP DUP2 SLOAD DUP2 PUSH1 0xFF MUL NOT AND SWAP1 DUP4 ISZERO ISZERO MUL OR SWAP1 SSTORE POP PUSH2 0xC22 PUSH2 0x90B JUMP JUMPDEST PUSH20 0xFFFFFFFFFFFFFFFFFFFFFFFFFFFFFFFFFFFFFFFF AND DUP3 PUSH20 0xFFFFFFFFFFFFFFFFFFFFFFFFFFFFFFFFFFFFFFFF AND DUP5 PUSH32 0xF6391F5C32D9C69D2A47EA670B442974B53935D1EDC7FD64EB21E047A839171B PUSH1 0x40 MLOAD PUSH1 0x40 MLOAD DUP1 SWAP2 SUB SWAP1 LOG4 PUSH1 0x1 SWAP1 POP PUSH2 0xC89 JUMP JUMPDEST PUSH0 SWAP1 POP JUMPDEST SWAP3 SWAP2 POP POP JUMP JUMPDEST PUSH0 PUSH20 0xFFFFFFFFFFFFFFFFFFFFFFFFFFFFFFFFFFFFFFFF AND DUP3 PUSH20 0xFFFFFFFFFFFFFFFFFFFFFFFFFFFFFFFFFFFFFFFF AND SUB PUSH2 0xCFF JUMPI PUSH0 PUSH1 0x40 MLOAD PUSH32 0xEC442F0500000000000000000000000000000000000000000000000000000000 DUP2 MSTORE PUSH1 0x4 ADD PUSH2 0xCF6 SWAP2 SWAP1 PUSH2 0x1652 JUMP JUMPDEST PUSH1 0x40 MLOAD DUP1 SWAP2 SUB SWAP1 REVERT JUMPDEST PUSH2 0xD0A PUSH0 DUP4 DUP4 PUSH2 0xF5C JUMP JUMPDEST POP POP JUMP JUMPDEST PUSH0 PUSH20 0xFFFFFFFFFFFFFFFFFFFFFFFFFFFFFFFFFFFFFFFF AND DUP3 PUSH20 0xFFFFFFFFFFFFFFFFFFFFFFFFFFFFFFFFFFFFFFFF AND SUB PUSH2 0xD7E JUMPI PUSH0 PUSH1 0x40 MLOAD PUSH32 0x96C6FD1E00000000000000000000000000000000000000000000000000000000 DUP2 MSTORE PUSH1 0x4 ADD PUSH2 0xD75 SWAP2 SWAP1 PUSH2 0x1652 JUMP JUMPDEST PUSH1 0x40 MLOAD DUP1 SWAP2 SUB SWAP1 REVERT JUMPDEST PUSH2 0xD89 DUP3 PUSH0 DUP4 PUSH2 0xF5C JUMP JUMPDEST POP POP JUMP JUMPDEST PUSH0 PUSH20 0xFFFFFFFFFFFFFFFFFFFFFFFFFFFFFFFFFFFFFFFF AND DUP5 PUSH20 0xFFFFFFFFFFFFFFFFFFFFFFFFFFFFFFFFFFFFFFFF AND SUB PUSH2 0xDFD JUMPI PUSH0 PUSH1 0x40 MLOAD PUSH32 0xE602DF0500000000000000000000000000000000000000000000000000000000 DUP2 MSTORE PUSH1 0x4 ADD PUSH2 0xDF4 SWAP2 SWAP1 PUSH2 0x1652 JUMP JUMPDEST PUSH1 0x40 MLOAD DUP1 SWAP2 SUB SWAP1 REVERT JUMPDEST PUSH0 PUSH20 0xFFFFFFFFFFFFFFFFFFFFFFFFFFFFFFFFFFFFFFFF AND DUP4 PUSH20 0xFFFFFFFFFFFFFFFFFFFFFFFFFFFFFFFFFFFFFFFF AND SUB PUSH2 0xE6D JUMPI PUSH0 PUSH1 0x40 MLOAD PUSH32 0x94280D6200000000000000000000000000000000000000000000000000000000 DUP2 MSTORE PUSH1 0x4 ADD PUSH2 0xE64 SWAP2 SWAP1 PUSH2 0x1652 JUMP JUMPDEST PUSH1 0x40 MLOAD DUP1 SWAP2 SUB SWAP1 REVERT JUMPDEST DUP2 PUSH1 0x1 PUSH0 DUP7 PUSH20 0xFFFFFFFFFFFFFFFFFFFFFFFFFFFFFFFFFFFFFFFF AND PUSH20 0xFFFFFFFFFFFFFFFFFFFFFFFFFFFFFFFFFFFFFFFF AND DUP2 MSTORE PUSH1 0x20 ADD SWAP1 DUP2 MSTORE PUSH1 0x20 ADD PUSH0 KECCAK256 PUSH0 DUP6 PUSH20 0xFFFFFFFFFFFFFFFFFFFFFFFFFFFFFFFFFFFFFFFF AND PUSH20 0xFFFFFFFFFFFFFFFFFFFFFFFFFFFFFFFFFFFFFFFF AND DUP2 MSTORE PUSH1 0x20 ADD SWAP1 DUP2 MSTORE PUSH1 0x20 ADD PUSH0 KECCAK256 DUP2 SWAP1 SSTORE POP DUP1 ISZERO PUSH2 0xF56 JUMPI DUP3 PUSH20 0xFFFFFFFFFFFFFFFFFFFFFFFFFFFFFFFFFFFFFFFF AND DUP5 PUSH20 0xFFFFFFFFFFFFFFFFFFFFFFFFFFFFFFFFFFFFFFFF AND PUSH32 0x8C5BE1E5EBEC7D5BD14F71427D1E84F3DD0314C0F7B2291E5B200AC8C7C3B925 DUP5 PUSH1 0x40 MLOAD PUSH2 0xF4D SWAP2 SWAP1 PUSH2 0x13E7 JUMP JUMPDEST PUSH1 0x40 MLOAD DUP1 SWAP2 SUB SWAP1 LOG3 JUMPDEST POP POP POP POP JUMP JUMPDEST PUSH0 PUSH20 0xFFFFFFFFFFFFFFFFFFFFFFFFFFFFFFFFFFFFFFFF AND DUP4 PUSH20 0xFFFFFFFFFFFFFFFFFFFFFFFFFFFFFFFFFFFFFFFF AND SUB PUSH2 0xFAC JUMPI DUP1 PUSH1 0x2 PUSH0 DUP3 DUP3 SLOAD PUSH2 0xFA0 SWAP2 SWAP1 PUSH2 0x1698 JUMP JUMPDEST SWAP3 POP POP DUP2 SWAP1 SSTORE POP PUSH2 0x107A JUMP JUMPDEST PUSH0 PUSH0 PUSH0 DUP6 PUSH20 0xFFFFFFFFFFFFFFFFFFFFFFFFFFFFFFFFFFFFFFFF AND PUSH20 0xFFFFFFFFFFFFFFFFFFFFFFFFFFFFFFFFFFFFFFFF AND DUP2 MSTORE PUSH1 0x20 ADD SWAP1 DUP2 MSTORE PUSH1 0x20 ADD PUSH0 KECCAK256 SLOAD SWAP1 POP DUP2 DUP2 LT ISZERO PUSH2 0x1035 JUMPI DUP4 DUP2 DUP4 PUSH1 0x40 MLOAD PUSH32 0xE450D38C00000000000000000000000000000000000000000000000000000000 DUP2 MSTORE PUSH1 0x4 ADD PUSH2 0x102C SWAP4 SWAP3 SWAP2 SWAP1 PUSH2 0x161D JUMP JUMPDEST PUSH1 0x40 MLOAD DUP1 SWAP2 SUB SWAP1 REVERT JUMPDEST DUP2 DUP2 SUB PUSH0 PUSH0 DUP7 PUSH20 0xFFFFFFFFFFFFFFFFFFFFFFFFFFFFFFFFFFFFFFFF AND PUSH20 0xFFFFFFFFFFFFFFFFFFFFFFFFFFFFFFFFFFFFFFFF AND DUP2 MSTORE PUSH1 0x20 ADD SWAP1 DUP2 MSTORE PUSH1 0x20 ADD PUSH0 KECCAK256 DUP2 SWAP1 SSTORE POP POP JUMPDEST PUSH0 PUSH20 0xFFFFFFFFFFFFFFFFFFFFFFFFFFFFFFFFFFFFFFFF AND DUP3 PUSH20 0xFFFFFFFFFFFFFFFFFFFFFFFFFFFFFFFFFFFFFFFF AND SUB PUSH2 0x10C1 JUMPI DUP1 PUSH1 0x2 PUSH0 DUP3 DUP3 SLOAD SUB SWAP3 POP POP DUP2 SWAP1 SSTORE POP PUSH2 0x110B JUMP JUMPDEST DUP1 PUSH0 PUSH0 DUP5 PUSH20 0xFFFFFFFFFFFFFFFFFFFFFFFFFFFFFFFFFFFFFFFF AND PUSH20 0xFFFFFFFFFFFFFFFFFFFFFFFFFFFFFFFFFFFFFFFF AND DUP2 MSTORE PUSH1 0x20 ADD SWAP1 DUP2 MSTORE PUSH1 0x20 ADD PUSH0 KECCAK256 PUSH0 DUP3 DUP3 SLOAD ADD SWAP3 POP POP DUP2 SWAP1 SSTORE POP JUMPDEST DUP2 PUSH20 0xFFFFFFFFFFFFFFFFFFFFFFFFFFFFFFFFFFFFFFFF AND DUP4 PUSH20 0xFFFFFFFFFFFFFFFFFFFFFFFFFFFFFFFFFFFFFFFF AND PUSH32 0xDDF252AD1BE2C89B69C2B068FC378DAA952BA7F163C4A11628F55A4DF523B3EF DUP4 PUSH1 0x40 MLOAD PUSH2 0x1168 SWAP2 SWAP1 PUSH2 0x13E7 JUMP JUMPDEST PUSH1 0x40 MLOAD DUP1 SWAP2 SUB SWAP1 LOG3 POP POP POP JUMP JUMPDEST PUSH2 0x117F DUP3 DUP3 PUSH2 0x6A9 JUMP JUMPDEST PUSH2 0x11C2 JUMPI DUP1 DUP3 PUSH1 0x40 MLOAD PUSH32 0xE2517D3F00000000000000000000000000000000000000000000000000000000 DUP2 MSTORE PUSH1 0x4 ADD PUSH2 0x11B9 SWAP3 SWAP2 SWAP1 PUSH2 0x16CB JUMP JUMPDEST PUSH1 0x40 MLOAD DUP1 SWAP2 SUB SWAP1 REVERT JUMPDEST POP POP JUMP JUMPDEST PUSH0 PUSH0 REVERT JUMPDEST PUSH0 PUSH32 0xFFFFFFFF00000000000000000000000000000000000000000000000000000000 DUP3 AND SWAP1 POP SWAP2 SWAP1 POP JUMP JUMPDEST PUSH2 0x11FE DUP2 PUSH2 0x11CA JUMP JUMPDEST DUP2 EQ PUSH2 0x1208 JUMPI PUSH0 PUSH0 REVERT JUMPDEST POP JUMP JUMPDEST PUSH0 DUP2 CALLDATALOAD SWAP1 POP PUSH2 0x1219 DUP2 PUSH2 0x11F5 JUMP JUMPDEST SWAP3 SWAP2 POP POP JUMP JUMPDEST PUSH0 PUSH1 0x20 DUP3 DUP5 SUB SLT ISZERO PUSH2 0x1234 JUMPI PUSH2 0x1233 PUSH2 0x11C6 JUMP JUMPDEST JUMPDEST PUSH0 PUSH2 0x1241 DUP5 DUP3 DUP6 ADD PUSH2 0x120B JUMP JUMPDEST SWAP2 POP POP SWAP3 SWAP2 POP POP JUMP JUMPDEST PUSH0 DUP2 ISZERO ISZERO SWAP1 POP SWAP2 SWAP1 POP JUMP JUMPDEST PUSH2 0x125E DUP2 PUSH2 0x124A JUMP JUMPDEST DUP3 MSTORE POP POP JUMP JUMPDEST PUSH0 PUSH1 0x20 DUP3 ADD SWAP1 POP PUSH2 0x1277 PUSH0 DUP4 ADD DUP5 PUSH2 0x1255 JUMP JUMPDEST SWAP3 SWAP2 POP POP JUMP JUMPDEST PUSH0 DUP2 MLOAD SWAP1 POP SWAP2 SWAP1 POP JUMP JUMPDEST PUSH0 DUP3 DUP3 MSTORE PUSH1 0x20 DUP3 ADD SWAP1 POP SWAP3 SWAP2 POP POP JUMP JUMPDEST DUP3 DUP2 DUP4 MCOPY PUSH0 DUP4 DUP4 ADD MSTORE POP POP POP JUMP JUMPDEST PUSH0 PUSH1 0x1F NOT PUSH1 0x1F DUP4 ADD AND SWAP1 POP SWAP2 SWAP1 POP JUMP JUMPDEST PUSH0 PUSH2 0x12BF DUP3 PUSH2 0x127D JUMP JUMPDEST PUSH2 0x12C9 DUP2 DUP6 PUSH2 0x1287 JUMP JUMPDEST SWAP4 POP PUSH2 0x12D9 DUP2 DUP6 PUSH1 0x20 DUP7 ADD PUSH2 0x1297 JUMP JUMPDEST PUSH2 0x12E2 DUP2 PUSH2 0x12A5 JUMP JUMPDEST DUP5 ADD SWAP2 POP POP SWAP3 SWAP2 POP POP JUMP JUMPDEST PUSH0 PUSH1 0x20 DUP3 ADD SWAP1 POP DUP2 DUP2 SUB PUSH0 DUP4 ADD MSTORE PUSH2 0x1305 DUP2 DUP5 PUSH2 0x12B5 JUMP JUMPDEST SWAP1 POP SWAP3 SWAP2 POP POP JUMP JUMPDEST PUSH0 PUSH20 0xFFFFFFFFFFFFFFFFFFFFFFFFFFFFFFFFFFFFFFFF DUP3 AND SWAP1 POP SWAP2 SWAP1 POP JUMP JUMPDEST PUSH0 PUSH2 0x1336 DUP3 PUSH2 0x130D JUMP JUMPDEST SWAP1 POP SWAP2 SWAP1 POP JUMP JUMPDEST PUSH2 0x1346 DUP2 PUSH2 0x132C JUMP JUMPDEST DUP2 EQ PUSH2 0x1350 JUMPI PUSH0 PUSH0 REVERT JUMPDEST POP JUMP JUMPDEST PUSH0 DUP2 CALLDATALOAD SWAP1 POP PUSH2 0x1361 DUP2 PUSH2 0x133D JUMP JUMPDEST SWAP3 SWAP2 POP POP JUMP JUMPDEST PUSH0 DUP2 SWAP1 POP SWAP2 SWAP1 POP JUMP JUMPDEST PUSH2 0x1379 DUP2 PUSH2 0x1367 JUMP JUMPDEST DUP2 EQ PUSH2 0x1383 JUMPI PUSH0 PUSH0 REVERT JUMPDEST POP JUMP JUMPDEST PUSH0 DUP2 CALLDATALOAD SWAP1 POP PUSH2 0x1394 DUP2 PUSH2 0x1370 JUMP JUMPDEST SWAP3 SWAP2 POP POP JUMP JUMPDEST PUSH0 PUSH0 PUSH1 0x40 DUP4 DUP6 SUB SLT ISZERO PUSH2 0x13B0 JUMPI PUSH2 0x13AF PUSH2 0x11C6 JUMP JUMPDEST JUMPDEST PUSH0 PUSH2 0x13BD DUP6 DUP3 DUP7 ADD PUSH2 0x1353 JUMP JUMPDEST SWAP3 POP POP PUSH1 0x20 PUSH2 0x13CE DUP6 DUP3 DUP7 ADD PUSH2 0x1386 JUMP JUMPDEST SWAP2 POP POP SWAP3 POP SWAP3 SWAP1 POP JUMP JUMPDEST PUSH2 0x13E1 DUP2 PUSH2 0x1367 JUMP JUMPDEST DUP3 MSTORE POP POP JUMP JUMPDEST PUSH0 PUSH1 0x20 DUP3 ADD SWAP1 POP PUSH2 0x13FA PUSH0 DUP4 ADD DUP5 PUSH2 0x13D8 JUMP JUMPDEST SWAP3 SWAP2 POP POP JUMP JUMPDEST PUSH0 PUSH0 PUSH0 PUSH1 0x60 DUP5 DUP7 SUB SLT ISZERO PUSH2 0x1417 JUMPI PUSH2 0x1416 PUSH2 0x11C6 JUMP JUMPDEST JUMPDEST PUSH0 PUSH2 0x1424 DUP7 DUP3 DUP8 ADD PUSH2 0x1353 JUMP JUMPDEST SWAP4 POP POP PUSH1 0x20 PUSH2 0x1435 DUP7 DUP3 DUP8 ADD PUSH2 0x1353 JUMP JUMPDEST SWAP3 POP POP PUSH1 0x40 PUSH2 0x1446 DUP7 DUP3 DUP8 ADD PUSH2 0x1386 JUMP JUMPDEST SWAP2 POP POP SWAP3 POP SWAP3 POP SWAP3 JUMP JUMPDEST PUSH0 DUP2 SWAP1 POP SWAP2 SWAP1 POP JUMP JUMPDEST PUSH2 0x1462 DUP2 PUSH2 0x1450 JUMP JUMPDEST DUP2 EQ PUSH2 0x146C JUMPI PUSH0 PUSH0 REVERT JUMPDEST POP JUMP JUMPDEST PUSH0 DUP2 CALLDATALOAD SWAP1 POP PUSH2 0x147D DUP2 PUSH2 0x1459 JUMP JUMPDEST SWAP3 SWAP2 POP POP JUMP JUMPDEST PUSH0 PUSH1 0x20 DUP3 DUP5 SUB SLT ISZERO PUSH2 0x1498 JUMPI PUSH2 0x1497 PUSH2 0x11C6 JUMP JUMPDEST JUMPDEST PUSH0 PUSH2 0x14A5 DUP5 DUP3 DUP6 ADD PUSH2 0x146F JUMP JUMPDEST SWAP2 POP POP SWAP3 SWAP2 POP POP JUMP JUMPDEST PUSH2 0x14B7 DUP2 PUSH2 0x1450 JUMP JUMPDEST DUP3 MSTORE POP POP JUMP JUMPDEST PUSH0 PUSH1 0x20 DUP3 ADD SWAP1 POP PUSH2 0x14D0 PUSH0 DUP4 ADD DUP5 PUSH2 0x14AE JUMP JUMPDEST SWAP3 SWAP2 POP POP JUMP JUMPDEST PUSH0 PUSH0 PUSH1 0x40 DUP4 DUP6 SUB SLT ISZERO PUSH2 0x14EC JUMPI PUSH2 0x14EB PUSH2 0x11C6 JUMP JUMPDEST JUMPDEST PUSH0 PUSH2 0x14F9 DUP6 DUP3 DUP7 ADD PUSH2 0x146F JUMP JUMPDEST SWAP3 POP POP PUSH1 0x20 PUSH2 0x150A DUP6 DUP3 DUP7 ADD PUSH2 0x1353 JUMP JUMPDEST SWAP2 POP POP SWAP3 POP SWAP3 SWAP1 POP JUMP JUMPDEST PUSH0 PUSH1 0xFF DUP3 AND SWAP1 POP SWAP2 SWAP1 POP JUMP JUMPDEST PUSH2 0x1529 DUP2 PUSH2 0x1514 JUMP JUMPDEST DUP3 MSTORE POP POP JUMP JUMPDEST PUSH0 PUSH1 0x20 DUP3 ADD SWAP1 POP PUSH2 0x1542 PUSH0 DUP4 ADD DUP5 PUSH2 0x1520 JUMP JUMPDEST SWAP3 SWAP2 POP POP JUMP JUMPDEST PUSH0 PUSH1 0x20 DUP3 DUP5 SUB SLT ISZERO PUSH2 0x155D JUMPI PUSH2 0x155C PUSH2 0x11C6 JUMP JUMPDEST JUMPDEST PUSH0 PUSH2 0x156A DUP5 DUP3 DUP6 ADD PUSH2 0x1353 JUMP JUMPDEST SWAP2 POP POP SWAP3 SWAP2 POP POP JUMP JUMPDEST PUSH0 PUSH0 PUSH1 0x40 DUP4 DUP6 SUB SLT ISZERO PUSH2 0x1589 JUMPI PUSH2 0x1588 PUSH2 0x11C6 JUMP JUMPDEST JUMPDEST PUSH0 PUSH2 0x1596 DUP6 DUP3 DUP7 ADD PUSH2 0x1353 JUMP JUMPDEST SWAP3 POP POP PUSH1 0x20 PUSH2 0x15A7 DUP6 DUP3 DUP7 ADD PUSH2 0x1353 JUMP JUMPDEST SWAP2 POP POP SWAP3 POP SWAP3 SWAP1 POP JUMP JUMPDEST PUSH32 0x4E487B7100000000000000000000000000000000000000000000000000000000 PUSH0 MSTORE PUSH1 0x22 PUSH1 0x4 MSTORE PUSH1 0x24 PUSH0 REVERT JUMPDEST PUSH0 PUSH1 0x2 DUP3 DIV SWAP1 POP PUSH1 0x1 DUP3 AND DUP1 PUSH2 0x15F5 JUMPI PUSH1 0x7F DUP3 AND SWAP2 POP JUMPDEST PUSH1 0x20 DUP3 LT DUP2 SUB PUSH2 0x1608 JUMPI PUSH2 0x1607 PUSH2 0x15B1 JUMP JUMPDEST JUMPDEST POP SWAP2 SWAP1 POP JUMP JUMPDEST PUSH2 0x1617 DUP2 PUSH2 0x132C JUMP JUMPDEST DUP3 MSTORE POP POP JUMP JUMPDEST PUSH0 PUSH1 0x60 DUP3 ADD SWAP1 POP PUSH2 0x1630 PUSH0 DUP4 ADD DUP7 PUSH2 0x160E JUMP JUMPDEST PUSH2 0x163D PUSH1 0x20 DUP4 ADD DUP6 PUSH2 0x13D8 JUMP JUMPDEST PUSH2 0x164A PUSH1 0x40 DUP4 ADD DUP5 PUSH2 0x13D8 JUMP JUMPDEST SWAP5 SWAP4 POP POP POP POP JUMP JUMPDEST PUSH0 PUSH1 0x20 DUP3 ADD SWAP1 POP PUSH2 0x1665 PUSH0 DUP4 ADD DUP5 PUSH2 0x160E JUMP JUMPDEST SWAP3 SWAP2 POP POP JUMP JUMPDEST PUSH32 0x4E487B7100000000000000000000000000000000000000000000000000000000 PUSH0 MSTORE PUSH1 0x11 PUSH1 0x4 MSTORE PUSH1 0x24 PUSH0 REVERT JUMPDEST PUSH0 PUSH2 0x16A2 DUP3 PUSH2 0x1367 JUMP JUMPDEST SWAP2 POP PUSH2 0x16AD DUP4 PUSH2 0x1367 JUMP JUMPDEST SWAP3 POP DUP3 DUP3 ADD SWAP1 POP DUP1 DUP3 GT ISZERO PUSH2 0x16C5 JUMPI PUSH2 0x16C4 PUSH2 0x166B JUMP JUMPDEST JUMPDEST SWAP3 SWAP2 POP POP JUMP JUMPDEST PUSH0 PUSH1 0x40 DUP3 ADD SWAP1 POP PUSH2 0x16DE PUSH0 DUP4 ADD DUP6 PUSH2 0x160E JUMP JUMPDEST PUSH2 0x16EB PUSH1 0x20 DUP4 ADD DUP5 PUSH2 0x14AE JUMP JUMPDEST SWAP4 SWAP3 POP POP POP JUMP INVALID LOG2 PUSH5 0x6970667358 0x22 SLT KECCAK256 0xB2 0x4B 0xF7 0x4E SWAP1 SWAP5 DUP16 0xF 0xB1 MLOAD DUP16 0xCC 0xC7 PUSH4 0xDBECD416 PUSH32 0x43B527267A4F0FA6401A73AC9064736F6C634300081E00330000000000000000 "
				},
				"gasEstimates": {
					"creation": {
						"codeDepositCost": "1185600",
						"executionCost": "infinite",
						"totalCost": "infinite"
					},
					"external": {
						"DEFAULT_ADMIN_ROLE()": "373",
						"MINTER_BURNER_ROLE()": "392",
						"allowance(address,address)": "infinite",
						"approve(address,uint256)": "infinite",
						"balanceOf(address)": "2873",
						"burn(address,uint256)": "infinite",
						"decimals()": "427",
						"getRoleAdmin(bytes32)": "infinite",
						"grantRole(bytes32,address)": "infinite",
						"hasRole(bytes32,address)": "3210",
						"mint(address,uint256)": "infinite",
						"name()": "infinite",
						"renounceRole(bytes32,address)": "infinite",
						"revokeRole(bytes32,address)": "infinite",
						"supportsInterface(bytes4)": "741",
						"symbol()": "infinite",
						"totalSupply()": "2522",
						"transfer(address,uint256)": "infinite",
						"transferFrom(address,address,uint256)": "infinite"
					}
				},
				"methodIdentifiers": {
					"DEFAULT_ADMIN_ROLE()": "a217fddf",
					"MINTER_BURNER_ROLE()": "72c32860",
					"allowance(address,address)": "dd62ed3e",
					"approve(address,uint256)": "095ea7b3",
					"balanceOf(address)": "70a08231",
					"burn(address,uint256)": "9dc29fac",
					"decimals()": "313ce567",
					"getRoleAdmin(bytes32)": "248a9ca3",
					"grantRole(bytes32,address)": "2f2ff15d",
					"hasRole(bytes32,address)": "91d14854",
					"mint(address,uint256)": "40c10f19",
					"name()": "06fdde03",
					"renounceRole(bytes32,address)": "36568abe",
					"revokeRole(bytes32,address)": "d547741f",
					"supportsInterface(bytes4)": "01ffc9a7",
					"symbol()": "95d89b41",
					"totalSupply()": "18160ddd",
					"transfer(address,uint256)": "a9059cbb",
					"transferFrom(address,address,uint256)": "23b872dd"
				}
			},
			"storageLayout": {
				"storage": [
					{
						"astId": 538,
						"contract": "src/InvestmentPoolToken.sol:InvestmentPoolToken",
						"label": "_balances",
						"offset": 0,
						"slot": "0",
						"type": "t_mapping(t_address,t_uint256)"
					},
					{
						"astId": 544,
						"contract": "src/InvestmentPoolToken.sol:InvestmentPoolToken",
						"label": "_allowances",
						"offset": 0,
						"slot": "1",
						"type": "t_mapping(t_address,t_mapping(t_address,t_uint256))"
					},
					{
						"astId": 546,
						"contract": "src/InvestmentPoolToken.sol:InvestmentPoolToken",
						"label": "_totalSupply",
						"offset": 0,
						"slot": "2",
						"type": "t_uint256"
					},
					{
						"astId": 548,
						"contract": "src/InvestmentPoolToken.sol:InvestmentPoolToken",
						"label": "_name",
						"offset": 0,
						"slot": "3",
						"type": "t_string_storage"
					},
					{
						"astId": 550,
						"contract": "src/InvestmentPoolToken.sol:InvestmentPoolToken",
						"label": "_symbol",
						"offset": 0,
						"slot": "4",
						"type": "t_string_storage"
					},
					{
						"astId": 26,
						"contract": "src/InvestmentPoolToken.sol:InvestmentPoolToken",
						"label": "_roles",
						"offset": 0,
						"slot": "5",
						"type": "t_mapping(t_bytes32,t_struct(RoleData)21_storage)"
					}
				],
				"types": {
					"t_address": {
						"encoding": "inplace",
						"label": "address",
						"numberOfBytes": "20"
					},
					"t_bool": {
						"encoding": "inplace",
						"label": "bool",
						"numberOfBytes": "1"
					},
					"t_bytes32": {
						"encoding": "inplace",
						"label": "bytes32",
						"numberOfBytes": "32"
					},
					"t_mapping(t_address,t_bool)": {
						"encoding": "mapping",
						"key": "t_address",
						"label": "mapping(address => bool)",
						"numberOfBytes": "32",
						"value": "t_bool"
					},
					"t_mapping(t_address,t_mapping(t_address,t_uint256))": {
						"encoding": "mapping",
						"key": "t_address",
						"label": "mapping(address => mapping(address => uint256))",
						"numberOfBytes": "32",
						"value": "t_mapping(t_address,t_uint256)"
					},
					"t_mapping(t_address,t_uint256)": {
						"encoding": "mapping",
						"key": "t_address",
						"label": "mapping(address => uint256)",
						"numberOfBytes": "32",
						"value": "t_uint256"
					},
					"t_mapping(t_bytes32,t_struct(RoleData)21_storage)": {
						"encoding": "mapping",
						"key": "t_bytes32",
						"label": "mapping(bytes32 => struct AccessControl.RoleData)",
						"numberOfBytes": "32",
						"value": "t_struct(RoleData)21_storage"
					},
					"t_string_storage": {
						"encoding": "bytes",
						"label": "string",
						"numberOfBytes": "32"
					},
					"t_struct(RoleData)21_storage": {
						"encoding": "inplace",
						"label": "struct AccessControl.RoleData",
						"members": [
							{
								"astId": 18,
								"contract": "src/InvestmentPoolToken.sol:InvestmentPoolToken",
								"label": "hasRole",
								"offset": 0,
								"slot": "0",
								"type": "t_mapping(t_address,t_bool)"
							},
							{
								"astId": 20,
								"contract": "src/InvestmentPoolToken.sol:InvestmentPoolToken",
								"label": "adminRole",
								"offset": 0,
								"slot": "1",
								"type": "t_bytes32"
							}
						],
						"numberOfBytes": "64"
					},
					"t_uint256": {
						"encoding": "inplace",
						"label": "uint256",
						"numberOfBytes": "32"
					}
				}
			},
			"userdoc": {
				"kind": "user",
				"methods": {},
				"notice": "USDT pool with lock-in, admin/manager roles, threshold-based transfer to multisig, and pool ERC20 token",
				"version": 1
			}
		}
	}
}